:020000040800F2
:1000000000000220BD230008CD220008CF220008F6
:10001000D1220008D3220008D522000800000000E9
:10002000000000000000000000000000D7220008CF
:10003000D922000800000000DB220008DD220008B1
:100040000D2400080D2400080D2400080D240008CC
:100050000D2400080D2400080D2400080D240008BC
:100060000D2400080D2400080D2400080D240008AC
:100070000D2400080D2400080D2400080D2400089C
:100080000D2400080D2400080D2400080D2400088C
:100090000D2400080D2400080D2400080D2400087C
:1000A0000D2400080D2400080D2400080D2400086C
:1000B0000D2400080D2400080D2400080D2400085C
:1000C0000D2400080D2400080D2400080D2400084C
:1000D0000D2400080D2400080D2400080D2400083C
:1000E0000D2400080D2400080D2400080D2400082C
:1000F0000D2400080D2400080D2400080D2400081C
:100100000D2400080D2400080D2400080D2400080B
:100110000D2400080D2400080D2400080D240008FB
:100120000D2400080D2400080D2400080D240008EB
:100130000D2400080D2400080D2400080D240008DB
:100140000D2400080D2400080D2400080D240008CB
:100150000D2400080D2400080D2400080D240008BB
:100160000D2400080D2400080D2400080D240008AB
:100170000D2400080D2400080D24000800000000D4
:080180000D2400080D24000805
:1001880010B5054C237833B9044B13B10448AFF3C9
:1001980000800123237010BD98000020000000009B
:1001A800542D000808B5034B1BB103490348AFF3AE
:1001B800008008BD000000009C000020542D0008AD
:1001C80053B94AB9002908BF00281CBF4FF0FF31B6
:1001D8004FF0FF3000F072B9ADF1080C6DE904CEB4
:1001E80000F006F8DDF804E0DDE9022304B070470A
:1001F8002DE9F047089E04468846002B4BD18A42D9
:10020800154667D9B2FA82F24AB1C2F1200701FA5B
:1002180002F320FA07F7954047EA030894404FEAAB
:10022800154E230CB8FBFEF71FFA85FC0EFB17884A
:1002380043EA084307FB0CF1994209D9EB1807F187
:10024800FF3080F01B81994240F21881023F2B4415
:100258005B1AA4B2B3FBFEF00EFB103344EA03446E
:1002680000FB0CFCA44509D92C1900F1FF3380F0E0
:100278000781A44540F2048102382C4440EA074033
:10028800A4EB0C0400271EB1D4400023C6E90043A8
:100298003946BDE8F0878B4209D9002E00F0EB8083
:1002A8000027C6E9000138463946BDE8F087B3FAA9
:1002B80083F7002F47D18B4202D3824200F2FA80A3
:1002C800841A61EB030301209846002EE0D0C6E9AA
:1002D8000048DDE702B9FFDEB2FA82F2002A40F0F8
:1002E8008F80491B4FEA154E1FFA85F80127B1FB8D
:1002F800FEFC230C0EFB1C1143EA014308FB0CF126
:10030800994207D9EB180CF1FF3002D2994200F25A
:10031800CD808446591AA3B2B1FBFEF00EFB10142F
:1003280043EA044408FB00F8A04507D92C1900F15A
:10033800FF3302D2A04500F2B6801846A4EB0804A9
:1003480040EA0C409FE7C7F1200CBB4022FA0CFEA4
:100358004EEA030E01FA07F420FA0CF521FA0CF321
:100368004FEA1E482543B3FBF8F92C0C08FB193358
:100378001FFA8EFA44EA034309FB0AF49C4202FA84
:1003880007F200FA07F10BD91EEB030309F1FF305E
:1003980080F087809C4240F28480A9F1020973446E
:1003A8001B1BADB2B3FBF8F008FB103345EA03445E
:1003B80000FB0AFAA24508D91EEB040400F1FF333A
:1003C8006BD2A24569D90238744440EA0940A0FBBF
:1003D8000289A4EB0A044C45C2464B4654D351D07B
:1003E800002E69D0B1EB0A0564EB030404FA0CFC97
:1003F800FD40FC404CEA0505C6E90054002747E7E4
:10040800C2F1200320FA03F7954001FA02F021FA1D
:1004180003F34FEA154E3843010CB3FBFEF71FFAFE
:1004280085F80EFB173341EA034107FB08F38B42BB
:1004380004FA02F407D9691807F1FF3C2FD28B425E
:100448002DD9023F2944CB1A81B2B3FBFEF00EFB33
:10045800103341EA034100FB08F38B4207D96918BE
:1004680000F1FF3C17D28B4215D902382944C91A2A
:1004780040EA07473BE73746304609E70746E7E6DD
:100488001846FBE64145ABD2B8EB020A69EB0E020F
:1004980001381346A4E76046E9E7184695E767463A
:1004A800D1E781467CE702382C4447E7ACF1020CDF
:1004B8002B442FE7384608E73746E9E6704700BF80
:1004C80010B504460E4B18784FF47A73B3FBF0F36B
:1004D8000C4A1068B0FBF3F000F09CF868B90F2CD8
:1004E80001D901200AE0002221464FF0FF3000F038
:1004F8005DF8034B5C60002000E0012010BD00BFE8
:10050800000000203000002008B50B4B1A6842F4A8
:1005180000721A601A6842F480621A601A6842F41B
:1005280080721A60032000F02FF80020FFF7C8FF40
:1005380001F038FE002008BD003C0240034A116863
:10054800034B1B780B441360704700BFC4000020A6
:1005580000000020014B1868704700BFC40000204D
:1005680038B50446FFF7F6FF0546B4F1FF3F02D061
:10057800044B1B781C44FFF7EDFF401BA042FAD345
:1005880038BD00BF00000020074AD36823F4E063A9
:100598001B041B0C000200F4E060184340F0BF602D
:1005A80040F40030D060704700ED00E030B4174BE5
:1005B800DB68C3F30223C3F10704042C28BF042417
:1005C8001D1D062D18D9033B4FF0FF3505FA04F41D
:1005D80021EA0401994005FA03F322EA03031943C7
:1005E80000280BDB0901C9B200F1604000F5614049
:1005F80080F8001330BC70470023E5E700F00F00D7
:100608000901C9B2024B1954F4E700BF00ED00E03C
:1006180014ED00E00138B0F1807F0AD2064B586033
:10062800064AF02182F823100020986007221A60F9
:1006380070470120704700BF10E000E000ED00E0C7
:1006480000230F2B00F2D780F0B482B039E00722E4
:1006580000E00022B2403A430234674E46F82420B4
:10066800664A1468EA4302EA04064F6817F4803FB2
:1006780001D045EA0406614C2660646802EA040673
:100688004F6817F4003F01D045EA04065B4C6660EA
:10069800A46802EA04064F6817F4801F01D045EAEF
:1006A8000406564CA660E46822404E6816F4001F03
:1006B80001D045EA0402514CE26001330F2B00F2ED
:1006C800978001229A400C6804EA0205AA42F4D1F4
:1006D8004C68022C01D0122C10D1DE08083650F8D4
:1006E80026C003F00704A7000F24BC402CEA040C22
:1006F8000C69BC4044EA0C0440F8264004685F00DA
:100708000326BE40F64306EA040C4C6804F00304D2
:10071800BC4044EA0C0404604C6804F1FF3CBCF1A2
:10072800010F03D9112C01D0122C10D1846806EACC
:10073800040CCC68BC4044EA0C048460446824EA95
:1007480002024C68C4F300149C4014434460C2681D
:1007580016408A68BA403243C2604A6812F0805F25
:10076800ABD000220192264A546C44F4804454646D
:10077800526C02F480420192019A9C08A61C1E4AFF
:1007880052F8267003F0030296000F22B24027EABF
:1007980002071C4A90423FF45CAF02F58062904227
:1007A8001AD002F58062904218D002F58062904219
:1007B80016D002F58062904214D002F58062904211
:1007C80012D002F58062904210D002F58062904209
:1007D8003FF43DAF08223DE701223BE7022239E71B
:1007E800032237E7042235E7052233E7062231E7FB
:1007F80002B0F0BC7047704700380140003C01402F
:1008080000380240000002400369194201D100206B
:1008180070470120704712B90904816170478161EE
:1008280070470000002800F0BB8170B582B0044614
:10083800036813F0010F3BD0A74B9B6803F00C0330
:10084800042B2CD0A44B9B6803F00C03082B21D05D
:100858006368B3F5803F4FD0B3F5A02F52D09E4BBD
:100868001A6822F480321A601A6822F480221A6008
:100878006368002B50D0FFF76DFE0546964B1B684A
:1008880013F4003F14D1FFF765FE401B6428F5D927
:1008980003208AE1904B5B6813F4800FD8D08E4B0D
:1008A8001B6813F4003F03D06368002B00F07A81C3
:1008B800236813F0020F55D0874B9B6813F00C0F79
:1008C8003ED0854B9B6803F00C03082B33D0E368BC
:1008D800002B68D0814B01221A60FFF73BFE0546CA
:1008E8007D4B1B6813F0020F54D1FFF733FE401BFA
:1008F8000228F5D9032058E1774A136843F4803376
:100908001360B5E7744B1A6842F480221A601A68BB
:1009180042F480321A60ABE7FFF71CFE05466E4BC7
:100928001B6813F4003FC3D0FFF714FE401B642874
:10093800F5D9032039E1684B5B6813F4800FC6D101
:10094800654B1B6813F0020F04D0E368012B01D03C
:1009580001202AE1604A136823F0F803216943EA79
:10096800C1031360236813F0080F40D0636963B3B1
:100978005B4B01221A60FFF7EDFD0546564B5B6F96
:1009880013F0020F33D1FFF7E5FD401B0228F5D91C
:1009980003200AE1504A136823F0F803216943EA67
:1009A800C1031360DEE74D4B00221A60FFF7D2FD4A
:1009B8000546494B1B6813F0020FD3D0FFF7CAFD59
:1009C800401B0228F5D90320EFE0454B00221A60AE
:1009D800FFF7C0FD0546404B5B6F13F0020F06D0D2
:1009E800FFF7B8FD401B0228F5D90320DDE0236896
:1009F80013F0040F79D0384B1B6C13F0805F33D1A0
:100A080000230193344B1A6C42F080521A641B6C19
:100A180003F080530193019B0125324B1B6813F4AB
:100A2800807F23D0A368012B34D0052B38D02A4BE4
:100A38001A6F22F001021A671A6F22F004021A676D
:100A4800A368002B36D0FFF785FD0646224B1B6FA7
:100A580013F0020F48D1FFF77DFD801B41F2883368
:100A68009842F3D90320A0E00025D6E71D4A136871
:100A780043F480731360FFF76DFD0646194B1B683E
:100A880013F4807FCED1FFF765FD801B0228F5D9CE
:100A980003208AE0104A136F43F001031367CFE77E
:100AA8000D4B1A6F42F004021A671A6F42F00102E6
:100AB8001A67C5E7FFF74EFD0646074B1B6F13F095
:100AC800020F11D0FFF746FD801B41F28833984290
:100AD800F3D9032069E000BF003802400000474214
:100AE800800E474200700040E5B9A369002B5BD037
:100AF800304A926802F00C02082A58D0022B17D00C
:100B08002D4B00221A60FFF725FD0446294B1B6870
:100B180013F0007F42D0FFF71DFD001B0228F5D916
:100B2800032042E0234A136C23F080531364DCE76C
:100B3800214B00221A60FFF70DFD05461D4B1B686F
:100B480013F0007F06D0FFF705FD401B0228F5D9FA
:100B580003202AE0E369226A1343626A43EA8213A4
:100B6800A26A5208013A43EA0243E26A43EA02638C
:100B7800104A5360104B01221A60FFF7EBFC044641
:100B88000C4B1B6813F0007F06D1FFF7E3FC001B3A
:100B98000228F5D9032008E0002006E0002004E040
:100BA80001207047012000E0002002B070BD012044
:100BB800FBE700BF0038024060004742324B9B68A9
:100BC80003F00C03042B5CD0082B01D02F4870478E
:100BD8002DE9F04B2C4B5A6802F03F025B6813F486
:100BE800800F2BD0284B5B68C3F388131E46002761
:100BF8005C010025E41A65EB0705A90141EA946147
:100C0800A001001B61EB0501CB0043EA5073C4004F
:100C1800A01943EB07014B0243EAD0534402204694
:100C280019460023FFF7CCFA174B5B68C3F301435F
:100C380001335B00B0FBF3F0BDE8F08B124B5B684F
:100C4800C3F388131E4600275C010025E41A65EBF0
:100C58000705A90141EA9461A001001B61EB0501A8
:100C6800CB0043EA5073C400A01943EB07018B0281
:100C780043EA90538402204619460023FFF7A0FA5E
:100C8800D2E70348704700BF003802400024F40050
:100C980000127A00002800F09D8070B504464F4B82
:100CA8001B6803F00F038B4209D2CBB24B4A137077
:100CB800136803F00F038B4201D0012070BD236835
:100CC80013F0020F17D013F0040F04D0444A9368AE
:100CD80043F4E0539360236813F0080F04D0404AAC
:100CE800936843F4604393603D4A936823F0F003AC
:100CF800A068034393600D46236813F0010F32D0B8
:100D08006368012B21D09A1E012A25D9344A12681A
:100D180012F0020F60D032498A6822F003021343AE
:100D28008B60FFF717FC06462D4B9B6803F00C03FE
:100D38006268B3EB820F16D0FFF70CFC801B41F200
:100D480088339842F0D90320B8E7254A126812F48C
:100D5800003FE0D10120B1E7214A126812F0007F7C
:100D6800D9D10120AAE71D4B1B6803F00F03AB4242
:100D780009D9EAB2194B1A701B6803F00F03AB428A
:100D880001D001209AE7236813F0040F06D0144A13
:100D9800936823F4E053E1680B439360236813F0EE
:100DA800080F07D00E4A936823F46043216943EA89
:100DB800C1039360FFF702FF094B9B68C3F303135A
:100DC800084AD35CD840084B18600020FFF778FB2E
:100DD800002073E70120704701206FE7003C0240C4
:100DE800003802405C50000830000020014B1868B1
:100DF800704700BF3000002008B5FFF7F7FF044B2D
:100E08009B68C3F38223034AD35CD84008BD00BF64
:100E1800003802406C50000808B5FFF7E7FF044BA4
:100E28009B68C3F34233034AD35CD84008BD00BF74
:100E3800003802406C500008F8B505460F461646C3
:100E48001C462B689B6837EA03030CBF0123002369
:100E5800B34237D0B4F1FF3FF3D0FFF77BFB069BDB
:100E6800C01AA04201D2002CEBD12A68536823F0A3
:100E7800E00353606B68B3F5827F0BD0AB6AB3F5C0
:100E8800005F14D0012385F85130002385F85030D5
:100E9800032018E0AB68B3F5004F02D0B3F5806FBC
:100EA800ECD12A68136823F040031360E6E72A6848
:100EB800136823F4005313602A68136843F400533B
:100EC8001360DFE70020F8BD10B582B00446009239
:100ED8000B4600228021FFF7AFFF034610B91846E2
:100EE80002B010BD636D43F0200363650323F6E78A
:100EF80000283BD010B504460023836290F8513097
:100F0800002B2ED0022384F851302268136823F076
:100F1800400313606368A2681343E26813432269BD
:100F2800134362691343A26902F400721343E2692E
:100F38001343226A1343A16A22680B431360638B2D
:100F480003F00403616A22680B4353602268D36983
:100F580023F40063D36100206065012384F85130D5
:100F680010BD80F8503001F039F9CBE70120704707
:100F78002DE9F04182B090F85040012C00F0C38078
:100F88001D46174688460446012380F85030FFF76F
:100F9800E1FA064694F85130DBB2012B09D0022061
:100FA800012384F85130002384F8503002B0BDE8A2
:100FB800F081B8F1000F00F09880002F00F09780C2
:100FC800032384F8513000236365C4F83080A78672
:100FD800E786A363A387E38763642364A368B3F501
:100FE800004F1CD023681A6812F0400F03D11A680A
:100FF80042F040021A60E368B3F5006F15D06368E9
:101008000BB1012F49D1226B236812781A73236B15
:1010180001332363E38E013B9BB2E3863DE0226804
:10102800136843F480431360DCE763680BB1012F56
:1010380015D1226B23681288DA60236B023323638D
:10104800E38E013B9BB2E38609E0FFF783FA801B3E
:10105800A84202D3B5F1FF3F4BD1002D4BD0E38E10
:101068009BB2002B2CD023689A6812F0020FECD0A8
:10107800226B1288DA60236B02332363E38E013B11
:101088009BB2E386EBE7FFF765FA801BA84202D321
:10109800B5F1FF3F31D1002D31D0E38E9BB27BB14A
:1010A80023689A6812F0020FEDD0226B12781A7337
:1010B800236B01332363E38E013B9BB2E386ECE7AA
:1010C800324629462046FFF7FFFE08B12023636514
:1010D800A36833B901932368DA6801929B68019386
:1010E800019B636D6BB900205AE7012058E7012086
:1010F80056E7032054E7032052E7032050E7032074
:101108004EE701204CE7022050E700002DE9F843A4
:1011180004460268136923F44053C1680B43136102
:1011280083680269134342691343C2691A43016819
:10113800CB6823F4164323F00C031343CB600268F7
:10114800536923F4407381690B435361C369B3F551
:10115800004F60D00368B84A934200F0148102F54A
:101168008062934200F00F81FFF746FE00EB80009B
:1011780000EB80006568AD00B0FBF5F5AF4FA7FB4D
:1011880005356D092E01FFF737FE00EB800000EBF7
:1011980080006568AD00B0FBF5F9FFF72DFE00EBA8
:1011A800800000EB80006568AD00B0FBF5F5A7FB9B
:1011B80005356D094FF0640808FB15952D0132358A
:1011C800A7FB05356D0905F0F0053544FFF714FE5A
:1011D80000EB800000EB80006668B600B0FBF6F616
:1011E800FFF70AFE00EB800000EB800063689B00BD
:1011F800B0FBF3F0A7FB0030400908FB10684FEA8A
:10120800081808F13208A7FB0837C7F34317236803
:101218002F449F600DE10368874A93425BD002F533
:101228008062934257D0FFF7E7FD00EB800000EBA8
:10123800800065686D00B0FBF5F5804FA7FB0535AC
:101248006D092E01FFF7D8FD00EB800000EB800050
:1012580065686D00B0FBF5F9FFF7CEFD00EB800087
:1012680000EB800065686D00B0FBF5F5A7FB053560
:101278006D094FF0640808FB1595ED003235A7FBA2
:1012880005356D096D0005F4F8753544FFF7B4FDB3
:1012980000EB800000EB800066687600B0FBF6F695
:1012A800FFF7AAFD00EB800000EB800063685B009D
:1012B800B0FBF3F3A7FB03235B0908FB13684FEAB2
:1012C800C80808F13208A7FB0837C7F34217236894
:1012D8002F449F60ADE0FFF79FFD00EB800000EB1F
:1012E800800065686D00B0FBF5F5544FA7FB053528
:1012F8006D092E01FFF790FD00EB800000EB8000E8
:1013080065686D00B0FBF5F9FFF786FD00EB80001E
:1013180000EB800065686D00B0FBF5F5A7FB0535AF
:101328006D094FF0640808FB1595ED003235A7FBF1
:1013380005356D096D0005F4F8753544FFF76CFD4A
:1013480000EB800000EB800066687600B0FBF6F6E4
:10135800FFF762FD00EB800000EB800063685B0034
:10136800B0FBF3F3A7FB03235B0908FB13684FEA01
:10137800C80808F13208A7FB0837C7F342172368E3
:101388002F449F6055E0FFF747FD00EB800000EB1E
:1013980080006568AD00B0FBF5F5284FA7FB053563
:1013A8006D092E01FFF738FD00EB800000EB80008F
:1013B8006568AD00B0FBF5F9FFF72EFD00EB800086
:1013C80000EB80006568AD00B0FBF5F5A7FB0535BF
:1013D8006D094FF0640808FB15952D013235A7FB00
:1013E80005356D0905F0F0053544FFF715FD00EBEF
:1013F800800000EB80006668B600B0FBF6F6FFF7E9
:101408000BFD00EB800000EB800063689B00B0FBE5
:10141800F3F0A7FB0030400908FB10684FEA0818F2
:1014280008F13208A7FB0837C7F3431723682F448E
:101438009F60BDE8F88300BF001001401F85EB5195
:101448002DE9F04105460F4616469846069C2B683E
:101458001B6837EA03030CBF01230023B3421DD1E5
:10146800B4F1FF3FF3D02CB1FFF774F8A0EB0800FC
:10147800A042ECD92A68D36823F4D073D3602A68D1
:10148800536923F001035361202385F8393085F827
:101498003A30002385F83830032000E00020BDE80A
:1014A800F08158B310B5044690F839300BB32423B3
:1014B80084F839302268D36823F40053D360204677
:1014C800FFF724FE2268136923F49043136122680E
:1014D800536923F02A0353612268D36843F4005305
:1014E800D3600020E063202384F8393084F83A3050
:1014F80010BD80F8383000F0A9FED8E70120704709
:101508002DE9F04182B01E4690F83930DBB2202B2D
:1015180055D104460D469046002955D0002A55D08D
:1015280090F83830012B53D0012380F8383000234D
:10153800C363212380F83930FFF70CF80746A4F875
:101548002480A4F8268010E000963B4600228021E3
:101558002046FFF775FF00283CD12B882268C3F38B
:10156800080353602369C3B90235E38C9BB2B3B156
:10157800E38C013B9BB2E384A368B3F5805FE3D0BF
:1015880000963B46002280212046FFF759FF18BBF2
:101598002A7823685A600135E7E70135E5E70096C0
:1015A8003B46002240212046FFF74AFF0346A8B9E0
:1015B800202284F83920002284F8382000E0022311
:1015C800184602B0BDE8F0810123F9E70123F7E7E7
:1015D8000223F5E70323F3E70323F1E70323EFE708
:1015E80030B589B0002403940494059406940794B4
:1015F8000194174B1A6B42F080021A631A6B02F0BF
:1016080080020192019A02941A6B42F001021A6355
:101618001B6B03F001030293029B0E4D2246162119
:101628002846FFF7F8F8162303930123049305943B
:10163800069403A92846FFF703F8082303930494A4
:10164800059403A92846FEF7FBFF09B030BD00BF8B
:10165800003802400000024008B50C480C4B0360FB
:101668004FF4827343604FF4004383600023C360E8
:10167800036143614FF400728261C3610362436294
:1016880083620A23C362FFF733FC08BD28010020E8
:101698000030014008B50848084B03604FF4E133B7
:1016A800436000238360C36003610C22426183614D
:1016B800C361FFF7F6FE08BDC80000200010014016
:1016C80008B5012909D00A4B03EBC001002289881B
:1016D80053F83000FFF79FF808BD054B03EBC00136
:1016E8000122898853F83000FFF795F8F4E700BF26
:1016F8000801002008B5064B03EBC002918853F897
:101708003000FFF781F8012800D0002008BD00BF95
:101718000801002008B5FEF723FF08BD30B583B0E7
:1017280002AD05F8010D0A4C0022A1882068FFF7D8
:1017380072F84FF47A73012229460648FFF718FC1D
:101748000122A1882068FFF766F803B030BD00BF0A
:10175800080100202801002010B40F4B0F4A92E81E
:10176800030083E8030003F1080402F1080103C938
:1017780084E8030003F1100402F1100103C984E8AE
:1017880003001833183292E8030083E803000020AE
:101798005DF8044B704700BF0801002008000020D6
:1017A80008B508461146FFF78BFF08BD08B508467F
:1017B800FFF7A0FF08BD08B50846FFF7ABFF08BD57
:1017C80010B50C4600224168FFF7EAFF2046FFF7F4
:1017D800A5FF10BD10B50C4601224168FFF7E0FFD8
:1017E8002046FFF79BFF10BD10B5044603E06421B7
:1017F8002046FFF7E0FFE1682046FFF7D7FF002803
:10180800F5D010BD10B5044600220168FFF7C8FFE7
:10181800C8212046FFF7CFFF012221682046FFF7A5
:10182800BFFFC8212046FFF7C6FF10BD38B50446E4
:101838002021FFF7C5FF002505E0244B595D204610
:10184800FFF7C8FF01350E2DF7D921212046FFF7F4
:10185800B7FF002506E01D4B2B44197C2046FFF7F7
:10186800B9FF01350E2DF6D922212046FFF7A8FF32
:10187800002507E0154B2B4493F820102046FFF76E
:10188800A9FF01350E2DF5D923212046FFF798FF32
:10189800002507E00D4B2B4493F830102046FFF746
:1018A80099FF01350E2DF5D924212046FFF788FF31
:1018B800002507E0054B2B4493F840102046FFF71E
:1018C80089FF01350E2DF5D938BD00BF6C2D0008F4
:1018D80038B505462521FFF773FF002407E0154BAF
:1018E800234493F850102846FFF774FF01340E2C58
:1018F800F5D926212846FFF763FF002407E00D4BA2
:10190800234493F860102846FFF764FF01340E2C37
:10191800F5D927212846FFF753FF002407E0054B98
:10192800234493F870102846FFF754FF01340E2C17
:10193800F5D938BD6C2D000838B50446012303607D
:1019480002234360002383600323C360C823036129
:101958004361FFF701FF00286AD105462046FFF7DB
:1019680051FF01212046FFF72BFF07212046FFF7F3
:1019780031FF00212046FFF72DFF08212046FFF701
:1019880029FF00212046FFF725FF06212046FFF703
:1019980017FF17212046FFF71DFF17212046FFF7E5
:1019A80019FF17212046FFF715FF04212046FFF7EE
:1019B80007FF2046FFF718FF00212046FFF700FF2A
:1019C8000F212046FFF706FF0D212046FFF702FFF3
:1019D80050212046FFF7F4FEF7212046FFF7FAFED4
:1019E80030212046FFF7ECFE39212046FFF7F2FEB2
:1019F80061212046FFF7E4FE98212046FFF7EAFE22
:101A080000212046FFF7E6FE98212046FFF7E2FE78
:101A180082212046FFF7D4FE0E212046FFF7DAFE8A
:101A28002046FFF703FF2046FFF752FF284638BD40
:101A38004FF0FF35FAE7F8B504461646E9B10F4608
:101A48001021FFF7BDFE02212046FFF7B4FE002556
:101A580007E0B5EBE30F0CDA795D2046FFF7BAFE35
:101A680001352269636903FB02F3002BF1DA0733BE
:101A7800EFE702212046FFF79EFEEEB11321204634
:101A8800FFF79EFE02212046FFF795FE002507E09E
:101A9800B5EBE30F0CDA715D2046FFF79BFE0135CD
:101AA8002269636903FB02F3002BF1DA0733EFE7DE
:101AB80002212046FFF77FFE12212046FFF780FE15
:101AC8002046FFF791FEF8BD10B40024C460016001
:101AD80012F0070F09D002F10804514202F0070280
:101AE80001F0070158BF4A42A21A426083605DF8BC
:101AF800044B7047002935DB30B444688C4217DD4D
:101B0800002A15DB8568954212DD9BB9006802FB47
:101B18000414002C24DBE4104B4201F0070103F00D
:101B2800070358BF594280230B41015D19430155F2
:101B380030BC7047006802FB0414002C0EDBE41074
:101B48004B4201F0070103F0070358BF59428023B5
:101B58000B41015D21EA03010155E9E70734EEE78E
:101B68000734D8E77047F8B505460F4600260AE05F
:101B78003B46224631462846FFF7BCFF0134AB6896
:101B8800A342F5DC01366B68B34201DD0024F6E7B9
:101B9800F8BD38B51446C2686AB9002911DB426835
:101BA8008A420EDD002C0CDB8268A24209DD224647
:101BB800FFF7A0FF05E0012A04D0022A11D0032A6A
:101BC8001ED038BD0029FCDB82688A42F9DD002C72
:101BD800F7DB4568A542F4DD0A46291BFFF78AFFB3
:101BE800EFE70029EDDB45688D42EADD002CE8DBF4
:101BF8008268A242E5DD121B691AFFF77BFFE0E766
:101C08000029DEDB82688A42DBDD002CD9DB4568EF
:101C1800A542D6DD521A2146FFF76CFFD1E72DE920
:101C2800F84F83468A4691460A9F203BFE8806FB6A
:101C380003F6BA8812F0070318BF012303EBD20397
:101C48003A6803FB06264FF0000822E00B9B08EBDE
:101C5800090204EB0A015846FFF79BFF0FE0013425
:101C6800BB88A3420FDD3278634204F0070503F016
:101C7800070358BF5D4280232B411A42E6D1072D46
:101C8800EDD10136EBE713F0070F00D0013608F16C
:101C98000108FB88434501DD0024E1E7BDE8F88F32
:101CA8002DE9F04383B081460D4690461C460A9EB6
:101CB8000B9F09E001970096424629464846FFF7E0
:101CC800AEFFB3881D4401342378002BF2D103B052
:101CD800BDE8F0832DE9F04F85B001900D4616461A
:101CE8009846DDF838905F1A002FB8BF7F428B42C4
:101CF80028DD01230293A9EB060ABAF1000FB8BF49
:101D0800CAF1000ACAF1000BB1451FDD0123039394
:101D1800A7EB0A0445451DD04E451BD00F9B324604
:101D280029460198FFF735FFBBEB440F03DCA4EB12
:101D38000A04029B1D44B7EB440FEBDB3C44039BB6
:101D48001E44E7E74FF0FF330293D4E74FF0FF3329
:101D58000393DDE705B0BDE8F08F2DE9F04180463B
:101D68000D4617461E460C4606E0069B3A46214697
:101D78004046FFF70EFF0134AB19A342F5DCBDE87E
:101D8800F0812DE9F04180460F4615461E4614465F
:101D980006E0069B224639464046FFF7FAFE013424
:101DA800AB19A342F5DCBDE8F0812DE9F04782B01C
:101DB80081460A9C0B9F98468B42A8BF88468B4257
:101DC800B8BF0B461D4626469442A8BF1646944205
:101DD800B8BF1446A3EB080A0AF1010A0097534654
:101DE80032464146FFF7B9FF00975346224641461F
:101DF8004846FFF7B2FFA41B01340097234632463A
:101E080041464846FFF7BDFF00972346324629461C
:101E18004846FFF7B6FF02B0BDE8F0872DE9F0436A
:101E280083B081460A9FDDF82C801C468B42A8BFF0
:101E38000C468B42B8BF0B461E463D469742A8BF8C
:101E480015469742B8BF174609E07B1BCDF80080BE
:101E580001332A4621464846FFF793FF0134B4422E
:101E6800F3DD03B0BDE8F0832DE9F04F83B00190B6
:101E78008B4692465D42C3F101035C00002608E0F0
:101E88002346A54233DA01356C0001341C44002D89
:101E98002FDCABEB050706EB0A080C9B42463946DC
:101EA8000198FFF776FE05EB0B090C9B4246494665
:101EB8000198FFF76EFEAAEB06080C9B42464946BE
:101EC800DDF804904846FFF764FE0C9B424639460D
:101ED8004846FFF75EFEA642D2DB013673000133A7
:101EE8002344EE42CDD1A542CBDB0024C9E71C46F2
:101EF800CDE703B0BDE8F08F2DE9F04F87B0039030
:101F08008A469046109F5C42C3F101035D004FF082
:101F1800000B08E02B46AC4248DA01346500013575
:101F28001D44002C44DCAAEB04090BEB08023B46D9
:101F3800049249460398FFF72CFE04EB0A063B4639
:101F4800049A31460398FFF724FEA8EB0B023B46A0
:101F5800059231460398FFF71CFE3B46059A494611
:101F68000398FFF716FEC4EBC4734FEA430909F15F
:101F7800010900974B46049A31460398FFF7EDFE96
:101F880000974B46059A31460398FFF7E6FEAB45A6
:101F9800C0DB0BF1010B4FEA4B0301332B441BEB66
:101FA800040FB8D1AC42B6DB0025B4E71D46B8E74C
:101FB80007B0BDE8F08F000030B595B030220021A1
:101FC80008A800F053FA0024039404940594069496
:101FD800079401941B4B1A6C42F080521A641B6CD4
:101FE80003F080530193019B0294174B1A6842F443
:101FF80080421A601B6803F480430293029B01230A
:1020080008934FF48033099302250E954FF480030B
:102018000F9304231093A82211921295139308A8E2
:10202800FEF700FC0F230393049505944FF4A05387
:1020380006934FF480530793052103A8FEF72AFE61
:1020480015B030BD0038024000700040F0B591B0C6
:1020580041F2883000F002FA064641F2883000F07A
:10206800FDF90746FEF750FAFFF7A6FFFFF7B8FAA3
:10207800FFF7F2FAFFF70EFB0AA8FFF75DFC00284E
:102088006DD10F9B0E9A314606A8FFF71DFD0F9BD9
:102098000E9A394602A8FFF717FD002106A8FFF798
:1020A80062FD002102A8FFF75EFD012401946E2560
:1020B800009532233C220A2106A8FFF776FE0194F8
:1020C800009532233C220A2106A8FFF703FE01945B
:1020D80000950A233C22322106A8FFF7FBFD009455
:1020E8001E235022782106A8FFF7BEFE0194B423D0
:1020F8000093322382220A2102A8FFF78FFE01945F
:102108001A230093C8230622002102A8FFF786FE9F
:1021180000941E239622782102A8FFF7EDFE019471
:10212800124C0094124B1E22114606A8FFF7B8FD68
:102138000023019300940F4B0A221C2102A8FFF7E9
:10214800AFFD3A4631460AA8FFF775FC0A4901F186
:10215800800201F6C8310AA8FFF76DFCFEE70748C0
:1021680000F090FA4FF0FF3011B0F0BD28000020C9
:1021780088500008985000086C2D0008745000081A
:1021880000B583B002A941F8040D4FF6FF73012290
:102198000348FFF7B5F9019803B05DF804FB00BFE9
:1021A800C800002082B0002100910B4B5A6C42F409
:1021B80080425A645A6C02F480420092009A01915B
:1021C8001A6C42F080521A641B6C03F0805301931E
:1021D800019B02B0704700BF0038024000B589B0CB
:1021E8000023039304930593069307930268154B02
:1021F8009A4202D009B05DF804FB0021019103F571
:1022080084335A6C42F480525A645A6C02F48052F5
:102218000192019A02911A6B42F001021A631B6B38
:1022280003F001030293029BA02303930223049368
:10223800032306930523079303A90348FEF700FA2F
:10224800D8E700BF003001400000024000B589B067
:10225800002303930493059306930793026803F1FD
:10226800804303F588339A4202D009B05DF804FB35
:102278000021019103F594335A6C42F010025A641C
:102288005A6C02F010020192019A02911A6B42F004
:1022980001021A631B6B03F001030293029B4FF4C4
:1022A800C063039302230493012305930323069336
:1022B8000723079303A90248FEF7C2F9D5E700BF31
:1022C800000002407047FEE7FEE7FEE7FEE77047C2
:1022D8007047704708B5FEF731F908BD70B50D466F
:1022E8001646002404E0AFF300802870013401355D
:1022F800B442F8DB304670BD70B51646002405E0E0
:102308004D1C0878FFF73CFF01342946B442F7DB3F
:10231800304670BD08B503460B4A126842B10A4AF6
:10232800106803446A46934206D8074A136008BDFA
:10233800054A06491160F2E700F066F80C230360CD
:102348004FF0FF30F3E700BFB40000208801002001
:102358004FF0FF3070474FF400534B600020704738
:1023680001207047002070470F49D1F8883043F4A6
:102378007003C1F888300D4B1A6842F001021A60E8
:10238800002098601A6822F0847222F480321A6061
:10239800074A5A601A6822F480221A60D8604FF0FF
:1023A80000638B60704700BF00ED00E0003802401A
:1023B80010300024DFF834D0002103E00C4B5B58C8
:1023C800435004310B480C4B42189A42F6D30B4A3F
:1023D80002E0002342F8043B094B9A42F9D3FFF785
:1023E800C3FF00F017F8FFF731FE70470000022026
:1023F8001C510008000000209800002098000020D0
:1024080084010020FEE70000014B1868704700BFF8
:102418003400002070B50D4E0D4CA41BA4100025EF
:10242800A54209D10B4E0C4C00F090FCA41BA41043
:102438000025A54205D170BD56F8253098470135CD
:10244800EEE756F8253098470135F2E714510008B1
:10245800145100081451000818510008024B014695
:10246800186800F059B800BF340000200244034641
:10247800934200D1704703F8011BF9E738B50546C8
:10248800002945D051F8043C0C1F002BB8BFE418B4
:1024980000F0AEFB1F4A1368104633B9636014603E
:1024A8002846BDE8384000F0A4BBA3420CD92168F7
:1024B8006218934204BF1A685B68636004BF5218CD
:1024C80022600460ECE713465A680AB1A242FAD9BE
:1024D80019685818A0420BD1206801445818824244
:1024E8001960DDD1106852685A6001441960D7E755
:1024F80002D90C232B60D3E7206821188A4204BF35
:1025080011685268626004BF091821605C60C7E7FF
:1025180038BD00BFBC00002070B5CD1C25F00305F8
:1025280008350C2D38BF0C25002D064601DBA942C5
:1025380003D90C233360002070BD00F059FB214AF9
:102548001468214691B9204C23681BB9304600F025
:10255800A1F820602946304600F09CF8431C24D19D
:102568000C233360304600F044FBE4E70B685B1B48
:1025780018D40B2B0FD90B60CD50CC18304600F077
:1025880038FB04F10B00231D20F00700C31AD3D039
:102598005A42E250D0E78C424B6816BF6360136022
:1025A8000C46EBE70C464968CCE7C41C24F003044E
:1025B800A04205D0211A304600F06CF80130CFD087
:1025C8002560DBE7BC000020C000002070B50E4687
:1025D800054618B183690BB900F01CFAAB69AC6801
:1025E80013B9284600F016FA234B9C4217D16C68A1
:1025F800A3891B071DD52369DBB1013EA36816F823
:10260800011F013BA360E9B9002B2EDA22460A21FB
:10261800284600F04FF8013011D00A2011E0174B7E
:102628009C4201D1AC68E3E7154B9C4208BFEC68BB
:10263800DEE72146284600F08FF80028DDD04FF06D
:10264800FF3070BD002B04DAA2699A4206DC0A2921
:1026580004D023685A1C22601970CFE72246284606
:1026680000F028F80130C9D1E9E723680A205A1C8C
:1026780022601870E5E700BFCC500008EC50000855
:10268800AC500008024B01461868FFF79FBF00BF17
:102698003400002038B5064C002305460846236060
:1026A800FFF738FE431C02D1236803B12B6038BD05
:1026B80080010020F8B50E461446054618B1836916
:1026C8000BB900F0A7F9214B9C422AD16C68A36989
:1026D800A360A3891A072ED5236963B323692068E9
:1026E800C01A6369F6B28342374604DC214628469D
:1026F80000F026F928BBA368013BA36023685A1C95
:1027080022601E7063690130834204D0A389DB070D
:1027180019D50A2E17D12146284600F011F990B193
:102728000FE00B4B9C4201D1AC68D0E7094B9C42AF
:1027380008BFEC68CBE72146284600F00DF80028D2
:10274800CCD04FF0FF373846F8BD00BFCC5000085A
:10275800EC500008AC500008324B70B51D680646B6
:102768000C4625B1AB6913B9284600F053F92E4B36
:102778009C420FD16C68B4F90C309AB215072CD46E
:10278800D00611D40922326043F04003A3814FF0F0
:10279800FF303EE0254B9C4201D1AC68EBE7244B6F
:1027A8009C4208BFEC68E6E7510712D5616B41B15E
:1027B80004F14403994202D03046FFF75FFE00233C
:1027C8006363A38923F02403A3810023636023693F
:1027D8002360A38943F00803A38123694BB9A38924
:1027E80003F42073B3F5007F03D02146304600F090
:1027F800BFF9A28912F001030CD00023A36063691A
:102808005B42A361236953B9B4F90C3013F080001B
:10281800BAD170BD920758BF6369A360F2E7002080
:10282800F7E700BF34000020CC500008EC50000847
:10283800AC5000088A892DE9F041054610070C467E
:1028480058D44B68002B05DC0B6C002B02DC0020F5
:10285800BDE8F081E66A002EF9D0002312F4805218
:102868002F68216A2B6032D0606DA3895A0705D57D
:102878006368C01A636B0BB1236CC01A002302464D
:10288800E66A216A2846B047431CA38906D129680D
:102898001D2948D8294ACA40D60744D50022626073
:1028A800D9042269226004D5421C01D12B6803B9DE
:1028B8006065616B2F600029C9D004F14403994217
:1028C80002D02846FFF7DAFD00206063C0E7012345
:1028D8002846B047411CC8D12B68002BC5D01D2BFA
:1028E80001D0162B01D12F60B1E7A38943F0400333
:1028F800A381ADE70F69002FA9D093070E6808BF21
:102908004B690F6018BF0023A6EB07088B60B8F16E
:10291800000F9CDD43463A46216AA66A2846B0471E
:10292800002806DCA38943F04003A3814FF0FF3061
:102938008EE70744A8EB0008E9E700BF0100402044
:1029480038B50B6905460C46DBB118B183690BB97C
:1029580000F060F80C4B9C4209D16C68B4F90C305B
:102968007BB121462846BDE83840FFF763BF074BD7
:102978009C4201D1AC68F1E7054B9C4208BFEC686A
:10298800ECE7002038BD00BFCC500008EC50000830
:10299800AC500008002310B50446C0E9003383603A
:1029A80081814366C281C0E90433836119460822E4
:1029B8005C30FFF75BFD054B6362054BA362054B7B
:1029C800E362054B2462236310BD00BFFD2B0008A2
:1029D8001F2C0008572C00087B2C0008014900F028
:1029E80085B800BF4929000870B54A1E68255543B7
:1029F8000E4605F17401FFF78FFD044640B1002132
:102A0800C0E900160C30A06005F16802FFF72EFD42
:102A1800204670BD836910B5044633BBC0E9123344
:102A28000365124B124A1B688262984204BF012355
:102A3800836100F01FF86060204600F01BF8A0607A
:102A4800204600F017F80022E06004216068FFF7D4
:102A5800A1FF01220921A068FFF79CFF0222122191
:102A6800E068FFF797FF0123A36110BDA850000895
:102A7800E5290008F8B51B4B1E68B369074613B96A
:102A88003046FFF7C7FF4836D6E90134013B03D586
:102A9800336833B13668F7E7B4F90C506DB1683470
:102AA800F4E704213846FFF79FFF30600028F1D192
:102AB8000C233B6004462046F8BD0B4B6566C4E911
:102AC8000055A560C4E90335C4E90555082229461F
:102AD80004F15C00FFF7CAFCC4E90D55C4E91255BE
:102AE800E9E700BFA85000080100FFFF2DE9F843FF
:102AF8008046894600F14804002614B93046BDE8EE
:102B0800F883D4E90175013F01D52468F5E7AB895D
:102B1800012B07D9B5F90E30013303D029464046B9
:102B2800C84706436835EEE770B50E46B1F90E1092
:102B3800002996B014461D4607DA00232B60B38996
:102B48001A0610D44FF480630EE06A4600F0B8F815
:102B58000028F2DB019A02F47042A2F500535A42AF
:102B68005A412A60EEE740230020236016B070BD6A
:102B78008B8973B59D0706460C4607D504F14703B4
:102B8800236023610123636102B070BD01AB6A4613
:102B9800FFF7CAFF009905463046FFF7BDFC48B964
:102BA800B4F90C309A05EFD423F0030343F0020381
:102BB800A381E3E70D4BB362A389206043F0800350
:102BC800A381009B6361019B20615BB1B4F90E1086
:102BD800304600F087F828B1A38923F0030343F0B7
:102BE8000103A381A3891D43A581CDE7E529000839
:102BF8007047704710B50C46B1F90E1000F094F804
:102C08000028ABBF636DA3891B1823F48053ACBFA6
:102C18006365A38110BD2DE9F0411F468B89DB0553
:102C280005460C46164605D502230022B1F90E10BA
:102C380000F068F8A389B4F90E1023F48053A38137
:102C480032463B462846BDE8F04100F017B810B5BB
:102C58000C46B1F90E1000F055F8431CA38915BFB6
:102C6800606523F4805343F48053A38118BFA38184
:102C780010BDB1F90E1000F013B8000038B5074CBC
:102C8800054608461146002222601A46FFF734FB23
:102C9800431C02D1236803B12B6038BD800100209A
:102CA80038B5064C0023054608462360FFF750FB5D
:102CB800431C02D1236803B12B6038BD800100207A
:102CC80038B5074C00230546084611462360FFF730
:102CD80042FB431C02D1236803B12B6038BD00BFFF
:102CE8008001002038B5064C0023054608462360BD
:102CF800FFF736FB431C02D1236803B12B6038BDB4
:102D08008001002038B5074C0546084611460022C8
:102D180022601A46FFF726FB431C02D1236803B141
:102D28002B6038BD8001002038B5074C05460846A1
:102D38001146002222601A46FFF7D0FA431C02D13E
:102D4800236803B12B6038BD80010020F8B500BFAF
:102D5800F8BC08BC9E467047F8B500BFF8BC08BC74
:042D68009E467047CC
:102D6C000E14010A06040A0A0F03030C060A0000DB
:102D7C000E14010A46048A4A0F83430C860A040087
:102D8C000E14018A06048A4A0F83430C064A040077
:102D9C008E94018A06048A4A0F83430C060A0400A7
:102DAC008E94018A06048A4A0F83430C060A040097
:102DBC00031D01010823373701000000000000004B
:102DCC00835D01814823777701000000000000003B
:102DDC00031D01010823373701000000000000002B
:102DEC00FFFFFFFFFFFFFFFFFFFFFFFFC000000023
:102DFC00000000FFFFFFFFFFFFFFFFFFFFFFFFC013
:102E0C00000000000000FFFFFFFFFFFFFFFFFFFFC0
:102E1C00FFFFC0000000000000FFFFFFFFFFFFFFEF
:102E2C00FFFFFFFFFFC0000000000000FFFFFFFFDF
:102E3C00FFFFFFFFFFFFFFFFE0000000000000FFAF
:102E4C00FFFFFFFFFFFFFFFFFFFFFFE000000000A1
:102E5C000000FFFFFFFFFFFFFFFFFFFFFFFFE00092
:102E6C000000000000FFFFFFFFFFFFFFFFFFFFFF61
:102E7C00FFE0000000000000FFFFFFFFFFFFFFFF6F
:102E8C00FFFFFFFFE0000000000000FFFFFFFFFF5F
:102E9C00FFFFFFFFFFFFFFE0000000000000FFFF4F
:102EAC00FFFFFFFFFFFFFFFFFFFFE0000000000040
:102EBC0000FFFFFFFFFFFFFFFFFFFFFFFFE0000032
:102ECC0000000000FFFFFFFFFFFFFFFFFFFFFFFF02
:102EDC00E0000000000000FFFFFFFFFFFFFFFFFF0F
:102EEC00FFFFFFE0000000000000FFFFFFFFFFFFFF
:102EFC00FFFFFFFFFFFFF0000000000000FFFFFFDF
:102F0C00FFFFFFFFFFFFFFFFFFF0000000000000CE
:102F1C00FFFFFFFFFFFFFFFFFFFFFFFFF0000000C1
:102F2C00000000FFFFFFFFFFFFFFFFFFFFFFFFF0B1
:102F3C00000000000000FFFFFFFFFFFFFFFFFFFF8F
:102F4C00FFFFF0000000000000FFFFFFFFFFFFFF8E
:102F5C00FFFFFFFFFFF0000000000000FFFFFFFF7E
:102F6C00FFFFFFFFFFFFFFFFF0000000000000FF6E
:102F7C00FFFFFFFFFFFFFFFFFFFFFFF00000000A56
:102F8C000000FFFFFFFFFFFFFFFFFFFFFFFFF00051
:102F9C0000007FC000FFFFFFFFFFFFFFFFFFFFFFF1
:102FAC00FFF0000001FFE000FFFFFFFFFFFFFFFF4E
:102FBC00FFFFFFFFF8000003FFF000FFFFFFFFFF24
:102FCC00FFFFFFFFFFFFFFF8000003FFFB00FFFF09
:102FDC00FFFFFFFFFFFFFFFFFFFFF8000007FFFFF2
:102FEC0000FFFFFFFFFFFFFFFFFFFFFFFFF80000E9
:102FFC000FFFFE00FFFFFFFFFFFFFFFFFFFFFFFFC5
:10300C00F800000FFFFE00FFFFFFFFFFFFFFFFFFB9
:10301C00FFFFFFF800000FFFFE00FFFFFFFFFFFFA9
:10302C00FFFFFFFFFFFFF800001FFFFE00FFFFFF89
:10303C00FFFFFFFFFFFFFFFFFFF800001FFFFE0079
:10304C00FFFFFFFFFFFFFFFFFFFFFFFFF80000DFA9
:10305C00FFFE00FFFFFFFFFFFFFFFFFFFFFFFFF87B
:10306C000001DFFFFE00FFFFFFFFFFFFFFFFFFFF81
:10307C00FFFFFC0007DFFFFE00FFFFFFFFFFFFFF6E
:10308C00FFFFFFFFFFFC000FCFFFFE00FFFFFFFF66
:10309C00FFFFFFFFFFFFFFFFFC000FEFFFFE00FF36
:1030AC00FFFFFFFFFFFFFFFFFFFFFFFC001FEFFF16
:1030BC00FC00FFFFFFFFFFFFFFFFFFFFFFFFFC0018
:1030CC003FEFFFFC00FFFFFFFFFFFFFFFFFFFFFFD6
:1030DC00FFFC003FF7FFFC00FFFFFFFFFFFFFFFFC0
:1030EC00FFFFFFFFFC003FFFFFF800FFFFFFFFFFAC
:1030FC00FFFFFFFFFFFFFFFC007FFFFFF000FFFF64
:10310C00FFFFFFFFFFFFFFF9FFFFFC007FFFFFE06A
:10311C0000FFFFFFFFFFFFFFFFFFF83FFFFC007FFB
:10312C00FFFFC000FFFFFFFFFFFFFFFFFFF80FFFD8
:10313C00FE007FFFFE0000FFFFFFFFFFFFFFFFFF12
:10314C00FC01FFFE007FFFFD0000FFFFFFFFFFFF04
:10315C00FFFFFFFF807FFE007FFFFF8000FFFFFF70
:10316C00FFFFFFFFFFFFFFF01FFE007FFFFF0000D0
:10317C00FFFFFFFFFFFFFFFFFFFFFE0FFE007FFFC4
:10318C00FF0000FFFFFFFFFFFFFFFFFFFFF007FE49
:10319C00007FFFFF0000FFFFFFFFFFFFFFFFFFFFB0
:1031AC008003FE003FFFFF0000FFFFFFFFFFFFFF5C
:1031BC00FFFFFC01E1FE003FFFFF0000FFFFFFFFF0
:1031CC00FFFFFFFFFFF807F1FE003FFFFF8000FF4E
:1031DC00FFFFFFFFFFFFFFFFF83FF1FE001FFFFFA8
:1031EC008000FFFFFFFFFFFFFFFFFFF8FFF1FE0076
:1031FC000FFFFDC000FFFFFFFFFFFFFFFFFFFFFF03
:10320C00F1FF000FFFF80000FFFFFFFFFFFFFFFFC4
:10321C00FFFFFFFFFF0007FFF00000FFFFFFFFFFB6
:10322C00FFFFFFFFFFFFFFFF0001FFE00000FFFFBC
:10323C00FFFFFFFFFFFFFFFE003FFF0000FF8000CE
:10324C0000FFFFFFFFFFFFFFFFFFFC003FFF000041
:10325C0000000000FFFFFFFFFFFFFFFFFFF8003F34
:10326C00FF000000000000FFFFFFFFFFFFFFFFFF5C
:10327C00F8003FFF000000000000FFFFFFFFFFFF12
:10328C00FFFFFFF8CC7FFF000000000000FFFFFFF6
:10329C00FFFFFFFFFFFFF8CE3FFF00000000000024
:1032AC00FFFFFFFFFFFFFFFFFFF8CE3FFF00000017
:1032BC00000000FFFFFFFFFFFFFFFFFFF8C63FFF0F
:1032CC00800000000000FFFFFFFFFFFFFFFFFFF883
:1032DC00C03FFF800000000000FFFFFFFFFFFFFF6B
:1032EC00FFFFF8E03FFF800000000000FFFFFFFF42
:1032FC00FFFFFFFFFFFC607FFF800000000000FF6E
:10330C00FFFFFFFFFFFFFFFFFFF0FFFF800000F05C
:10331C000000FFFFFFFFFFFFFFFFFFFFFFFFFF802E
:10332C0000036C0000FFFFFFFFFFFFFFFFFFFFFF2D
:10333C00FFFF80000DFA0000FFFFFFFFFFFFFFFF04
:10334C00FF00003FFF800017FD0000FFFFFFFFFFA5
:10335C00FFFFFFFF00003FFF80002FFE8000FFFFFC
:10336C00FFFFFFFFFFFFFF00003FFF80005FFF40FC
:10337C0000FFFFFFFFFFFFFFFFFF00003FFFC0004C
:10338C007FFFC000FFFFFFFFFFFFFFFFFFF8FC7F89
:10339C00FFC000BFFFA000FFFFFFFFFFFFFFFFFF0D
:1033AC00F8FE7FFFC000FFFFE000FFFFFFFFFFFF05
:1033BC00FFFFFFF8FE3FFFC0017FFFD000FFFFFFC4
:1033CC00FFFFFFFFFFFFF8FE3FFFC001FFFFF00014
:1033DC00FFFFFFFFFFFFFFFFFFF87C3FFFC002FF77
:1033EC00FFE800FFFFFFFFFFFFFFFFFFFC003FFFB9
:1033FC00C003FFFFF800FFFFFFFFFFFFFFFFFFFC15
:10340C00007FFFC005FFFFF400FFFFFFFFFFFFFF82
:10341C00FFFFFE007FFFC007FFFFFC00FFFFFFFF69
:10342C00FFFFFFFFFFFF81FFFFC007FFFFFC00FF57
:10343C00FFFFFFFFFFFFFFFFFFFFFFFFE00BFFFFA3
:10344C00FC00FFFFFFFFFFFFFFFFFFFFFFFFFFE0A1
:10345C000FFFFFFA00FFFFFFFFFFFFFFFFFFFE0064
:10346C003FFFE00FFFFFFE00FFFFFFFFFFFFFFFF2F
:10347C00FFFC003FFFE00FFFFFFE00FFFFFFFFFF21
:10348C00FFFFFFFFF8003FFFE00FFFFFFE00FFFF15
:10349C00FFFFFFFFFFFFFFF8003FFFE017FFFFFDFF
:1034AC0000FFFFFFFFFFFFFFFFFFF8FFFFFFE01F25
:1034BC00FFFFFF00FFFFFFFFFFFFFFFFFFF8FFFF16
:1034CC00FFE01FFFFFFF00FFFFFFFFFFFFFFFFFFFE
:1034DC00F8FFFFFFE01FFFFFFF00FFFFFFFFFFFFF5
:1034EC00FFFFFFFC3FFFFFE01FFFFFFF00FFFFFFA1
:1034FC00FFFFFFFFFFFFF8003FFFF01FFFFFFF0084
:10350C00FFFFFFFFFFFFFFFFFFF8003FFFF02FFF64
:10351C00FFFF00FFFFFFFFFFFFFFFFFFF8003FFF74
:10352C00F03FFFFFFE80FFFFFFFFFFFFFFFFFFF8F5
:10353C00003FFFF03FFFFFFF80FFFFFFFFFFFFFF9C
:10354C00FFFFFFFFFFFFF03FFFFFFF80FFFFFFFFCD
:10355C00FFFFFFFFFFFFFFFFFFF03FFFFFFF80FFBD
:10356C00FFFFFFFFFFFFFFFFFFFFFFFFF03FFFFF2E
:10357C00FF80FFFFFFFFFFFFFFFFFFF8003FFFF0A3
:10358C003FFFFFFF80FFFFFFFFFFFFFFFFFFF80084
:10359C003FFFF03FFFFFFF80FFFFFFFFFFFFFFFF3D
:1035AC00FFF8003FFFF03FFFFFFF80FFFFFFFFFF33
:1035BC00FFFFFFFFF8003FFFF03FFFFFFF80FFFF23
:1035CC00FFFFFFFFFFFFFFFFF87FFFF83FFFFFFF4D
:1035DC0080FFFFFFFFFFFFFFFFFFFFFE7FFFF83FB6
:1035EC00FFFFFF80FFFFFFFFFFFFFFFFFFFFFE3F1F
:1035FC00FFF83FFFFFFF80FFFFFFFFFFFFFFFFFF15
:10360C00FFFE3FFFF83FFFFFFF80FFFFFFFFFFFFC5
:10361C00FFFFFFF8003FFFF83FFFFFFF80FFFFFFBA
:10362C00FFFFFFFFFFFFF8003FFFF83FFFFFFF80AA
:10363C00FFFFFFFFFFFFFFFFFFF8007FFFF83FFFDB
:10364C00FFFE80FFFFFFFFFFFFFFFFFFF800FFFF04
:10365C00F82FFFFFFF00FFFFFFFFFFFFFFFFFFFF44
:10366C00FFFFFFF81FFFFFFF00FFFFFFFFFFFFFF44
:10367C00FFFFFFFFFFFFF81FFFFFFF00FFFFFFFF34
:10368C00FFFFFFFFFFFFFFFFFFFC1FFFFFFF00FF20
:10369C00FFFFFFFFFFFFFFFFFFFFFFFFFC1FFFFF11
:1036AC00FF00FFFFFFFFFFFFFFFFFFFFE1FFFFFC3E
:1036BC001FFFFFFF00FFFFFFFFFFFFFFFFFFC780A4
:1036CC00FFFFFC17FFFFFD00FFFFFFFFFFFFFFFFEA
:1036DC00FF8F807FFFFC0FFFFFFE00FFFFFFFFFF50
:1036EC00FFFFFFFF8F007FFFFC0FFFFFFE00FFFFC0
:1036FC00FFFFFFFFFFFFFF8F0C3FFFFC0FFFFFFEE5
:10370C0000FFFFFFFFFFFFFFFFFF8F1E3FFFFC0FC0
:10371C00FFFFFA00FFFFFFFFFFFFFFFFFF8E1E3FC3
:10372C00FFFC0BFFFFFC00FFFFFFFFFFFFFFFFFF96
:10373C00861E3FFFFC07FFFFFC00FFFFFFFFFFFFA4
:10374C00FFFFFF803E3FFFFE07FFFFF400FFFFFF80
:10375C00FFFFFFFFFFFFC03E3FFFFE05FFFFF8002E
:10376C00FFFFFFFFFFFFFFFFFFC07C3FFFFE03FFDC
:10377C00FFF800FFFFFFFFFFFFFFFFFFF0FC7FFFE5
:10378C00FE02FFFFE800FFFFFFFFFFFFFFFFFFFF51
:10379C00FFFFFFFE01FFFFF000FFFFFFFFFFFFFF3A
:1037AC00FFFFFFFFFFFFFE017FFFD000FFFFFFFFCA
:1037BC00FFFFFFFFFFFFFFFFFFFE00FFFFE000FF2B
:1037CC00FFFFFFFFFFFFFFFFFFFFFFFFFE00BFFF3D
:1037DC00A000FFFFFFFFFFFFFFFFFFFFFFFFFFFE4C
:1037EC00007FFFC000FFFFFFFFFFFFFFFFFFFFFF9A
:1037FC00FFFFFE005FFF4000FFFFFFFFFFFFFFFF2B
:10380C00FFFFFFFFFFFF002FFE8000FFFFFFFFFF0A
:10381C00FFFFFFFFFFFFFFFFFF0017FD0000FFFF93
:10382C00FFFFFFFFFFFFFFFFFFFFFFFF000BFA0093
:10383C0000FFFFFFFFFFFFFFFFFFFFFFFFFFFF008A
:10384C00076C0000FFFFFFFFFFFFFFFFFFFFFFFF05
:10385C00FFFF0000F00000FFFFFFFFFFFFFFFFFF77
:10386C00FFFFFFFFFF0000000000FFFFFFFFFFFF57
:10387C00FFFFFFFFFFFFFFFF0000000000FFFFFF47
:10388C00FFFFFFFFFFFFFFFFFFFFFF000000000037
:10389C00FFFFFFFFFFFFFFFFFFFFFFFFFFFF00002A
:1038AC00000000FFFFFFFFFFFFFFFFFFFFFFFFFF19
:1038BC00FF8000000000FFFFFFFFFFFFFFFFFFFF87
:1038CC00FFFFFFFF8000000000FFFFFFFFFFFFFF77
:1038DC00FFFFFFFFFFFFFF8000000000FFFFFFFF67
:1038EC00FFFFFFFFFFFFFFFFFFFF8000000000FF57
:1038FC00FFFFFFFFFFFFFFFFFFFFFFFFFF80000049
:10390C000000FFFFFFFFFFFFFFFFFFFFFFFFFFFFB9
:10391C008000000000FFFFFFFFFFFFFFFFFFFFFF26
:10392C00FFFFFF8000000000FFFFFFFFFFFFFFFF16
:10393C00FFFFFFFFBFFFFFFFFFFFFFFFFFFFFFFFCB
:10394C00FFFFFFFFFFFFFFBFFFFFFFFFFFFFFFFFBB
:10395C00FFFFFFFFFFFFFFFFFFFFBFFFFFFFFFFFAB
:10396C00FFFFFFFFFFFFFFFFFFFFFFFFFFBFFFFF9B
:10397C00FFFFFFFFFFFFFFFFFFFFFFFFFFFFFFFF4B
:10398C00DFFFFFFFFFFFFFFFFFFFFFFFFFFFFFFF5B
:10399C00FFFFFFDFFFFFFFFFFFFFFFFFFFFFFFFF4B
:1039AC00FFFFFFFFFFFFDFFFFFFFFFFFFFFFFFFF3B
:1039BC00FFFFFFFFFFFFFFFFFFDFFFFFFFFFFFFF2B
:1039CC00FFFFFFFFFFFFFFFFFFFFFFFFDFFFFFFF1B
:1039DC00FFFFFFFFFFFFFFFFFFFFFFFFFFFFFFDF0B
:1039EC00FFFFFFFFFFFFFFFFFFFFFFFFFFFFFFFFDB
:1039FC00FFFFDFFFFFFFFFFFFFFFFFFFFFFFFFFFEB
:103A0C00FFFFFFFFFFDFFFFFFFFFFFFFFFFFFFFFDA
:103A1C00FFFFFFFFFFFFFFFFDFFFFFFFFFFFFFFFCA
:103A2C0000000FFFFFFFFFFFFFFFFFDFFFFFFFFFA8
:103A3C00FFFFFE00000FFFFFFFFFFFFFFFFFEFFF89
:103A4C00FFFFFFFFFFFE000007FFFFFFFFFFFFFF71
:103A5C00FFEFFFFFFFFFFFFFFE000007FFFFFFFF71
:103A6C00FFFFFFFFEFFFFFFFFFFFFFFC000007FF63
:103A7C00FFFFFFFFFFFFFFEFFFFFFFFFFFFFFC005C
:103A8C000007FFFDFFCFFFFFFFFFEFFFFFFFFFFF73
:103A9C00FFFC000003FFF87F87FFFFFFFFEFFFFF36
:103AAC00FFFFFFFFFC000003FFF8FFC7FFFFFFFF56
:103ABC00EFFFFFFFFFFFFFFC007803FFF8FFE7FFBE
:103ACC00FFFFFFEFFFFFFFF5FFFFFC00FB83FFF99C
:103ADC00FFE3FFFFFFFFEFFFFFFF803FFFFC01F95C
:103AEC00C3FFF8FFE3FFFFFFFFEFFFFFFE001FFF29
:103AFC00F801D9C3FFF8FFC7FFFFFFFFF7FFFFFC7B
:103B0C00000FFFF801D9C3FFF87F87FFFFFFFFF716
:103B1C00FFFFFC0004FFF801D9C3FFFC3F07FFFFC8
:103B2C00FFFFF7FFFFF80000FFF801DBC1FFFC000F
:103B3C000FFFFFFFFFF7FFFFF00001FFF800FF8111
:103B4C00FFFE001FFFFFFFFFF7FFFFF06001FFF814
:103B5C00007F81FFFF807FFFFFFFFFF7FFFFF0601B
:103B6C0001FFF8003E01FFFFFFFFFFFFFFFFF7FF24
:103B7C00FFE00001FFF8000001FFFEFFFFFFFFFF69
:103B8C00FFF7FFFFE00001FFF801C001FFF83FFF66
:103B9C00FFFFFFFFF7FFFF200001FFF801C001FF4F
:103BAC00F19FFFFFFFFFFFF7FFFE200001FFF80171
:103BBC00C001FFF39FFFFFFFFFFFFBFFF820000199
:103BCC00FFF800E001FFF39FFFFFFFFFFFFBFFF09B
:103BDC00306001FFF801FFC1FFF19FFFFFFFFFFF06
:103BEC00FBFFF0107001FFF801FFC1FFF83FFFFF72
:103BFC00FFFFFFFBFFE0106003FFF801FFC1FFFEBA
:103C0C00FFFFFFFFFFFFFBFFC0100003FFF80000EA
:103C1C0001FFFFFFFFFFFFFFFFFBFFC1C80003FF1A
:103C2C00F8000001FFFFC0FFFFFFFFFFFBFFC1C457
:103C3C000007FFF8000001FFFE001FFFFFFFFFFB66
:103C4C00FF81C4000FFFF8007FC1FFFC000FFFFFD6
:103C5C00FFFFFBFF8082001FFFF800FFC1FFF8335E
:103C6C0007FFFFFFFFFBFF8001803FFFF801FFC153
:103C7C00FFF8F1C7FFFFFFFFFDFF800061FFFFF8BA
:103C8C0001D981FFF9F9E3FFFFFFFFFDFF80000E73
:103C9C00FFFFF801D9C1FFF9F9E3FFFFFFFFFDFFBB
:103CAC008000007FFFF801D9C1FFF8F1E3FFFFFFAF
:103CBC00FFFDFF800000FFFFF801D9C1FFF801C72D
:103CCC00FFFFFFFFFDFF808000FFFFF801DFC1FF5A
:103CDC00FC03C7FFFFFFFFFDFF81C000FFFFF800E3
:103CEC00CFC1FFFE07EFFFFFFFFFFDFFC1C000FFCD
:103CFC00FFF8000781FFFFFFFFFFFFFFFFFDFFC184
:103D0C00C000FFFFF8000001FFFFFFFFFFFFFFFFF8
:103D1C00FDFFC000007FFFF8000001FFFFFFE7FF81
:103D2C00FFFFFFFDFFE000007FFFF8007FC1FFFEFB
:103D3C000FC7FFFFFFFFFDFFF000023FFFF800FF82
:103D4C00C1FFFC03C7FFFFFFFFFEFFF00007FFFFF3
:103D5C00F801FFC1FFF800C7FFFFFFFFFEFFF800EF
:103D6C000FFFFFF801E001FFF8F067FFFFFFFFFE18
:103D7C00FFFE001FFFFFF801C001FFF9F827FFFF4E
:103D8C00FFFFFEFFFF007FFFFFF801C001FFF9FE00
:103D9C0007FFFFFFFFFEFFFFFFFFFFFFF800C00163
:103DAC00FFF9FF07FFFFFFFFFEFFFFFFFFFFFFF81D
:103DBC00006001FFF8FF87FFFFFFFFFEFFFFFFFF23
:103DCC00FFFFF87FFFC1FFFC7FC7FFFFFFFFFEFF78
:103DDC00FFFFFFFFFFF87FFFC1FFFCFFE7FFFFFFC7
:103DEC00FFFEFFFFFFFFFFFFF87FFFC1FFFFFFFF9D
:103DFC00FFFFFFFFFEFFFFFFFFFFFFF8000001FFCB
:103E0C00FFFFFFFFFFFFFFFF7FFFFFFFFFFFF8003C
:103E1C000001FFFFF7FFFFFFFFFFFF7FFFFFFFFF2B
:103E2C00FFF8000001FFFFE3FFFFFFFFFFFF7FFF35
:103E3C00FFFFFFFFF8000001FFFFE1FFFFFFFFFFA7
:103E4C00FF7FFFFFFFFFFFF8000F01FFFFF0FFFFF9
:103E5C00FFFFFFFF7FFFFF0FFFFFF83C3F81FFFFDE
:103E6C00F8FFFFFFFFFFFF7FFFFCF3FFFFF8383F7A
:103E7C0081FFFFFCFFFFFFFFFFFF7FFFF3FDFFFF55
:103E8C00F83873C1FFFFF8FFFFFFFFFFFF7FFFEF65
:103E9C00FEFFFFF83871C1FFFFF8FFFFFFFFFFFFC8
:103EAC007FFFDFFF7FFFF838E1C1FFFFF0FFFFFF6F
:103EBC00FFFFFF7FFFBFFFBFFFF83CE1C1FFFFE14A
:103ECC00FFFFFFFFFFFFBFFFBFFFBFFFF81FC1C119
:103EDC00FFFFE3FFFFFFFFFFFFBFFF7FFFDFFFF8E9
:103EEC001FC3C1FFFFC7FFFFFFFFFFFFBFFF7FFF28
:103EFC00DFFFF80F8781FFFFC7FFFFFFFFFFFFBF4B
:103F0C00FEFFFFEFFFF8000001FFFFCFFFFFFFFFF9
:103F1C00FFFFBFFEFFFFEFFFF8000001FFFF8FFF69
:103F2C00FFFFFFFFFFBFFDFF81F7FFF8007801FFE8
:103F3C00FFC7FFFFFFFFFFFFBFFDFF01F7FFF8000B
:103F4C00FB81FFFFC7FFFFFFFFFFFFBFFBFF3FFB37
:103F5C00FFF801F9C1FFFFC3FFFFFFFFFFFFBFFB2E
:103F6C00FFBFFBFFF801D9C1FFFFE1FFFFFFFFFF20
:103F7C00FFBFFBF801FBFFF801D9C1FFFFF3FFFF07
:103F8C00FFFFFFFFDFF7F801FBFFF801D9C1FFFFCF
:103F9C00FFFFFFFFFFFFFFDFF7FFFFFDFFF801DB78
:103FAC00C1FFFFFFFFFFFFFFFFFFDFF7FF31FDFF4B
:103FBC00F800FF81FFFFFE3FFFFFFFFFFFDFF7FF72
:103FCC0039FDFFF8007F81FFFE1C0FFFFFFFFFFF95
:103FDC00DFF7FF39FDFFF8003E01FFFC0807FFFF8C
:103FEC00FFFFFFDFEFFF19FEFFF8000001FFF800F5
:103FFC0087FFFFFFFFFFDFEFFF83FEFFF8010001EC
:10400C00FFF8E1C7FFFFFFFFFFDFEFFFC7FEFFF881
:10401C0001E001FFF9E3E3FFFFFFFFFFDFEFFFFF2D
:10402C00FEFFF801F801FFF9F3E3FFFFFFFFFFDFED
:10403C00EFFFFFFEFFF801FF01FFF9F3E7FFFFFFC2
:10404C00FFFFEFEFFF81FEFFF8001FC1FFF8FFC776
:10405C00FFFFFFFFFFEFDFFF01FEFFF80003C1FFD3
:10406C00FCFF87FFFFFFFFFFEFDFFF3FFF7FF80045
:10407C0003C1FFFDFFCFFFFFFFFFFFEFDFFFBFFF20
:10408C007FF8003FC1FFFFFFFFFFFFFFFFFFEFDFE8
:10409C00FF01FF7FF801FF81FFFFFFFFFFFFFFFF25
:1040AC00FFEFDFFF01FF7FF801FC01FFFFFFC7FF00
:1040BC00FFFFFFFFEFDFFFFFFF7FF801E001FFFED7
:1040CC0007C7FFFFFFFFFFEFDFFFFFFF7FF80100D8
:1040DC0001FFFC03C7FFFFFFFFFFEFDFF901FF7FCD
:1040EC00F8000001FFF800C7FFFFFFFFFFEFDFF94B
:1040FC0001FF7FF8007FC1FFF8F067FFFFFFFFFFB4
:10410C00EFDFFFFFFF7FF800FFC1FFF9FC27FFFF88
:10411C00FFFFFFF7DFFFEFFF7FF801FFC1FFF9FEA5
:10412C0007FFFFFFFFFFF7DFF801FF7FF801D981E1
:10413C00FFF9FF07FFFFFFFFFFF7DFF801FF7FF835
:10414C0001D9C1FFF8FF87FFFFFFFFFFF7DFFCEF8F
:10415C00FF7FF801D9C1FFFC7FC7FFFFFFFFFFF70F
:10416C00DFFE6FFF7FF801D9C1FFFCFFE7FFFFFF08
:10417C00FFFFF7DFFF2FFF7FF801DFC1FFFFFFFF1E
:10418C00FFFFFFFFFFF7DFFFCFFF7FF800CFC1FF7F
:10419C00FFFFFFFFFFFFFFFFF7DFFFEFFEFFF80062
:1041AC000781FFFFFFFFFFFFFFFFFFF7EFFFFFFEA2
:1041BC00FFF8000001FFFFFFFFFFFFFFFFFFF7EF1E
:1041CC00F9C3FEFFF8380001FFFFFFFFFFFFFFFF01
:1041DC00FFFBEFF983FEFFF83F0001FFFFEFFFFF4E
:1041EC00FFFFFFFFFBEFF999FEFFF83FF001FFFF28
:1041FC00CFFFFFFFFFFFFFFBEFF999FEFFF807FF73
:10420C0001FFFFCFFFFFFFFFFFFFFBEFF819FEFFE2
:10421C00F800FFC1FFBFEFF3FFFFFFFFFFFBF7F855
:10422C001BFDFFF8000FC1FF8FFFE3FFFFFFFFFF38
:10423C00FBF7FFFFFDFFF8000FC1FFCF03E7FFFF08
:10424C00FFFFFFFBF7FFFFFDFFF800FFC1FFFC00C6
:10425C00FFFFFFFFFFFFFBF7FFF9FDFFF80FFF016B
:10426C00FFF8003FFFFFFFFFFFFBF7FFF9FBFFF835
:10427C003FF001FFF0003FFFFFFFFFFFFBFBFFFFE5
:10428C00FBFFF83F0001FFF0001FFFFFFFFFFFFDEA
:10429C00FBFFFFFBFFF83F0001FFE0000FFFFFFFFC
:1042AC00FFFFFDFBFFFFF7FFF83FF003FFE0000F00
:1042BC00FFFFFFFFFFFDFDFFFFF7FFF807FE03FF0A
:1042CC00E0000FFFFFFFFFFFFDFDF801F7FFF80017
:1042DC007FC3FC40000C7FFFFFFFFFFDFEF801EFEA
:1042EC00FFF8000FC3FC40000C7FFFFFFFFFFDFE3B
:1042FC00FDFFEFFFFC000FC3FFE0000FFFFFFFFF10
:10430C00FFFDFF7CFFDFFFFC00FFC3FFE0000FFFA2
:10431C00FFFFFFFFFDFF7FFFDFFFFC1FFFC3FFE081
:10432C00001FFFFFFFFFFFFDFFBFFFBFFFFC3FFCB8
:10433C0003FFF0001FFFFFFFFFFFFDFFBFFFBFFFED
:10434C00FC3FE003FFF8003FFFFFFFFFFFFEFFDF36
:10435C00FF7FFFFC3E0007FFFC007FFFFFFFFFFF1E
:10436C00FEFFEFFEFFFFFE300007FFDE00F7FFFF52
:10437C00FFFFFFFEFFF7FDFFFFFE000007FF8FC7EB
:10438C00E3FFFFFFFFFFFEFFF8F3FFFFFE00000F50
:10439C00FF9FFFF3FFFFFFFFFFFEFFFF0FFFFFFF7E
:1043AC0000000FFFBFCFFFFFFFFFFFFFFEFFFFFF70
:1043BC00FFFFFFFFFFFFFFFFCFFFFFFFFFFFFFFE32
:1043CC00FFFFFFFFFFFFFFFFFFFFFFCFFFFFFFFF21
:1043DC00FFFFFEFFFFFFFFFFFFFFFFFFFFFFFFFFE2
:1043EC00FFFFFFFFFFFEFFFFFFFFFFFFFFFFFFFFD2
:1043FC00FFFFFFFFFFFFFFFFFF7FFFFFFFFFFFFF41
:10440C00FFFFFFFFFFFFFFFFFFFFFFFF7FFFFFFF30
:10441C00FFFFFFFFFFFFFFFFFFFFFFFFFFFFFF7F20
:10442C00FFFFFFFFFFFFFFFFFFFFFFFFFFFFFFFF90
:10443C00FFFF7FFFFFFFFFFFFFFFFFFFFFFFFFFF00
:10444C00FFFFFFFFFF7FFFFFFFFFFFFFFFFFFFFFF0
:10445C00FFFFFFFFFFFFFFFF7FFFFFFFFFFFFFFFE0
:10446C00FFFFFFFFFFFFFFFFFFFFFF7FFFFFFFFFD0
:10447C000000000000000000000000000000000030
:10448C000000000000000000000000000000000020
:10449C0000000C000C000C000C000C000C000C00BC
:1044AC000C0000000C0000000000000000000000E8
:1044BC00000000001DC01DC008800880088000009E
:1044CC0000000000000000000000000000000000E0
:1044DC0000000D800D800D800D803FC01B003FC083
:1044EC001B001B001B001B00000000000000000054
:1044FC0004001F803180318038001E000F000380C3
:10450C00318031803F0004000400000000000000F6
:10451C00000018002400240018C007801E00318001
:10452C00024002400180000000000000000000007A
:10453C00000000000F001800180018000C001D806F
:10454C00370033001D800000000000000000000058
:10455C00000000000700070002000200020000003B
:10456C00000000000000000000000000000000003F
:10457C0000000300030006000E000C000C000C00F1
:10458C000C000E00060003000300000000000000F9
:10459C000000180018000C000600060006000600BB
:1045AC00060006000C001C001800000000000000B3
:1045BC000000060006003FC03FC00F001F8019809E
:1045CC0000000000000000000000000000000000DF
:1045DC000000000000000400040004003F80040000
:1045EC0004000400000000000000000000000000B7
:1045FC0000000000000000000000000000000000AF
:10460C000000060004000C00080008000000000078
:10461C000000000000000000000000003F800000CF
:10462C00000000000000000000000000000000007E
:10463C00000000000000000000000000000000006E
:10464C0000000C000C000000000000000000000046
:10465C0000C000C0018001800300030006000C00B4
:10466C000C001800180030003000000000000000A2
:10467C0000000E001B003180318031803180318090
:10468C0031801B000E000000000000000000000044
:10469C00000006003E0006000600060006000600AC
:1046AC00060006003FC000000000000000000000F3
:1046BC0000000F00198031803180030006000C00CF
:1046CC00180030003F8000000000000000000000D7
:1046DC0000003F006180018003001F000380018007
:1046EC00018061803F00000000000000000000001D
:1046FC000000070007000F000B001B001300330025
:10470C003F8003000F80000000000000000000004C
:10471C0000001F801800180018001F001180018075
:10472C00018021801F00000000000000000000003C
:10473C00000007801C0018003000370039803180E1
:10474C00318019800F000000000000000000000004
:10475C0000007F0043000300060006000600060070
:10476C000C000C000C000000000000000000000019
:10477C0000001F003180318031801F00318031807A
:10478C00318031801F00000000000000000000009C
:10479C0000001E0033003180318033801D80018089
:1047AC00030007003C0000000000000000000000B7
:1047BC0000000000000000000C000C0000000000D5
:1047CC0000000C000C0000000000000000000000C5
:1047DC0000000000000000000300030000000000C7
:1047EC0000000600040008000800000000000000A3
:1047FC000000000000C00300040018006000180056
:10480C000400030000C000000000000000000000D5
:10481C00000000000000000000007FC000007FC00E
:10482C00000000000000000000000000000000007C
:10483C0000000000600018000400030000C003002A
:10484C0004001800600000000000000000000000E0
:10485C00000000001F0031803180018007000C0037
:10486C000C0000000C000000000000000000000024
:10487C0000000E0011002100210027002900290052
:10488C002700200011000E000000000000000000B6
:10489C00000000003F000F000900198019801F80E4
:1048AC0030C030C079E000000000000000000000C3
:1048BC00000000007F003180318031803F0031806A
:1048CC00318031807F0000000000000000000000FB
:1048DC00000000001F4030C06040600060006000BD
:1048EC00604030801F00000000000000000000004D
:1048FC00000000007F00318030C030C030C030C0BC
:10490C0030C031807F00000000000000000000007B
:10491C00000000007F803080308032003E0032008A
:10492C00308030807F80000000000000000000001C
:10493C00000000007FC03040304032003E003200AA
:10494C00300030007C00000000000000000000007F
:10495C00000000001E80318060806000600067C035
:10496C00618031801F00000000000000000000008A
:10497C00000000007BC03180318031803F8031806D
:10498C00318031807BC0000000000000000000007E
:10499C00000000003FC006000600060006000600EE
:1049AC00060006003FC000000000000000000000F0
:1049BC00000000001FC0030003000300030063009D
:1049CC00630063003E0000000000000000000000D7
:1049DC00000000007BC03180330036003C003E00FC
:1049EC003300318079C0000000000000000000009E
:1049FC00000000007E001800180018001800184075
:104A0C00184018407FC000000000000000000000AB
:104A1C0000000000E0E060C071C07BC06AC06EC0E6
:104A2C0064C060C0FBE0000000000000000000005B
:104A3C000000000073C0318039803D8035803780A4
:104A4C0033803180798000000000000000000000FD
:104A5C00000000001F00318060C060C060C060C0FA
:104A6C0060C031801F00000000000000000000004A
:104A7C00000000007F0031803180318031803F00A8
:104A8C00300030007E00000000000000000000003C
:104A9C00000000001F00318060C060C060C060C0BA
:104AAC0060C031801F000CC01F800000000000009F
:104ABC00000000007F003180318031803E003300E7
:104ACC00318031807CE0000000000000000000001C
:104ADC00000000001F803180318038001F000380EF
:104AEC00318031803F000000000000000000000019
:104AFC00000000007F804C804C804C800C000C002F
:104B0C000C000C003F000000000000000000000042
:104B1C00000000007BC031803180318031803180D9
:104B2C00318031801F0000000000000000000000F8
:104B3C00000000007BC0318031801B001B001B007B
:104B4C000A000E000E000000000000000000000033
:104B5C0000000000FBE060C064C06EC06EC02A8024
:104B6C003B803B8031800000000000000000000012
:104B7C00000000007BC031801B000E000E000E00F8
:104B8C001B0031807BC00000000000000000000012
:104B9C000000000079E030C019800F00060006000C
:104BAC00060006001F80000000000000000000004E
:104BBC00000000003F8021802300060004000C0050
:104BCC00188030803F8000000000000000000000D2
:104BDC00000007800600060006000600060006001E
:104BEC00060006000600060007800000000000001A
:104BFC0030003000180018000C000C0006000300F8
:104C0C0003000180018000C000C000000000000013
:104C1C0000001E0006000600060006000600060046
:104C2C0006000600060006001E0000000000000042
:104C3C0004000A000A0011002080208000000000FF
:104C4C000000000000000000000000000000000058
:104C5C000000000000000000000000000000000048
:104C6C000000000000000000000000000000FFE059
:104C7C00080004000200000000000000000000001A
:104C8C000000000000000000000000000000000018
:104C9C0000000000000000001F00018001801F8048
:104CAC00318033801DC000000000000000000000B7
:104CBC0000007000300030003700398030C030C048
:104CCC0030C03980770000000000000000000000B8
:104CDC0000000000000000001E8031806080600039
:104CEC00608031801F000000000000000000000008
:104CFC0000000380018001801D8033806180618011
:104D0C00618033801DC00000000000000000000026
:104D1C0000000000000000001F00318060C07FC058
:104D2C00600030C01F800000000000000000000088
:104D3C00000007E00C000C003F800C000C000C0085
:104D4C000C000C003F800000000000000000000080
:104D5C0000000000000000001DC0338061806180F5
:104D6C00618033801D80018001801F0000000000E5
:104D7C000000700030003000370039803180318005
:104D8C00318031807BC0000000000000000000007A
:104D9C0000000600060000001E00060006000600CB
:104DAC00060006003FC000000000000000000000EC
:104DBC0000000600060000003F0003000300030093
:104DCC00030003000300030003003E00000000008A
:104DDC000000700030003000378036003C003C0092
:104DEC003600330077C00000000000000000000017
:104DFC0000001E0006000600060006000600060065
:104E0C00060006003FC0000000000000000000008B
:104E1C0000000000000000007F8036C036C036C0A5
:104E2C0036C036C076E00000000000000000000034
:104E3C0000000000000000007700398031803180D4
:104E4C00318031807BC000000000000000000000B9
:104E5C0000000000000000001F00318060C060C036
:104E6C0060C031801F000000000000000000000046
:104E7C0000000000000000007700398030C030C016
:104E8C0030C039803700300030007C00000000005A
:104E9C0000000000000000001DC0338061806180B4
:104EAC00618033801D800180018007C000000000FC
:104EBC0000000000000000007B801CC018001800DF
:104ECC00180018007F000000000000000000000027
:104EDC0000000000000000001F8031803C001F001B
:104EEC00038031803F000000000000000000000043
:104EFC0000001800180018007F0018001800180097
:104F0C00180018800F0000000000000000000000D6
:104F1C00000000000000000073803180318031807F
:104F2C00318033801DC00000000000000000000034
:104F3C0000000000000000007BC0318031801B00AD
:104F4C001B000E000E00000000000000000000001E
:104F5C000000000000000000F1E060C064C06EC002
:104F6C003B803B803180000000000000000000000E
:104F7C0000000000000000007BC01B000E000E00B3
:104F8C000E001B007BC000000000000000000000B1
:104F9C00000000000000000079E030C0198019808A
:104FAC000B000F00060006000C003E000000000085
:104FBC0000000000000000003F80218003000E0074
:104FCC00180030803F80000000000000000000004E
:104FDC00000006000C000C000C000C000C0018006B
:104FEC000C000C000C000C0006000000000000007F
:104FFC00000006000600060006000600060006007B
:10500C000600060006000600060000000000000076
:10501C0000000C0006000600060006000600030057
:10502C0006000600060006000C0000000000000050
:10503C0000000000000000000000180024800300A5
:10504C000000000000000000000000000000000054
:10505C00000000000000000001020304060708091C
:10506C000000000001020304652D50617065722080
:10507C00696E6974206661696C656400652D5061A8
:10508C007065722044656D6F0000000048656C6CA3
:10509C006F20776F726C64210000000038000020D4
:1050AC0000000000000000000000000000000000F4
:1050BC0000000000000000000000000000000000E4
:1050CC0000000000000000000000000000000000D4
:1050DC0000000000000000000000000000000000C4
:1050EC0000000000000000000000000000000000B4
:1050FC0000000000000000000000000000000000A4
:08510C00ECB0FF7F0100000080
:04511400AD010008E1
:045118008901000801
:10511C000100000010000000000002401000000020
:10512C0000000240020000000000024004000000E9
:10513C0000000240080000007C4400080B00100036
:10514C000024F4003800002000000000CC500008BF
:10515C00EC500008AC5000080000000000000000FB
:10516C000000000000000000000000000000000033
:10517C000000000000000000000000000000000023
:10518C000000000000000000000000000000000013
:10519C000000000000000000000000000000000003
:0851AC000000000000000000FB
:04000005080023BD0F
:00000001FF
