:020000040800F2
:1000000000000220E523000871160008731600089E
:100010007516000877160008791600080000000021
:100020000000000000000000000000007B16000837
:100030007D160008000000007F16000881160008E9
:10004000352400083524000835240008352400082C
:10005000352400083524000835240008352400081C
:10006000352400083524000835240008352400080C
:1000700035240008352400083524000835240008FC
:1000800035240008352400083524000835240008EC
:1000900035240008352400083524000835240008DC
:1000A00035240008352400083524000835240008CC
:1000B00035240008352400083524000835240008BC
:1000C00035240008352400083524000835240008AC
:1000D000352400083524000835240008352400089C
:1000E000352400083524000835240008352400088C
:1000F000352400083524000835240008352400087C
:10010000352400083524000835240008352400086B
:10011000352400083524000835240008352400085B
:10012000352400083524000835240008352400084B
:10013000352400083524000835240008352400083B
:10014000352400083524000835240008352400082B
:10015000352400083524000835240008352400081B
:10016000352400083524000835240008352400080B
:10017000352400083524000835240008000000005C
:080180003524000835240008B5
:1001880010B5054C237833B9044B13B10448AFF3C9
:1001980000800123237010BDA8000020000000008B
:1001A8007C2D000808B5034B1BB103490348AFF386
:1001B800008008BD00000000AC0000207C2D000875
:1001C80053B94AB9002908BF00281CBF4FF0FF31B6
:1001D8004FF0FF3000F072B9ADF1080C6DE904CEB4
:1001E80000F006F8DDF804E0DDE9022304B070470A
:1001F8002DE9F047089E04468846002B4BD18A42D9
:10020800154667D9B2FA82F24AB1C2F1200701FA5B
:1002180002F320FA07F7954047EA030894404FEAAB
:10022800154E230CB8FBFEF71FFA85FC0EFB17884A
:1002380043EA084307FB0CF1994209D9EB1807F187
:10024800FF3080F01B81994240F21881023F2B4415
:100258005B1AA4B2B3FBFEF00EFB103344EA03446E
:1002680000FB0CFCA44509D92C1900F1FF3380F0E0
:100278000781A44540F2048102382C4440EA074033
:10028800A4EB0C0400271EB1D4400023C6E90043A8
:100298003946BDE8F0878B4209D9002E00F0EB8083
:1002A8000027C6E9000138463946BDE8F087B3FAA9
:1002B80083F7002F47D18B4202D3824200F2FA80A3
:1002C800841A61EB030301209846002EE0D0C6E9AA
:1002D8000048DDE702B9FFDEB2FA82F2002A40F0F8
:1002E8008F80491B4FEA154E1FFA85F80127B1FB8D
:1002F800FEFC230C0EFB1C1143EA014308FB0CF126
:10030800994207D9EB180CF1FF3002D2994200F25A
:10031800CD808446591AA3B2B1FBFEF00EFB10142F
:1003280043EA044408FB00F8A04507D92C1900F15A
:10033800FF3302D2A04500F2B6801846A4EB0804A9
:1003480040EA0C409FE7C7F1200CBB4022FA0CFEA4
:100358004EEA030E01FA07F420FA0CF521FA0CF321
:100368004FEA1E482543B3FBF8F92C0C08FB193358
:100378001FFA8EFA44EA034309FB0AF49C4202FA84
:1003880007F200FA07F10BD91EEB030309F1FF305E
:1003980080F087809C4240F28480A9F1020973446E
:1003A8001B1BADB2B3FBF8F008FB103345EA03445E
:1003B80000FB0AFAA24508D91EEB040400F1FF333A
:1003C8006BD2A24569D90238744440EA0940A0FBBF
:1003D8000289A4EB0A044C45C2464B4654D351D07B
:1003E800002E69D0B1EB0A0564EB030404FA0CFC97
:1003F800FD40FC404CEA0505C6E90054002747E7E4
:10040800C2F1200320FA03F7954001FA02F021FA1D
:1004180003F34FEA154E3843010CB3FBFEF71FFAFE
:1004280085F80EFB173341EA034107FB08F38B42BB
:1004380004FA02F407D9691807F1FF3C2FD28B425E
:100448002DD9023F2944CB1A81B2B3FBFEF00EFB33
:10045800103341EA034100FB08F38B4207D96918BE
:1004680000F1FF3C17D28B4215D902382944C91A2A
:1004780040EA07473BE73746304609E70746E7E6DD
:100488001846FBE64145ABD2B8EB020A69EB0E020F
:1004980001381346A4E76046E9E7184695E767463A
:1004A800D1E781467CE702382C4447E7ACF1020CDF
:1004B8002B442FE7384608E73746E9E6704700BF80
:1004C80010B504460E4B18784FF47A73B3FBF0F36B
:1004D8000C4A1068B0FBF3F000F09CF868B90F2CD8
:1004E80001D901200AE0002221464FF0FF3000F038
:1004F8005DF8034B5C60002000E0012010BD00BFE8
:10050800000000204000002008B50B4B1A6842F498
:1005180000721A601A6842F480621A601A6842F41B
:1005280080721A60032000F02FF80020FFF7C8FF40
:1005380001F02CFE002008BD003C0240034A11686F
:10054800034B1B780B441360704700BFD400002096
:1005580000000020014B1868704700BFD40000203D
:1005680038B50446FFF7F6FF0546B4F1FF3F02D061
:10057800044B1B781C44FFF7EDFF401BA042FAD345
:1005880038BD00BF00000020074AD36823F4E063A9
:100598001B041B0C000200F4E060184340F0BF602D
:1005A80040F40030D060704700ED00E030B4174BE5
:1005B800DB68C3F30223C3F10704042C28BF042417
:1005C8001D1D062D18D9033B4FF0FF3505FA04F41D
:1005D80021EA0401994005FA03F322EA03031943C7
:1005E80000280BDB0901C9B200F1604000F5614049
:1005F80080F8001330BC70470023E5E700F00F00D7
:100608000901C9B2024B1954F4E700BF00ED00E03C
:1006180014ED00E00138B0F1807F0AD2064B586033
:10062800064AF02182F823100020986007221A60F9
:1006380070470120704700BF10E000E000ED00E0C7
:1006480000230F2B00F2D780F0B482B039E00722E4
:1006580000E00022B2403A430234674E46F82420B4
:10066800664A1468EA4302EA04064F6817F4803FB2
:1006780001D045EA0406614C2660646802EA040673
:100688004F6817F4003F01D045EA04065B4C6660EA
:10069800A46802EA04064F6817F4801F01D045EAEF
:1006A8000406564CA660E46822404E6816F4001F03
:1006B80001D045EA0402514CE26001330F2B00F2ED
:1006C800978001229A400C6804EA0205AA42F4D1F4
:1006D8004C68022C01D0122C10D1DE08083650F8D4
:1006E80026C003F00704A7000F24BC402CEA040C22
:1006F8000C69BC4044EA0C0440F8264004685F00DA
:100708000326BE40F64306EA040C4C6804F00304D2
:10071800BC4044EA0C0404604C6804F1FF3CBCF1A2
:10072800010F03D9112C01D0122C10D1846806EACC
:10073800040CCC68BC4044EA0C048460446824EA95
:1007480002024C68C4F300149C4014434460C2681D
:1007580016408A68BA403243C2604A6812F0805F25
:10076800ABD000220192264A546C44F4804454646D
:10077800526C02F480420192019A9C08A61C1E4AFF
:1007880052F8267003F0030296000F22B24027EABF
:1007980002071C4A90423FF45CAF02F58062904227
:1007A8001AD002F58062904218D002F58062904219
:1007B80016D002F58062904214D002F58062904211
:1007C80012D002F58062904210D002F58062904209
:1007D8003FF43DAF08223DE701223BE7022239E71B
:1007E800032237E7042235E7052233E7062231E7FB
:1007F80002B0F0BC7047704700380140003C01402F
:1008080000380240000002400369194201D100206B
:1008180070470120704712B90904816170478161EE
:1008280070470000002800F0BB8170B582B0044614
:10083800036813F0010F3BD0A74B9B6803F00C0330
:10084800042B2CD0A44B9B6803F00C03082B21D05D
:100858006368B3F5803F4FD0B3F5A02F52D09E4BBD
:100868001A6822F480321A601A6822F480221A6008
:100878006368002B50D0FFF76DFE0546964B1B684A
:1008880013F4003F14D1FFF765FE401B6428F5D927
:1008980003208AE1904B5B6813F4800FD8D08E4B0D
:1008A8001B6813F4003F03D06368002B00F07A81C3
:1008B800236813F0020F55D0874B9B6813F00C0F79
:1008C8003ED0854B9B6803F00C03082B33D0E368BC
:1008D800002B68D0814B01221A60FFF73BFE0546CA
:1008E8007D4B1B6813F0020F54D1FFF733FE401BFA
:1008F8000228F5D9032058E1774A136843F4803376
:100908001360B5E7744B1A6842F480221A601A68BB
:1009180042F480321A60ABE7FFF71CFE05466E4BC7
:100928001B6813F4003FC3D0FFF714FE401B642874
:10093800F5D9032039E1684B5B6813F4800FC6D101
:10094800654B1B6813F0020F04D0E368012B01D03C
:1009580001202AE1604A136823F0F803216943EA79
:10096800C1031360236813F0080F40D0636963B3B1
:100978005B4B01221A60FFF7EDFD0546564B5B6F96
:1009880013F0020F33D1FFF7E5FD401B0228F5D91C
:1009980003200AE1504A136823F0F803216943EA67
:1009A800C1031360DEE74D4B00221A60FFF7D2FD4A
:1009B8000546494B1B6813F0020FD3D0FFF7CAFD59
:1009C800401B0228F5D90320EFE0454B00221A60AE
:1009D800FFF7C0FD0546404B5B6F13F0020F06D0D2
:1009E800FFF7B8FD401B0228F5D90320DDE0236896
:1009F80013F0040F79D0384B1B6C13F0805F33D1A0
:100A080000230193344B1A6C42F080521A641B6C19
:100A180003F080530193019B0125324B1B6813F4AB
:100A2800807F23D0A368012B34D0052B38D02A4BE4
:100A38001A6F22F001021A671A6F22F004021A676D
:100A4800A368002B36D0FFF785FD0646224B1B6FA7
:100A580013F0020F48D1FFF77DFD801B41F2883368
:100A68009842F3D90320A0E00025D6E71D4A136871
:100A780043F480731360FFF76DFD0646194B1B683E
:100A880013F4807FCED1FFF765FD801B0228F5D9CE
:100A980003208AE0104A136F43F001031367CFE77E
:100AA8000D4B1A6F42F004021A671A6F42F00102E6
:100AB8001A67C5E7FFF74EFD0646074B1B6F13F095
:100AC800020F11D0FFF746FD801B41F28833984290
:100AD800F3D9032069E000BF003802400000474214
:100AE800800E474200700040E5B9A369002B5BD037
:100AF800304A926802F00C02082A58D0022B17D00C
:100B08002D4B00221A60FFF725FD0446294B1B6870
:100B180013F0007F42D0FFF71DFD001B0228F5D916
:100B2800032042E0234A136C23F080531364DCE76C
:100B3800214B00221A60FFF70DFD05461D4B1B686F
:100B480013F0007F06D0FFF705FD401B0228F5D9FA
:100B580003202AE0E369226A1343626A43EA8213A4
:100B6800A26A5208013A43EA0243E26A43EA02638C
:100B7800104A5360104B01221A60FFF7EBFC044641
:100B88000C4B1B6813F0007F06D1FFF7E3FC001B3A
:100B98000228F5D9032008E0002006E0002004E040
:100BA80001207047012000E0002002B070BD012044
:100BB800FBE700BF0038024060004742324B9B68A9
:100BC80003F00C03042B5CD0082B01D02F4870478E
:100BD8002DE9F04B2C4B5A6802F03F025B6813F486
:100BE800800F2BD0284B5B68C3F388131E46002761
:100BF8005C010025E41A65EB0705A90141EA946147
:100C0800A001001B61EB0501CB0043EA5073C4004F
:100C1800A01943EB07014B0243EAD0534402204694
:100C280019460023FFF7CCFA174B5B68C3F301435F
:100C380001335B00B0FBF3F0BDE8F08B124B5B684F
:100C4800C3F388131E4600275C010025E41A65EBF0
:100C58000705A90141EA9461A001001B61EB0501A8
:100C6800CB0043EA5073C400A01943EB07018B0281
:100C780043EA90538402204619460023FFF7A0FA5E
:100C8800D2E70348704700BF003802400024F40050
:100C980000127A00002800F09D8070B504464F4B82
:100CA8001B6803F00F038B4209D2CBB24B4A137077
:100CB800136803F00F038B4201D0012070BD236835
:100CC80013F0020F17D013F0040F04D0444A9368AE
:100CD80043F4E0539360236813F0080F04D0404AAC
:100CE800936843F4604393603D4A936823F0F003AC
:100CF800A068034393600D46236813F0010F32D0B8
:100D08006368012B21D09A1E012A25D9344A12681A
:100D180012F0020F60D032498A6822F003021343AE
:100D28008B60FFF717FC06462D4B9B6803F00C03FE
:100D38006268B3EB820F16D0FFF70CFC801B41F200
:100D480088339842F0D90320B8E7254A126812F48C
:100D5800003FE0D10120B1E7214A126812F0007F7C
:100D6800D9D10120AAE71D4B1B6803F00F03AB4242
:100D780009D9EAB2194B1A701B6803F00F03AB428A
:100D880001D001209AE7236813F0040F06D0144A13
:100D9800936823F4E053E1680B439360236813F0EE
:100DA800080F07D00E4A936823F46043216943EA89
:100DB800C1039360FFF702FF094B9B68C3F303135A
:100DC800084AD35CD840084B18600020FFF778FB2E
:100DD800002073E70120704701206FE7003C0240C4
:100DE80000380240B051000840000020014B18684C
:100DF800704700BF4000002008B5FFF7F7FF044B1D
:100E08009B68C3F38223034AD35CD84008BD00BF64
:100E180000380240C051000808B5FFF7E7FF044B4F
:100E28009B68C3F34233034AD35CD84008BD00BF74
:100E380000380240C0510008F8B505460F4616466E
:100E48001C462B689B6837EA03030CBF0123002369
:100E5800B34237D0B4F1FF3FF3D0FFF77BFB069BDB
:100E6800C01AA04201D2002CEBD12A68536823F0A3
:100E7800E00353606B68B3F5827F0BD0AB6AB3F5C0
:100E8800005F14D0012385F85130002385F85030D5
:100E9800032018E0AB68B3F5004F02D0B3F5806FBC
:100EA800ECD12A68136823F040031360E6E72A6848
:100EB800136823F4005313602A68136843F400533B
:100EC8001360DFE70020F8BD30B585B0164C246804
:100ED800164DA5FB0434640D4FF47A7505FB04F434
:100EE80003944468B4F5827F0BD0039BC3B1039B82
:100EF800013B039303689B6813F0800FF5D100232F
:100F08000FE00B460446009200228021FFF794FF71
:100F1800034630B1636D43F020036365032300E0AB
:100F28000023184605B030BD40000020819F5E16A2
:100F380000283BD010B504460023836290F8513056
:100F4800002B2ED0022384F851302268136823F036
:100F5800400313606368A2681343E268134322697D
:100F6800134362691343A26902F400721343E269EE
:100F78001343226A1343A16A22680B431360638BED
:100F880003F00403616A22680B4353602268D36943
:100F980023F40063D36100206065012384F8513095
:100FA80010BD80F8503001F00DF9CBE701207047F3
:100FB8002DE9F04182B090F85040012C00F0C38038
:100FC8001D46174688460446012380F85030FFF72F
:100FD800C1FA064694F85130DBB2012B09D0022041
:100FE800012384F85130002384F8503002B0BDE862
:100FF800F081B8F1000F00F09880002F00F0978082
:10100800032384F8513000236365C4F83080A78631
:10101800E786A363A387E38763642364A368B3F5C0
:10102800004F1CD023681A6812F0400F03D11A68C9
:1010380042F040021A60E368B3F5006F15D06368A8
:101048000BB1012F49D1226B236812781A73236BD5
:1010580001332363E38E013B9BB2E3863DE02268C4
:10106800136843F480431360DCE763680BB1012F16
:1010780015D1226B23681288DA60236B023323634D
:10108800E38E013B9BB2E38609E0FFF763FA801B1E
:10109800A84202D3B5F1FF3F4BD1002D4BD0E38ED0
:1010A8009BB2002B2CD023689A6812F0020FECD068
:1010B800226B1288DA60236B02332363E38E013BD1
:1010C8009BB2E386EBE7FFF745FA801BA84202D301
:1010D800B5F1FF3F31D1002D31D0E38E9BB27BB10A
:1010E80023689A6812F0020FEDD0226B12781A73F7
:1010F800236B01332363E38E013B9BB2E386ECE76A
:10110800324629462046FFF7DFFE08B120236365F3
:10111800A36833B901932368DA6801929B68019345
:10112800019B636D6BB900205AE7012058E7012045
:1011380056E7032054E7032052E7032050E7032033
:101148004EE701204CE7022050E700002DE9F84364
:1011580004460268136923F44053C1680B431361C2
:1011680083680269134342691343C2691A430168D9
:10117800CB6823F4164323F00C031343CB600268B7
:10118800536923F4407381690B435361C369B3F511
:10119800004F60D00368B84A934200F0148102F50A
:1011A8008062934200F00F81FFF726FE00EB80007B
:1011B80000EB80006568AD00B0FBF5F5AF4FA7FB0D
:1011C80005356D092E01FFF717FE00EB800000EBD7
:1011D80080006568AD00B0FBF5F9FFF70DFE00EB88
:1011E800800000EB80006568AD00B0FBF5F5A7FB5B
:1011F80005356D094FF0640808FB15952D0132354A
:10120800A7FB05356D0905F0F0053544FFF7F4FD3A
:1012180000EB800000EB80006668B600B0FBF6F6D5
:10122800FFF7EAFD00EB800000EB800063689B009D
:10123800B0FBF3F0A7FB0030400908FB10684FEA49
:10124800081808F13208A7FB0837C7F343172368C3
:101258002F449F600DE10368874A93425BD002F5F3
:101268008062934257D0FFF7C7FD00EB800000EB88
:10127800800065686D00B0FBF5F5804FA7FB05356C
:101288006D092E01FFF7B8FD00EB800000EB800030
:1012980065686D00B0FBF5F9FFF7AEFD00EB800067
:1012A80000EB800065686D00B0FBF5F5A7FB053520
:1012B8006D094FF0640808FB1595ED003235A7FB62
:1012C80005356D096D0005F4F8753544FFF794FD93
:1012D80000EB800000EB800066687600B0FBF6F655
:1012E800FFF78AFD00EB800000EB800063685B007D
:1012F800B0FBF3F3A7FB03235B0908FB13684FEA72
:10130800C80808F13208A7FB0837C7F34217236853
:101318002F449F60ADE0FFF77FFD00EB800000EBFE
:10132800800065686D00B0FBF5F5544FA7FB0535E7
:101338006D092E01FFF770FD00EB800000EB8000C7
:1013480065686D00B0FBF5F9FFF766FD00EB8000FE
:1013580000EB800065686D00B0FBF5F5A7FB05356F
:101368006D094FF0640808FB1595ED003235A7FBB1
:1013780005356D096D0005F4F8753544FFF74CFD2A
:1013880000EB800000EB800066687600B0FBF6F6A4
:10139800FFF742FD00EB800000EB800063685B0014
:1013A800B0FBF3F3A7FB03235B0908FB13684FEAC1
:1013B800C80808F13208A7FB0837C7F342172368A3
:1013C8002F449F6055E0FFF727FD00EB800000EBFE
:1013D80080006568AD00B0FBF5F5284FA7FB053523
:1013E8006D092E01FFF718FD00EB800000EB80006F
:1013F8006568AD00B0FBF5F9FFF70EFD00EB800066
:1014080000EB80006568AD00B0FBF5F5A7FB05357E
:101418006D094FF0640808FB15952D013235A7FBBF
:1014280005356D0905F0F0053544FFF7F5FC00EBCF
:10143800800000EB80006668B600B0FBF6F6FFF7A8
:10144800EBFC00EB800000EB800063689B00B0FBC6
:10145800F3F0A7FB0030400908FB10684FEA0818B2
:1014680008F13208A7FB0837C7F3431723682F444E
:101478009F60BDE8F88300BF001001401F85EB5155
:101488002DE9F04105460F4616469846069C2B68FE
:101498001B6837EA03030CBF01230023B3421DD1A5
:1014A800B4F1FF3FF3D02CB1FFF754F8A0EB0800DC
:1014B800A042ECD92A68D36823F4D073D3602A6891
:1014C800536923F001035361202385F8393085F8E7
:1014D8003A30002385F83830032000E00020BDE8CA
:1014E800F08158B310B5044690F839300BB3242373
:1014F80084F839302268D36823F40053D360204637
:10150800FFF724FE2268136923F4904313612268CD
:10151800536923F02A0353612268D36843F40053C4
:10152800D3600020E063202384F8393084F83A300F
:1015380010BD80F8383000F07DFED8E701207047F4
:101548002DE9F04182B01E4690F83930DBB2202BED
:1015580055D104460D469046002955D0002A55D04D
:1015680090F83830012B53D0012380F8383000230D
:10157800C363212380F83930FEF7ECFF0746A4F84F
:101588002480A4F8268010E000963B4600228021A3
:101598002046FFF775FF00283CD12B882268C3F34B
:1015A800080353602369C3B90235E38C9BB2B3B116
:1015B800E38C013B9BB2E384A368B3F5805FE3D07F
:1015C80000963B46002280212046FFF759FF18BBB2
:1015D8002A7823685A600135E7E70135E5E7009680
:1015E8003B46002240212046FFF74AFF0346A8B9A0
:1015F800202284F83920002284F8382000E00223D1
:10160800184602B0BDE8F0810123F9E70123F7E7A6
:101618000223F5E70323F3E70323F1E70323EFE7C7
:1016280090F83930DBB2202B16D1B9B1C2B190F89D
:101638003830012B16D001628284C2840023C36330
:10164800212280F8392080F838300168CA6842F0D1
:101658008002CA6018467047022070470120704710
:1016680001207047022070477047FEE7FEE7FEE75B
:10167800FEE770477047704708B5FEF75FFF08BD83
:1016880008B50846114600F06DF908BD08B50846CA
:1016980000F082F908BD08B5084600F08DF908BDCC
:1016A80010B50C4600224168FFF7EAFF204600F01B
:1016B80087F910BD10B50C4601224168FFF7E0FF1D
:1016C800204600F07DF910BD38B50546816132210C
:1016D800FFF7E6FF002405E0AB69195D2846FFF730
:1016E800E9FF01341D2CF7DD38BD2DE9F041044632
:1016F800884616461F46069D4421FFF7D1FFC8F3CA
:10170800C7012046FFF7D6FFC7F3C7012046FFF7FA
:10171800D1FF45212046FFF7C3FFF1B22046FFF76E
:10172800C9FFC6F307212046FFF7C4FFE9B22046E8
:10173800FFF7C0FFC5F307212046FFF7BBFFBDE851
:10174800F08110B5044603E064212046FFF7A3FFAB
:10175800E1682046FFF79AFF0128F5D010BD70B563
:1017680004460E4615464E21FFF79AFFC6F3C701F9
:101778002046FFF79FFF4F212046FFF791FFE9B270
:101788002046FFF797FFC5F307212046FFF792FF92
:101798002046FFF7D6FF70BD10B504460022016849
:1017A800FFF76EFFC8212046FFF775FF0122216869
:1017B8002046FFF765FFC8212046FFF76CFF10BDE4
:1017C80070B504460E4601230360022343600023DC
:1017D80083600323C360C8230361436100F00EF9EB
:1017E80000284AD10546A6612046FFF7D5FF01210A
:1017F8002046FFF755FFC7212046FFF75BFF002172
:101808002046FFF757FF00212046FFF753FF0C2122
:101818002046FFF745FFD7212046FFF74BFFD6218B
:101828002046FFF747FF9D212046FFF743FF2C2165
:101838002046FFF735FFA8212046FFF73BFF3A2156
:101848002046FFF72DFF1A212046FFF733FF3B21E3
:101858002046FFF725FF08212046FFF72BFF11211F
:101868002046FFF71DFF03212046FFF723FFA1694C
:101878002046FFF729FF284670BD4FF0FF35FAE7ED
:10188800002959D02DE9F04F85B08946002A50DB50
:101898000E9900294DDB002B4BDB0F99002948DB03
:1018A80002F0F8050E9A02F0F80705EB070802693E
:1018B80090451EDB02F1FF380F9A03EB020B4269D9
:1018C800934519DB02F1FF3B9A4604460390CDF895
:1018D80000B0434652462946FFF707FF52462946BD
:1018E8002046FFF73CFF24212046FFF7D9FE0026BB
:1018F80018E008F1FF38DFE70BF1FF3BE4E7B4EB52
:10190800E30F0EDAFB1006FB034319F803100398E4
:10191800FFF7D0FE0134A8EB05030133EFD50733F9
:10192800EDE70136ABEB0A030133B34201DD0024D6
:10193800F1E705B0BDE8F08F704710B504462221E5
:10194800FFF7AEFEC4212046FFF7B4FE2021204653
:10195800FFF7A6FEFF212046FFF7A2FE2046FFF76D
:10196800F0FE10BD08B5012909D00A4B03EBC001F0
:101978000022898853F83000FEF74DFF08BD054B5B
:1019880003EBC0010122898853F83000FEF743FFBA
:10199800F4E700BFD800002008B5064B03EBC002EF
:1019A800918853F83000FEF72FFF012800D000205F
:1019B80008BD00BFD800002008B5FEF7D1FD08BD5E
:1019C80030B583B002AD05F8010D0A4C0022A1889C
:1019D8002068FEF720FF4FF47A7301222946064853
:1019E800FFF7E6FA0122A1882068FEF714FF03B08A
:1019F80030BD00BFD80000203C01002010B40F4BC0
:101A08000F4A92E8030083E8030003F1080402F197
:101A1800080103C984E8030003F1100402F110016E
:101A280003C984E803001833183292E8030083E8F6
:101A3800030000205DF8044B704700BFD800002069
:101A48000800002010B40024C460016012F0070FE1
:101A580009D002F10804514202F0070201F007011F
:101A680058BF4A42A21A426083605DF8044B70472F
:101A7800002935DB30B444688C4218DD002A16DBB7
:101A88008568954213DDA3B9006802FB0414002C95
:101A980024DBE4104B4201F0070103F0070358BFB1
:101AA800594280230B41015D21EA0301015530BCF5
:101AB8007047006802FB0414002C0DDBE4104B4255
:101AC80001F0070103F0070358BF594280230B4177
:101AD800015D19430155EAE70734EFE70734D8E712
:101AE8007047F8B505460F4600260AE03B462246F1
:101AF80031462846FFF7BCFF0134AB68A342F5DC4A
:101B080001366B68B34201DD0024F6E7F8BD406892
:101B180070478068704738B51446C2686AB90029AA
:101B280011DB42688A420EDD002C0CDB8268A2427F
:101B380009DD2246FFF79CFF05E0012A04D0022AAE
:101B480011D0032A1ED038BD0029FCDB82688A42E6
:101B5800F9DD002CF7DB4568A542F4DD0A46291BB0
:101B6800FFF786FFEFE70029EDDB45688D42EADDE8
:101B7800002CE8DB8268A242E5DD121B691AFFF738
:101B880077FFE0E70029DEDB82688A42DBDD002C94
:101B9800D9DB4568A542D6DD521A2146FFF768FF12
:101BA800D1E72DE9F84F83468A4691460A9F203BA4
:101BB800FE8806FB03F6BA8812F0070318BF012354
:101BC80003EBD2033A6803FB06264FF0000822E035
:101BD8000B9B08EB090204EB0A015846FFF79BFF31
:101BE8000FE00134BB88A3420FDD3278634204F072
:101BF800070503F0070358BF5D4280232B411A42B3
:101C0800E6D1072DEDD10136EBE713F0070F00D031
:101C1800013608F10108FB88434501DD0024E1E7AE
:101C2800BDE8F88F2DE9F04383B081460D46904614
:101C38001C460A9E0B9F09E00197009642462946DA
:101C48004846FFF7AEFFB3881D4401342378002BC4
:101C5800F2D103B0BDE8F0832DE9F04180460D468E
:101C680017461E460C4606E0069B3A462146404665
:101C7800FFF751FF0134AB19A342F5DCBDE8F08151
:101C88002DE9F04180460F4615461E46144606E0EB
:101C9800069B224639464046FFF73DFF0134AB1903
:101CA800A342F5DCBDE8F0812DE9F04782B081461A
:101CB8000A9C0B9F98468B42A8BF88468B42B8BFA8
:101CC8000B461D4626469442A8BF16469442B8BF06
:101CD8001446A3EB080A0AF1010A00975346324654
:101CE8004146FFF7B9FF009753462246414648460A
:101CF800FFF7B2FFA41B0134009723463246414642
:101D08004846FFF7BDFF0097234632462946484616
:101D1800FFF7B6FF02B0BDE8F08700002DE9F041FB
:101D28008AB00024059406940794089409940194B1
:101D3800324B1A6B42F080021A631A6B02F080026F
:101D48000192019A02941A6B42F001021A631A6B0B
:101D580002F001020292029A03941A6B42F0020204
:101D68001A631A6B02F002020392039A04941A6B24
:101D780042F004021A631B6B03F004030493049BF0
:101D88001F4E22464FF404713046FEF744FDDFF83B
:101D98007880224680214046FEF73DFD194F2246B5
:101DA80040213846FEF737FD4FF4047305930125AB
:101DB80006950794089405A93046FEF741FC802350
:101DC800059306950794089405A94046FEF738FC44
:101DD8004FF4807305930694079405A93046FEF7DF
:101DE8002FFC4023059306950794089405A93846C7
:101DF800FEF726FC0AB0BDE8F08100BF00380240BB
:101E080000000240000402400008024008B50C48E7
:101E18000C4B03604FF4827343604FF400438360BC
:101E28000023C360036143614FF400728261C361A0
:101E38000362436283620A23C362FFF779F808BD2D
:101E48003C0100200030014008B50848084B0360F9
:101E58004FF4E133436000238360C36003610C22C5
:101E680042618361C361FFF73CFB08BD9401002018
:101E78000044004008B50848084B03604FF4E133BC
:101E8800436000238360C36003610C224261836165
:101E9800C361FFF726FB08BDF8000020004800409A
:101EA80030B595B03022002108A800F0F3FA0024DC
:101EB8000394049405940694079401941A4B1A6C9D
:101EC80042F080521A641B6C03F080530193019B0B
:101ED8000294164B1A6842F480421A601B6803F495
:101EE80080430293029B012308934FF480330993A4
:101EF80002250E954FF480030F9304231093482274
:101F080011921295139308A8FEF78CFC0F230393E4
:101F1800049505944FF4805306930794294603A823
:101F2800FEF7B8FE15B030BD003802400070004022
:101F38002DE9F04F8FB041F2883000F0A3FA8046C7
:101F4800FEF7E2FAFFF7ACFFFFF7E8FEFFF75EFFE8
:101F5800FFF77AFFFFF78EFF784931F8042B7848AE
:101F6800FFF75EFB774907A8FFF72AFC002840F037
:101F7800BB800C9B0B9A414603A8FFF763FD012128
:101F880003A8FFF7AEFD704C0C9B01930B9B0093CD
:101F980000231A46214607A8FFF772FC07A8FFF797
:101FA800CCFC0C9B01930B9B009300231A46214603
:101FB80007A8FFF765FC07A8FFF7BFFC4FF47A7185
:101FC80007A8FFF768FB012103A8FFF78AFD4FF474
:101FD8007A7107A8FFF75FFB002401944FF0320ADB
:101FE800CDF800A0BE230A22114603A8FFF75CFE25
:101FF80001944FF09609CDF80090BE233C220A21A7
:1020080003A8FFF751FE514F0194514D00953B46EF
:102018001922502103A8FFF705FE01944D4E0096A2
:102028004D4B5022142103A8FFF7FCFD03A8FFF72E
:102038006EFD834603A8FFF76CFD0190CDF800B054
:1020480023462246414607A8FFF71AFC07A8FFF7D0
:1020580074FC4FF4FA6107A8FFF71DFB012103A8E0
:10206800FFF73FFD0194CDF800A0BE230A221146D8
:1020780003A8FFF719FE0194CDF80090BE233C2277
:102088000A2103A8FFF710FE019400953B46192288
:10209800502103A8FFF7C6FD019400962F4B50224C
:1020A800142103A8FFF7BEFD03A8FFF730FD06467D
:1020B80003A8FFF72EFD01900096234622464146CD
:1020C80007A8FFF7DDFB07A8FFF737FC4FF4FA6115
:1020D80007A8FFF7E0FA224907A8FFF771FB58B1F4
:1020E800204800F0E3FA02E01E4800F0DFFA4FF063
:1020F800FF300FB0BDE8F08F134C0C9B01930B9B86
:10210800009300231A46214607A8FFF7B9FB07A842
:10211800FFF713FC0C9B01930B9B009300231A46BB
:10212800214607A8FFF7ACFB07A8FFF706FC4FF40A
:102138007A7107A8FFF7AFFAFEE700BF3800002062
:10214800F8000020B42D0008283E0008DC510008E3
:102158003000002028000020E0510008F851000855
:10216800942D0008C851000800B583B002A941F8B1
:10217800040D4FF6FF7301220348FFF7E1F90198B8
:1021880003B05DF804FB00BF9401002082B0002179
:1021980000910B4B5A6C42F480425A645A6C02F418
:1021A80080420092009A01911A6C42F080521A649F
:1021B8001B6C03F080530193019B02B0704700BF72
:1021C8000038024000B589B00023039304930593B7
:1021D800069307930268154B9A4202D009B05DF83E
:1021E80004FB0021019103F584335A6C42F48052B8
:1021F8005A645A6C02F480520192019A02911A6B45
:1022080042F001021A631B6B03F001030293029B65
:10221800A023039302230493032306930523079320
:1022280003A90348FEF70CFAD8E700BF00300140C5
:102238000000024000B58BB0002305930693079376
:102248000893099303682A4A934205D0294A93427E
:1022580027D00BB05DF804FB00210191264B1A6CC6
:1022680042F400321A641A6C02F400320192019AA4
:1022780002911A6B42F001021A631B6B03F001030F
:102288000293029B0C2305930223069301230793D1
:10229800032308930723099305A91848FEF7D0F9E3
:1022A800D7E700210391144B1A6C42F480221A6478
:1022B8001A6C02F480220392039A04911A6B42F07A
:1022C80002021A631B6B03F002030493049B4FF48E
:1022D800406305930223069301230793032308937E
:1022E8000723099305A90648FEF7AAF9B1E700BF35
:1022F800004400400048004000380240000002400E
:102308000004024070B50D461646002404E0AFF301
:102318000080287001340135B442F8DB304670BDC6
:1023280070B51646002405E04D1C0878FFF71CFF21
:1023380001342946B442F7DB304670BD08B5034680
:102348000B4A126842B10A4A106803446A4693422B
:1023580006D8074A136008BD054A06491160F2E726
:1023680000F066F80C2303604FF0FF30F3E700BF7E
:10237800C4000020D80100204FF0FF3070474FF410
:1023880000534B60002070470120704700207047C1
:102398000F49D1F8883043F47003C1F888300D4BE9
:1023A8001A6842F001021A60002098601A6822F048
:1023B800847222F480321A60074A5A601A6822F43A
:1023C80080221A60D8604FF000638B60704700BFAE
:1023D80000ED00E00038024010300024DFF834D06F
:1023E800002103E00C4B5B58435004310B480C4B65
:1023F80042189A42F6D30B4A02E0002342F8043B03
:10240800094B9A42F9D3FFF7C3FF00F017F8FFF71B
:102418008FFD704700000220845200080000002051
:10242800A8000020A8000020D8010020FEE7000036
:10243800014B1868704700BF4400002070B50D4E6E
:102448000D4CA41BA4100025A54209D10B4E0C4C21
:1024580000F090FCA41BA4100025A54205D170BD76
:1024680056F8253098470135EEE756F82530984755
:102478000135F2E77C5200087C5200087C520008C3
:1024880080520008024B0146186800F059B800BF96
:102498004400002002440346934200D1704703F8E9
:1024A800011BF9E738B50546002945D051F8043C29
:1024B8000C1F002BB8BFE41800F0AEFB1F4A1368CE
:1024C800104633B9636014602846BDE8384000F010
:1024D800A4BBA3420CD921686218934204BF1A68AE
:1024E8005B68636004BF521822600460ECE713461F
:1024F8005A680AB1A242FAD919685818A0420BD1F1
:1025080020680144581882421960DDD11068526869
:102518005A6001441960D7E702D90C232B60D3E72E
:10252800206821188A4204BF11685268626004BF9B
:10253800091821605C60C7E738BD00BFCC000020E7
:1025480070B5CD1C25F0030508350C2D38BF0C25BA
:10255800002D064601DBA94203D90C233360002075
:1025680070BD00F059FB214A1468214691B9204CEE
:1025780023681BB9304600F0A1F820602946304690
:1025880000F09CF8431C24D10C233360304600F043
:1025980044FBE4E70B685B1B18D40B2B0FD90B60CB
:1025A800CD50CC18304600F038FB04F10B00231D49
:1025B80020F00700C31AD3D05A42E250D0E78C4229
:1025C8004B6816BF636013600C46EBE70C4649681E
:1025D800CCE7C41C24F00304A04205D0211A3046DD
:1025E80000F06CF80130CFD02560DBE7CC0000208C
:1025F800D000002070B50E46054618B183690BB9A6
:1026080000F01CFAAB69AC6813B9284600F016FA5A
:10261800234B9C4217D16C68A3891B071DD52369DE
:10262800DBB1013EA36816F8011F013BA360E9B9BD
:10263800002B2EDA22460A21284600F04FF80130F6
:1026480011D00A2011E0174B9C4201D1AC68E3E796
:10265800154B9C4208BFEC68DEE72146284600F08F
:102668008FF80028DDD04FF0FF3070BD002B04DA62
:10267800A2699A4206DC0A2904D023685A1C2260FF
:102688001970CFE72246284600F028F80130C9D152
:10269800E9E723680A205A1C22601870E5E700BFA2
:1026A800345200085452000814520008024B0146E4
:1026B8001868FFF79FBF00BF4400002038B5064CDC
:1026C8000023054608462360FFF738FE431C02D165
:1026D800236803B12B6038BDD4010020F8B50E463D
:1026E8001446054618B183690BB900F0A7F9214BC8
:1026F8009C422AD16C68A369A360A3891A072ED5C6
:10270800236963B323692068C01A6369F6B28342F8
:10271800374604DC2146284600F026F928BBA36882
:10272800013BA36023685A1C22601E706369013054
:10273800834204D0A389DB0719D50A2E17D1214675
:10274800284600F011F990B10FE00B4B9C4201D1E3
:10275800AC68D0E7094B9C4208BFEC68CBE7214640
:10276800284600F00DF80028CCD04FF0FF37384647
:10277800F8BD00BF34520008545200081452000833
:10278800324B70B51D6806460C4625B1AB6913B9C6
:10279800284600F053F92E4B9C420FD16C68B4F9CF
:1027A8000C309AB215072CD4D00611D40922326005
:1027B80043F04003A3814FF0FF303EE0254B9C429D
:1027C80001D1AC68EBE7244B9C4208BFEC68E6E714
:1027D800510712D5616B41B104F14403994202D00B
:1027E8003046FFF75FFE00236363A38923F02403C9
:1027F800A3810023636023692360A38943F008034E
:10280800A38123694BB9A38903F42073B3F5007F2F
:1028180003D02146304600F0BFF9A28912F0010327
:102828000CD00023A36063695B42A361236953B999
:10283800B4F90C3013F08000BAD170BD920758BFBC
:102848006369A360F2E70020F7E700BF44000020B7
:102858003452000854520008145200088A892DE99D
:10286800F041054610070C4658D44B68002B05DC90
:102878000B6C002B02DC0020BDE8F081E66A002E1C
:10288800F9D0002312F480522F68216A2B6032D0CD
:10289800606DA3895A0705D56368C01A636B0BB1CD
:1028A800236CC01A00230246E66A216A2846B0470C
:1028B800431CA38906D129681D2948D8294ACA403A
:1028C800D60744D500226260D9042269226004D563
:1028D800421C01D12B6803B96065616B2F60002928
:1028E800C9D004F14403994202D02846FFF7DAFD23
:1028F80000206063C0E701232846B047411CC8D1C7
:102908002B68002BC5D01D2B01D0162B01D12F60B1
:10291800B1E7A38943F04003A381ADE70F69002F16
:10292800A9D093070E6808BF4B690F6018BF002332
:10293800A6EB07088B60B8F1000F9CDD43463A46CA
:10294800216AA66A2846B047002806DCA38943F016
:102958004003A3814FF0FF308EE70744A8EB00083F
:10296800E9E700BF0100402038B50B6905460C4671
:10297800DBB118B183690BB900F060F80C4B9C42CD
:1029880009D16C68B4F90C307BB121462846BDE802
:102998003840FFF763BF074B9C4201D1AC68F1E7B1
:1029A800054B9C4208BFEC68ECE7002038BD00BF2F
:1029B800345200085452000814520008002310B57D
:1029C8000446C0E90033836081814366C281C0E95F
:1029D80004338361194608225C30FFF75BFD054B21
:1029E8006362054BA362054BE362054B24622363D4
:1029F80010BD00BF252C0008472C00087F2C0008BC
:102A0800A32C0008014900F085B800BF712900080F
:102A180070B54A1E682555430E4605F17401FFF747
:102A28008FFD044640B10021C0E900160C30A060BB
:102A380005F16802FFF72EFD204670BD836910B5C9
:102A4800044633BBC0E912330365124B124A1B68B4
:102A58008262984204BF0123836100F01FF860601E
:102A6800204600F01BF8A060204600F017F800226E
:102A7800E06004216068FFF7A1FF01220921A06836
:102A8800FFF79CFF02221221E068FFF797FF01235E
:102A9800A36110BD105200080D2A0008F8B51B4BA1
:102AA8001E68B369074613B93046FFF7C7FF4836B3
:102AB800D6E90134013B03D5336833B13668F7E70B
:102AC800B4F90C506DB16834F4E704213846FFF7C7
:102AD8009FFF30600028F1D10C233B60044620465C
:102AE800F8BD0B4B6566C4E90055A560C4E903351C
:102AF800C4E905550822294604F15C00FFF7CAFC21
:102B0800C4E90D55C4E91255E9E700BF10520008A1
:102B18000100FFFF2DE9F8438046894600F148048B
:102B2800002614B93046BDE8F883D4E90175013FA1
:102B380001D52468F5E7AB89012B07D9B5F90E3023
:102B4800013303D029464046C84706436835EEE7B7
:102B580070B50E46B1F90E10002996B014461D4600
:102B680007DA00232B60B3891A0610D44FF4806368
:102B78000EE06A4600F0B8F80028F2DB019A02F489
:102B88007042A2F500535A425A412A60EEE74023A8
:102B98000020236016B070BD8B8973B59D0706466B
:102BA8000C4607D504F147032360236101236361C1
:102BB80002B070BD01AB6A46FFF7CAFF009905462F
:102BC8003046FFF7BDFC48B9B4F90C309A05EFD48C
:102BD80023F0030343F00203A381E3E70D4BB36241
:102BE800A389206043F08003A381009B6361019B5C
:102BF80020615BB1B4F90E10304600F087F828B1B7
:102C0800A38923F0030343F00103A381A3891D4390
:102C1800A581CDE70D2A00087047704710B50C460E
:102C2800B1F90E1000F094F80028ABBF636DA389CA
:102C38001B1823F48053ACBF6365A38110BD2DE935
:102C4800F0411F468B89DB0505460C46164605D51F
:102C580002230022B1F90E1000F068F8A389B4F934
:102C68000E1023F48053A38132463B462846BDE824
:102C7800F04100F017B810B50C46B1F90E1000F08D
:102C880055F8431CA38915BF606523F4805343F4AA
:102C98008053A38118BFA38110BDB1F90E1000F0B5
:102CA80013B8000038B5074C0546084611460022FF
:102CB80022601A46FFF734FB431C02D1236803B194
:102CC8002B6038BDD401002038B5064C00230546DA
:102CD80008462360FFF750FB431C02D1236803B169
:102CE8002B6038BDD401002038B5074C00230546B9
:102CF800084611462360FFF742FB431C02D12368B4
:102D080003B12B6038BD00BFD401002038B5064C94
:102D18000023054608462360FFF736FB431C02D113
:102D2800236803B12B6038BDD401002038B5074CA7
:102D3800054608461146002222601A46FFF726FB80
:102D4800431C02D1236803B12B6038BDD401002095
:102D580038B5074C054608461146002222601A4637
:102D6800FFF7D0FA431C02D1236803B12B6038BDAA
:102D7800D4010020F8B500BFF8BC08BC9E467047D7
:0C2D8800F8B500BFF8BC08BC9E467047C0
:102D940010181808181808000000000000000000AF
:102DA40000000000131444120000000000000000A2
:102DB40002020111121222226669695958999988EE
:102DC40000000000F8B413513551511901000000FE
:102DD40000000000000000000000000000101010BF
:102DE4001010000010000000006C484800000000B3
:102DF40000000000001414287C287C285050000097
:102E04000010384040384870101000000020502056
:102E14000C7008140800000000000018202054481A
:102E2400340000000010101010000000000000002A
:102E340000080810101010101008080000202010BE
:102E4400101010101020200000107C102828000002
:102E5400000000000000101010FE10101000000010
:102E640000000000000000181030200000000000E6
:102E7400007C0000000000000000000000000030A2
:102E84003000000000040408081010202040000056
:102E940000384444444444443800000000301010D6
:102EA400101010107C000000003844040810204466
:102EB4007C00000000384404180404443800000076
:102EC400000C141424447E040E000000003C202056
:102ED4003804044438000000001C20407844444472
:102EE40038000000007C44040808081010000000AA
:102EF4000038444438444444380000000038444412
:102F0400443C040870000000000000303000003031
:102F140030000000000000181800001830200000E5
:102F240000000C10608060100C0000000000000025
:102F34007C007C00000000000000C0201804182061
:102F4400C000000000001824040810003000000035
:102F54003844444C54544C40443800000030102849
:102F640028287C44EE00000000F84444784444449B
:102F7400F8000000003C4440404040443800000059
:102F840000F0484444444448F000000000FC44502D
:102F940070504044FC000000007E22283828202085
:102FA40070000000003C4440404E4444380000009F
:102FB40000EE44447C444444EE000000007C1010C5
:102FC400101010107C000000003C08080848484815
:102FD4003000000000EE444850704844E600000011
:102FE40000702020202024247C00000000EE6C6C63
:102FF40054544444EE00000000EE64645454544CB1
:10300400EC000000003844444444444438000000C8
:103014000078242424382020700000000038444420
:1030240044444444381C000000F844444478484470
:10303400E200000000344C403804046458000000EE
:1030440000FE9210101010103800000000EE4444EE
:10305400444444443800000000EE44442828281026
:103064001000000000EE444454545454280000005E
:1030740000C6442810102844C600000000EE44286E
:103084002810101038000000007C44081010204460
:103094007C00000000382020202020202020380040
:1030A40000402020201010080808000000380808FC
:1030B4000808080808083800001010284400000018
:1030C400000000000000000000000000000000FEFE
:1030D400001008000000000000000000000000389C
:1030E400443C44443E00000000C04058644444440E
:1030F400F80000000000003C444040443800000058
:10310400000C04344C4444443E00000000000038E9
:10311400447C40403C000000001C207C20202020F7
:103124007C000000000000364C4444443C04380059
:1031340000C0405864444444EE0000000010007095
:10314400101010107C000000001000780808080817
:103154000808700000C0405C48705048DC00000063
:1031640000301010101010107C000000000000E867
:1031740054545454FE000000000000D864444444F5
:10318400EE000000000000384444444438000000CD
:10319400000000D8644444447840E0000000003655
:1031A4004C4444443C040E000000006C30202020B9
:1031B4007C0000000000003C443804447800000017
:1031C4000000207C202020221C000000000000CCF5
:1031D4004444444C36000000000000EE44442828D7
:1031E40010000000000000EE445454542800000075
:1031F400000000CC48303048CC000000000000EE55
:1032040044242818101078000000007C4810204442
:103214007C0000000008101010102010101008008E
:1032240000101010101010101010000000201010CA
:103234001010081010102000000000000024580096
:10324400000000000000000000000000000000007A
:10325400000000000000000000000000000000006A
:103264000000000000000C000C000C000C000C001E
:103274000C000C000C0000000C000000000000001A
:1032840000000000000000001DC01DC00880088070
:1032940008800000000000000000000000000000A2
:1032A4000000000000000D800D800D800D803FC0E7
:1032B4001B003FC01B001B001B001B000000000084
:1032C4000000000004001F803180318038001E009F
:1032D4000F000380318031803F00040004000000AF
:1032E40000000000000018002400240018C007801B
:1032F4001E003180024002400180000000000000F6
:1033040000000000000000000F0018001800180062
:103314000C001D80370033001D80000000000000F9
:103324000000000000000000070007000200020087
:103334000200000000000000000000000000000087
:103344000000000000000300030006000E000C0053
:103354000C000C000C000E0006000300030000002B
:10336400000000000000180018000C000600060011
:1033740006000600060006000C001C0018000000F1
:10338400000000000000060006003FC03FC00F0020
:103394001F801980000000000000000000000000F1
:1033A400000000000000000000000400040004000D
:1033B4003F8004000400040000000000000000003E
:1033C40000000000000000000000000000000000F9
:1033D400000000000000060004000C0008000800C3
:1033E40000000000000000000000000000000000D9
:1033F4003F8000000000000000000000000000000A
:1034040000000000000000000000000000000000B8
:103414000000000000000C000C0000000000000090
:103424000000000000C000C0018001800300030010
:1034340006000C000C0018001800300030000000DA
:103444000000000000000E001B003180318031803C
:103454003180318031801B000E000000000000002C
:1034640000000000000006003E0006000600060002
:1034740006000600060006003FC000000000000031
:103484000000000000000F0019803180318003002B
:1034940006000C00180030003F800000000000000F
:1034A4000000000000003F006180018003001F0055
:1034B40003800180018061803F0000000000000063
:1034C400000000000000070007000F000B001B00B5
:1034D400130033003F8003000F8000000000000051
:1034E4000000000000001F801800180018001F00D2
:1034F40011800180018021801F0000000000000075
:1035040000000000000007801C0018003000370095
:1035140039803180318019800F00000000000000E4
:103524000000000000007F004300030006000600C6
:10353400060006000C000C000C0000000000000057
:103544000000000000001F003180318031801F0026
:1035540031803180318031801F0000000000000084
:103564000000000000001E003300318031803380F1
:103574001D800180030007003C00000000000000E3
:103584000000000000000000000000000C000C001F
:103594000000000000000C000C000000000000000F
:1035A4000000000000000000000000000300030011
:1035B40000000000000006000400080008000000ED
:1035C400000000000000000000C003000400180018
:1035D400600018000400030000C0000000000000A8
:1035E40000000000000000000000000000007FC098
:1035F40000007FC000000000000000000000000088
:103604000000000000000000600018000400030037
:1036140000C0030004001800600000000000000067
:1036240000000000000000001F0031803180018094
:1036340007000C000C0000000C000000000000005B
:103644000000000000000E001100210021002700EE
:10365400290029002700200011000E0000000000AE
:1036640000000000000000003F000F000900198066
:1036740019801F8030C030C079E0000000000000D5
:1036840000000000000000007F00318031803180A4
:103694003F003180318031807F0000000000000055
:1036A40000000000000000001F4030C060406000C7
:1036B40060006000604030801F00000000000000D7
:1036C40000000000000000007F00318030C030C0E6
:1036D40030C030C030C031807F00000000000000E6
:1036E40000000000000000007F8030803080320045
:1036F4003E003200308030807F80000000000000F7
:1037040000000000000000007FC030403040320064
:103714003E003200300030007C0000000000000059
:1037240000000000000000001E8031806080600006
:10373400600067C0618031801F000000000000004D
:1037440000000000000000007BC031803180318027
:103754003F803180318031807BC000000000000058
:1037640000000000000000003FC006000600060044
:1037740006000600060006003FC00000000000002E
:1037840000000000000000001FC00300030003004D
:1037940003006300630063003E00000000000000BB
:1037A40000000000000000007BC0318033003600C0
:1037B4003C003E003300318079C00000000000006E
:1037C40000000000000000007E001800180018002F
:1037D40018001840184018407FC000000000000086
:1037E4000000000000000000E0E060C071C07BC089
:1037F4006AC06EC064C060C0FBE00000000000004E
:10380400000000000000000073C0318039803D805A
:1038140035803780338031807980000000000000DB
:1038240000000000000000001F00318060C060C084
:1038340060C060C060C031801F0000000000000054
:1038440000000000000000007F00318031803180E2
:1038540031803F00300030007E0000000000000096
:1038640000000000000000001F00318060C060C044
:1038740060C060C060C031801F000CC01F800000A9
:1038840000000000000000007F00318031803180A2
:103894003E003300318031807CE0000000000000F5
:1038A40000000000000000001F80318031803800DB
:1038B4001F000380318031803F00000000000000C1
:1038C40000000000000000007F804C804C804C8091
:1038D4000C000C000C000C003F0000000000000075
:1038E40000000000000000007BC031803180318086
:1038F40031803180318031801F00000000000000E1
:1039040000000000000000007BC0318031801B00FB
:103914001B001B000A000E000E0000000000000047
:103924000000000000000000FBE060C064C06EC046
:103934006EC02A803B803B80318000000000000084
:1039440000000000000000007BC031801B000E005E
:103954000E000E001B0031807BC000000000000040
:10396400000000000000000079E030C019800F0062
:1039740006000600060006001F800000000000008C
:1039840000000000000000003F80218023000600AA
:1039940004000C00188030803F800000000000000C
:1039A4000000000000000780060006000600060074
:1039B4000600060006000600060006000780000058
:1039C4000000000030003000180018000C000C004B
:1039D4000600030003000180018000C000C0000055
:1039E4000000000000001E0006000600060006009D
:1039F4000600060006000600060006001E00000081
:103A04000000000004000A000A0011002080208049
:103A140000000000000000000000000000000000A2
:103A24000000000000000000000000000000000092
:103A34000000000000000000000000000000000082
:103A44000000FFE008000400020000000000000085
:103A54000000000000000000000000000000000062
:103A64000000000000000000000000001F000180B2
:103A740001801F80318033801DC0000000000000E1
:103A84000000000000007000300030003700398072
:103A940030C030C030C03980770000000000000022
:103AA4000000000000000000000000001E803180C3
:103AB40060806000608031801F0000000000000012
:103AC4000000000000000380018001801D8033801D
:103AD40061806180618033801DC0000000000000AF
:103AE4000000000000000000000000001F00318002
:103AF40060C07FC0600030C01F8000000000000074
:103B040000000000000007E00C000C003F800C00E7
:103B14000C000C000C000C003F80000000000000B2
:103B24000000000000000000000000001DC0338001
:103B340061806180618033801D80018001801F006D
:103B440000000000000070003000300037003980B1
:103B540031803180318031807BC000000000000062
:103B64000000000000000600060000001E00060021
:103B740006000600060006003FC00000000000002A
:103B84000000000000000600060000003F000300E3
:103B940003000300030003000300030003003E00CE
:103BA4000000000000007000300030003780360054
:103BB4003C003C003600330077C0000000000000E9
:103BC4000000000000001E000600060006000600BB
:103BD40006000600060006003FC0000000000000CA
:103BE4000000000000000000000000007F8036C0DC
:103BF40036C036C036C036C076E000000000000093
:103C04000000000000000000000000007700398080
:103C140031803180318031807BC0000000000000A1
:103C24000000000000000000000000001F003180C0
:103C340060C060C060C031801F0000000000000050
:103C44000000000000000000000000007700398040
:103C540030C030C030C039803700300030007C00C4
:103C64000000000000000000000000001DC03380C0
:103C740061806180618033801D800180018007C084
:103C84000000000000000000000000007B801CC059
:103C940018001800180018007F0000000000000041
:103CA4000000000000000000000000001F803180C0
:103CB4003C001F00038031803F0000000000000032
:103CC4000000000000001800180018007F00180011
:103CD40018001800180018800F00000000000000F1
:103CE400000000000000000000000000738031802C
:103CF40031803180318033801DC00000000000001D
:103D04000000000000000000000000007BC03180C3
:103D140031801B001B000E000E000000000000009C
:103D2400000000000000000000000000F1E060C09E
:103D340064C06EC03B803B80318000000000000006
:103D44000000000000000000000000007BC01B0019
:103D54000E000E000E001B007BC0000000000000DF
:103D640000000000000000000000000079E030C006
:103D7400198019800B000F00060006000C003E009D
:103D84000000000000000000000000003F802180CF
:103D940003000E00180030803F8000000000000087
:103DA40000000000000006000C000C000C000C00D9
:103DB4000C0018000C000C000C000C0006000000A5
:103DC40000000000000006000600060006000600D1
:103DD40006000600060006000600060006000000B5
:103DE4000000000000000C000600060006000600AB
:103DF4000600030006000600060006000C00000092
:103E04000000000000000000000000000000180096
:103E140024800300000000000000000000000000F7
:103E240000000000FFFFFFFFFFFFFFFF8FFFFFFF0A
:103E3400FFFFFFFFF1FFFFFFFFFFFFFFFFFFFFFF9C
:103E4400FFFFFFFFFF8FFFFFFFFFFFFFFFF1FFFFFC
:103E5400FFFFFFFFFFFFFFFFFFFFFFFFFFFF8FFFDE
:103E6400FFFFFFFFFFFFF1FFFFFFFFFFFFFFFFFF6C
:103E7400FFFFFFFFFFFFFF8FFFFFFFFFFFFFFFF1CC
:103E8400FE01FFFFFFFFFFFFFFFFFFFFFFFFFFFF3D
:103E94008FFFFFFFFFFFFFFFF1F8007FFFFFFFFF32
:103EA400FFFFF7FF3FFFFFFFFF8FFFFFFFFFFFFF56
:103EB400FFF1F0003FFFFFFFFFFFFFE1FE1FFFFFE9
:103EC400FFFF8FFFFFFFFFFFFFFFF1F0001FFFFF6A
:103ED400FFFFFFFFE3FF1FFFFFFFFF8FFFFFFFFF5A
:103EE400FFFFFFF1E0001FFFFFFFFFFFFFE3FF9F66
:103EF400FFFFFFFF8FFFFFFFFFFFFFFFF1E1E30085
:103F040000000001FFFFE7FF8FFFFFFFFF8FFFFFB0
:103F1400FFFFFFFFFFF1C3F30FFFFFFFFCFFFFE312
:103F2400FF8FFFFFFFFF8FFFFFFFFFFFFFFFF1C3C7
:103F34003B0FFFFFFFFEFFFFE3FF1FFFFFFFFF8FAE
:103F4400FFFFFFFFFFFFFFF1C30F0FFFFFFFFEFFA8
:103F5400FFE1FE1FFFFFFFFF8FFFFFFFFFFFFFFFDC
:103F6400F1C30F0FFFFFFFFEFFFFF0FC1FFFFFFF7A
:103F7400FF8FFFE3FFFFFFFFFFF1C3870FFFFFFF8B
:103F8400FEFFFFF0003FFFFFFFFF8FFFE07FFFFF1B
:103F9400FFFFF1C1030FFFFFFFFEFFFFF8007FFFEC
:103FA400FFFFFF8FFFE00FFFFFFFFFF1E0001FFFA8
:103FB400FFFFFEFFFFFE01FFFFFFFFFF8FFFFC037C
:103FC400FFFFFFFFF1E0001FFFFFFFFEFFFFFFFF0A
:103FD400FFFFFFFFFF8FFFFF807FFFFFFFF1F00078
:103FE4003FFFFFFF7EFFFFFBFFFFFFFFFFFF8FFF92
:103FF400FFF01FFFFFFFF1F8007FFFFFFC3EFFFF14
:10400400E0FFFFFFFFFFFF8FFFFF001FFFFFFFF138
:10401400FE00FFFFFFF03EFFFFC67FFFFFFFFFFF35
:104024008FFFF8078FFFFFFFF1FE87FFFFFFE0CE52
:10403400FFFFCE7FFFFFFFFFFF8FFFE01F8FC00753
:10404400FFF1FEFFFFFFFF8186FFFFCE7FFFFFFF33
:10405400FFFF8FFFE0FFCF8007FFF1FEFFFFFFFFB1
:104064000206FFFFC67FFFFFFFFFFF8FFFE3FFEFA7
:104074000007FFF1FEFFFFFFFE0C02FFFFE0FFFF62
:10408400FFFFFFFF8FFFFFFFFF1FFFFFF1FEFFFF9B
:10409400FFFE1802FFFFFBFFFFFFFFFFFF8FFFFF85
:1040A400FFFF1FFFFFF1FEFFFFFFFE2000FFFFFFEA
:1040B400FFFFFFFFFFFF8FFFFE01FF1FFFFFF1FE6A
:1040C400FFFFFFFEC002FFFFFF03FFFFFFFFFF8FA5
:1040D400FFF001FF9FFFFFF1FEFFFFFFFF0002FF64
:1040E400FFF8007FFFFFFFFF8FFFE001E0800FFF7D
:1040F400F1FEFFFFFFFF0002FFFFF0003FFFE7FFBD
:10410400FF8FFFE003E00007FFF1FEFFFFFFFF80EA
:1041140006FFFFE0CC1FFFE0FFFF8FFFE271E0002E
:1041240007FFF1FEFFFFFFFFC00EFFFFE3C71FFF06
:10413400E03FFF8FFFE739E0000FFFF1FEFFFFFFD5
:10414400FFC00EFFFFE7E78FFFF007FF8FFFE738A1
:10415400FFFFFFFFF1FEFFFFFFFF001EFFFFE7E78A
:104164008FFFFE01FF8FFFE310FFFFFFFFF1FEFF54
:10417400FFFFFC003EFFFFE3C78FFFFFC07F8FFF01
:10418400E301FF1FC7FFF1FEFF83FFF0007EFFFF87
:10419400E0071FFFFFF83F8FFFF381FF1FC7FFF109
:1041A400FEFC01FFE000FEFFFFF00F1FFFFFC01F3A
:1041B4008FFFFFC7FF1FC7FFF1FEF007FF8001FE5F
:1041C400FFFFF81FBFFFFE000F8FFFFFFFF8000780
:1041D400FFF1FEC018FE0003FEFFFFFFFFFFFFF02C
:1041E40007878FFFFFFFF8000FFFF1FEC0E0F80024
:1041F4000FFEFFFFFFFFFFFFE01FC78FFFFFFFF86A
:10420400000FFFF1FEC700E0001FFEFFFFFFFF9F4E
:10421400FFE0FFC78FFE0001FF1EFFFFF1FEDC0081
:10422400C0003FFEFFFFF83F1FFFE3FFC78FFE0004
:1042340001FF1FFFFFF1FEE0000000FFFEFFFFF0A3
:104244000F1FFFFFFFC78FFE0001FFFFFFFFF1FEFF
:10425400C0000003FFFEFFFFE0031FFFFFFFFF8F0F
:10426400FE03FFF87FFFFFF1FEE0000007FFFEFF03
:10427400FFE3C19FFFFFFFFF8FFFC07FF81FFFFF1A
:10428400F1FEE000001FFFFEFFFFE7E09FFFF800E4
:10429400FF8FFFF81FF807FFFFF1FEF00000FFFF9C
:1042A400FEFFFFE7F81FFFF000FF8FFFFE03F8019A
:1042B400FFFFF1FEF80003FFFFFEFFFFE7FC1FFF17
:1042C400E000FF8FFFFF83F8C07FFFF1FEFC003F9B
:1042D400FFFFFEFFFFE3FE1FFFE000FF8FFFFC0771
:1042E400F8F01FFFF1FEFFB7FFFFFFFEFFFFF1FF36
:1042F4001FFFE331FF8FFFE03FF8FC07FFF1FEFFF4
:10430400FFFFFFFFFEFFFFF3FF9FFFE338FF8FFF79
:1043140000FFF8FF03FFF1FEFFFFFFFFFFFEFFFFBB
:10432400FFFFFFFFE338FF8FFE07FFF8FFC3FFF136
:10433400FEFFFFFFFFFFFEFFFFFFFFFFFFE318FF8E
:104344008FFE0001F8FFF3FFF1FEFFFFFFFFFFFE0A
:10435400FFFFFFDFFFFFE300FF8FFE0001F8FFFF19
:10436400FFF1FEFFFFFFFFFFFEFFFFFF8FFFFFE3F5
:1043740080FF8FFE0001F8FFFFFFF1FEFFFFFFFF4C
:10438400FFFEFFFFFF87FFFFF181FF8FFFFFFFFFAE
:10439400FFFFFFF1FEFFFFFFFFFFFEFFFFFFC3FF75
:1043A400FFFFC3FF8FFFFFFFFFFFFFFFF1FEFFFFD4
:1043B400FFFFFFFEFFFFFFE3FFFFFFFFFF8FFFFF96
:1043C400FFFFFFFFFFF1FE7FFFFFFFFFFCFFFFFF8B
:1043D400F3FFFFFFFFFF8FFFFFFFFFFFFFFFF1FF73
:1043E400000000000001FFFFFFE3FFFC0000FF8F5F
:1043F400FFFFFFFFFFFFFFF1FFFFFFFFFFFFFFFFD7
:10440400FFFFE3FFFC0000FF8FFFFFFFFFFFFFFF45
:10441400F1FFFFFFFFFFFFFFFFFFFFC3FFFC0000F3
:10442400FF8FFFFFFFFFFFFFFFF1FFFFFFFFFFFF16
:10443400FFFFFFFF87FFFC0000FF8FFFFFFFFFFF71
:10444400FFFFF1FFFFFFFFFFFFFFFFFFFF8FFFFFF6
:10445400E3F1FF8FFFFFFFFFFFFFFFF1FFFFFFFF10
:10446400FFFFFFFFFFFF1FFFFFE3F9FF8FFFFFFFCA
:10447400FFFFFFFFF1FFFFFFFFFFFFFFFFFFFF1F36
:10448400FFFFE3F8FF8FFFFFFFFFFFFFFFF1FFFFD9
:10449400FFFFFFFFFFFFFFFF3FFFFFE3F8FF800089
:1044A40000000000000001FFFFFFFFFFFFFFFFFF10
:1044B400FE3FFFFFE1F0FF8000000000000000016C
:1044C400FFFFFFFFFFFFFFFFFFFF1FFFFFF000FFE6
:1044D4008FFFFFFFFFFFFFFFF1FFFFFFFFFFFFFF66
:1044E400FFFFFF1FFFFFF001FF8FFFFFFFFFFFFF35
:1044F400FFF1FFFFFFFFFFFFFFFFFFFF0FFFFFF8CD
:1045040001FF8FFFFFFFFFFFFFFFF1FFFFFFFFFF33
:10451400FFFFFFFFFF87FFFFFE07FF8FFFFFFFFF88
:10452400FFFFFFF1FFFFFFFFFFFFFFFFFFFFCFFFD5
:10453400FFFFFFFF8FFFFFFFFFFFFFFFF1FFFFFF05
:10454400FFFFFFFFFFFFFFFFFFFFFFFFFF8FFFFFE7
:10455400FFFFFFFFFFF1FFFFFFFFFFFFFFFFFFFF75
:10456400FFFFFFF800FF8FFFFFFFFFFFFFFFF1FFDB
:10457400FFFFFFFFFFFFFFFFFFF8FFFFF000FF8FCC
:10458400FFFFFFFFFFFFFFF1FFFFFFFFFFFFFFFF45
:10459400FFF8703FFFE000FF8FFFFFFFFFFFFFFF0B
:1045A400F1FFFFFFFFFAFFFFFFFFF0201FFFE00016
:1045B400FF8FFFFFFFFFFFFFFFF1FFFFFFFFC01FA4
:1045C400FFFFFFE0021FFFE3FFFF8FFFFFFFFFFF7F
:1045D400FFFFF1FFFFFFFF000FFFFFFFE3871FFF58
:1045E400E3FFFF8FFFFFFFFFFFFFFFF1FFFFFFFE72
:1045F4000007FFFFFFE78F8FFFE3FFFF8FFFFFFF42
:10460400FFFFFFFFF1FFFFFFFE00027FFFFFE7CF89
:104614008FFFF0FFFF8FFFFFFFFFFFFFFFF1FFFFA3
:10462400FFFC00007FFFFFE7CF9FFFE000FF8FFF4D
:10463400FFFFFFFFFFFFF1FFFFFFF80000FFFFFF99
:10464400E3FF1FFFE000FF8FFFFFFFFFFFFFFFF10E
:10465400FFFFFFF83000FFFFFFF3FE1FFFE000FF46
:104664008FFFFFFFFFFFFFFFF1FFFFFFF83000FFA9
:10467400FFFFF7FF3FFFE000FF8FFFFFFFFFFFFF9C
:10468400FFF1FFFFFFF00000FFFFFFFFFFFFFFFF51
:10469400FFFF8FFFFFFFFFFFFFFFF1FFFFFFF000B2
:1046A40000FFFFFFFFFFFFFFFFFFFF8FFFFFFFFF85
:1046B400FFFFFFF1FFFFFF900000FFFFFFFFFF1F61
:1046C400FFFFFFFF8FFFFFFFFFFFFFFFF1FFFFFF74
:1046D400100000FFFFFFF81F1FFFE000FF8FFFFF28
:1046E400FFFFFFFFFFF1FFFFFC100000FFFFFFF0E3
:1046F4000F1FFFE000FF8FFFFFFFFFFFFFFFF1FF32
:10470400FFF8183000FFFFFFE0031FFFE000FF8FFA
:10471400FFFFFFFFFFFFFFF1FFFFF8083800FFFF77
:10472400FFE3C19FFFE000FF8FFFFFFFFFFFFFFFDD
:10473400F1FFFFF0083001FFFFFFE7F09FFFFFE10B
:10474400FF8FFFFFFFFFFFFFFFF1FFFFE008000106
:10475400FFFFFFE7F81FFFFFF9FF8FFFFFFFFFFFDA
:10476400FFFFF1FFFFE0E40001FFFFFFE7FC1FFF95
:10477400FFF8FF8FFFFFFFFFFFFFFFF1FFFFE0E206
:104784000003FFFFFFE3FE1FFFFFF8FF8FFFFFFFA4
:10479400FFFFFFFFF1FFFFC0E20007FFFFFFF1FF94
:1047A4001FFFE000FF8FFFFFFFFFFFFFFFF1FFFF91
:1047B400C041000FFFFFFFF3FF9FFFE000FF8FFFEB
:1047C400FFFFFFFFFFFFF1FFFFC000C01FFFFFFF60
:1047D400FFFFFFFFE001FF8FFFFFFFFFFFFFFFF180
:1047E400FFFFC00030FFFFFFFFFFFFFFFFE003FFFD
:1047F4008FFFFFFFFFFFFFFFF1FFFFC000077FFFF9
:10480400FFFFFFFFFFFFFFFFFF8FFFFFFFFFFFFF24
:10481400FFF1FFFFC000003FFFFFFFFFFFFFFFFFAF
:10482400FFFF8FFFFFFFFFFFFFFFF1FFFFC000004F
:104834007FFFFFFFFFFFFFFFFFFFFF8FFFFFFFFF74
:10484400FFFFFFF1FFFFC040007FFFFFFFFFBFFF3F
:10485400FFFFFFFF8FFFFFFFFFFFFFFFF1FFFFC021
:10486400E0007FFFFFFFFF3FFFFFFF87FF8FFFFF9A
:10487400FFFFFFFFFFF1FFFFE0E0007FFFFFFFFF0F
:104884003FFFFF1E03FF8FFFFFFFFFFFFFFFF1FF4F
:10489400FFE0E0007FFFFFFEFFBFCFFE3E01FF8F82
:1048A400FFFFFFFFFFFFFFF1FFFFE000003FFFFFFF
:1048B400FE3FFF8FFE3C01FF8FFFFFFFFFFFFFFF67
:1048C400F1FFFFF000003FFFFFFF3C0F9FFE3C3075
:1048D400FF8FFFFFFFFFFFFFFFF1FFFFF800011F46
:1048E400FFFFFFF003FFFE3C78FF8FFFFFFFFFFF9A
:1048F400FFFFF1FFFFF80003FFFFFFFFE000FFFEF3
:104904003878FF8FFFFFFFFFFFFFFFF1FFFFFC0081
:1049140007FFFFFFFFC000FFFE1878FF8FFFFFFFB8
:10492400FFFFFFFFF1FFFFFF000FFFFFFFFFC000CE
:104934007FFE00F8FF8FFFFFFFFFFFFFFFF1FFFF88
:10494400FF803FFFFFFFFF80003FFF00F8FF8FFF66
:10495400FFFFFFFFFFFFF1FFFFFFFFFFFFFFFFFF71
:1049640080003FFF01F0FF8FFFFFFFFFFFFFFFF11C
:10497400FFFFFFFFFFFFFFFFFF80003FFFC3F1FFCB
:104984008FFFFFFFFFFFFFFFF1FFFFFFFFFFFFFFB1
:10499400FFF1000031FFFFFFFF8FFFFFFFFFFFFF6D
:1049A400FFF1FFFFFFFFFFFFFFFFF1000031FFFFFB
:1049B400FFFF8FFFFFFFFFFFFFFFF1FFFFFFFFFF81
:1049C400FFFFFFFF80003FFFFFFFFF8FFFFFFFFFA1
:1049D400FFFFFFF1FFFFFFFFFFFFFFFFFF80003F2F
:1049E400FFFFFFFF8FFFFFFFFFFFFFFFF1FFFFFF51
:1049F400FFFFFFFFFFFF80007FFFFFFFFF8FFFFF31
:104A0400FFFFFFFFFFF1FFFFFFFFFFFFFFFFFFC0FF
:104A1400007FFFFFFFFF8FFFFFFFFFFFFFFFF1FF9F
:104A2400FFFFFFFFFFFFFFFFE000FFFFFFFFFF8F20
:104A3400FFFFFFFFFFFFFFF1FFFFFFFFFFFFFFFF90
:104A4400FFF001FFFFFFFFFF8FFFFFFFFFFFFFFFEF
:104A5400F1FFFFFFFFFFFFFFFFFF7803DFFFFFFF13
:104A6400FF8FFFFFFFFFFFFFFFF1FFFFFFFFFFFFD0
:104A7400FFFFFE3F1F8FFFFFFFFF8FFFFFFFFFFFC3
:104A8400FFFFF1FFFFFFFFFFFFFFFFFE7FFFCFFFF1
:104A9400FFFFFF8FFFFFFFFFFFFFFFF1FFFFFFFFA0
:104AA400FFFFFFFFFEFF3FFFFFFFFFFF8FFFFFFF43
:104AB400FFFFFFFFF1FFFFFFFFFFFFFFFFFFFF3FD0
:104AC400FFFFFFFFFF8FFFFFFFFFFFFFFFF1FFFF70
:104AD400FFFFFFFFFFFFFFFF3FFFFFFFFFFF8FFF12
:104AE400FFFFFFFFFFFFF1FFFFFFFFFFFFFFFFFFE0
:104AF400FFFFFFFFFFFFFF8FFFFFFFFFFFFFFFF140
:104B0400FFFF000000017FFF000000000000000024
:104B14000FFFFFFFFFFFFFFFF1FFFD800000031FFA
:104B2400FF00000000000000000FFFFFFFFFFFFF79
:104B3400FFF1FFF8800000020FFFFFFFFFFFFFFF00
:104B4400FFFF8FFFFFFFFFFFFFFFF1FFF0400000BB
:104B5400040FFFFFFFFFFFFFFFFFFF8FFFFFFFFFBC
:104B6400FFFFFFF1FFF06000000C07FFFFFFFFFFF6
:104B7400FFFFFFFF8FFFFFFFFFFFFFFFF1FFF020AD
:104B840000000807FFFFFFFFFFFFFFFFFF8FFFFF8E
:104B9400FFFFFFFFFFF1FFF03000001007FFFFFFF2
:104BA400FFFFFFFFFFFF8FFFFFFFFFFFFFFFF1FF8F
:104BB400F01000003007FFFFFFFFFFFFFFFFFF8F34
:104BC400FFFFFFFFFFFFFFF1FFF01800002007FFCA
:104BD400FFFFFFFFFFFFFFFF8FFFFFFFFFFFFFFF51
:104BE400F1FFF00800006007FFFFFFFFFFFFFFFF7A
:104BF400FF8FFFFFFFFFFFFFFFF1FFF00400004006
:104C040007FFFFFFFFFFFFFFFFFF8FFFFFFFFFFF18
:104C1400FFFFF1FFF00600008007FFFFFFFFFFFF2B
:104C2400FFFFFF8FFFFFFFFFFFFFFFF1FFF0020019
:104C3400018007FFFFFFFFFFFFFFFFFF8FFFFFFF65
:104C4400FFFFFFFFF1FFF00300010007FFFFFFFF7D
:104C5400E0000000FF8FFFFFFFFFFFFFFFF1FFF009
:104C64000100020007FFFFFFFF00000000FF8FFFAD
:104C7400FFFFFFFFFFFFF1FFF00180060007FFFFCA
:104C8400FFFC00000000FF8FFFFFFFFFFFFFFFF1AD
:104C9400FFF00080040007FFFFFFF000380000FF72
:104CA4008FFFFFFFFFFFFFFFF1FFF0004008000749
:104CB400FFFFFFE000FE0000FF8FFFFFFFFFFFFF8D
:104CC400FFF1FFF00040080007FFFFFFC003FF8073
:104CD40000FF8FFFFFFFFFFFFFFFF1FFF000201039
:104CE4000007FFFFFF800FFFF800FF8FFFFFFFFFAC
:104CF400FFFFFFF1FFF00030300007FFFFFF003F30
:104D0400FFFC00FF8FFFFFFFFFFFFFFFF1FFF0003D
:104D140010200007FFFFFE00FFE7FE00FF8FFFFFEC
:104D2400FFFFFFFFFFF1FFF00018400007FFFFFC4B
:104D340001FF81FF00FF8FFFFFFFFFFFFFFFF1FF78
:104D4400F00008C00007FFFFFC01FF007F00FF8F99
:104D5400FFFFFFFFFFFFFFF1FFF00004800007FFEC
:104D6400FFF801FFC07F80FF8FFFFFFFFFFFFFFF02
:104D7400F1FFF00005000007FFFFF800FFF8000056
:104D8400FF8FFFFFFFFFFFFFFFF1FFF000030000B5
:104D940007FFFFF0001FFE0000FF8FFFFFFFFFFF74
:104DA400FFFFF1FFF00003000007FFFFF00007FF23
:104DB4008000FF8FFFFFFFFFFFFFFFF1FFF0000107
:104DC400000007FFFFF1FF81FF8000FF8FFFFFFF5F
:104DD400FFFFFFFFF1FFF00001800007FFFFE0FF8E
:104DE400007F8000FF8FFFFFFFFFFFFFFFF1FFF059
:104DF4004780800007FFFFE07FC13F8000FF8FFFF7
:104E0400FFFFFFFFFFFFF1FFF04FC0400007FFFF70
:104E1400E03FF94F0000FF8FFFFFFFFFFFFFFFF1AF
:104E2400FFF04C40400007FFFFE01FFE780000FF4A
:104E34008FFFFFFFFFFFFFFFF1FFF064C04000079B
:104E4400FFFFE00FFF800000FF8FFFFFFFFFFFFF6A
:104E5400FFF1FFF07FC0400007FFFFE005FFF00017
:104E640000FF8FFFFFFFFFFFFFFFF1FFF01F00C0F8
:104E74000007FFFFE0003FFC0000FF8FFFFFFFFF84
:104E8400FFFFFFF1FFF00000800007FFFFE0000FCD
:104E9400FF0000FF8FFFFFFFFFFFFFFFF1FFF000A8
:104EA40001000007FFFFE00003FF8000FF8FFFFF0A
:104EB400FFFFFFFFFFF1FFF00001000007FFFFE02D
:104EC4000007FF8001FF8FFFFFFFFFFFFFFFF1FFE0
:104ED400F00002000007FFFFE0003FFF0001FF8F2A
:104EE400FFFFFFFFFFFFFFF1FFF00006000007FFD9
:104EF400FFE000FFFC0001FF8FFFFFFFFFFFFFFF4C
:104F0400F1FFF00005000007FFFFE001FFE00001F2
:104F1400FF8FFFFFFFFFFFFFFFF1FFF0000D800099
:104F240007FFFFE001FF000003FF8FFFFFFFFFFF0C
:104F3400FFFFF1FFF00008800007FFFFE001FF80A2
:104F44000003FF8FFFFFFFFFFFFFFFF1FFF00010E3
:104F5400400007FFFFE000FFF00003FF8FFFFFFFAB
:104F6400FFFFFFFFF1FFF00010400007FFFFE0002C
:104F74001FFE0007FF8FFFFFFFFFFFFFFFF1FFF0A2
:104F84000020200007FFFFE00003FF8007FF8FFFE2
:104F9400FFFFFFFFFFFFF1FFF00060300007FFFF9E
:104FA400E00007FF800FFF8FFFFFFFFFFFFFFFF110
:104FB400FFF00040100007FFFFE0003FFF801FFFED
:104FC4008FFFFFFFFFFFFFFFF1FFF000C0080007A6
:104FD400FFFFE001FFFF001FFF8FFFFFFFFFFFFF49
:104FE400FFF1FFF000800C0007FFFFE001FFF80075
:104FF4003FFF8FFFFFFFFFFFFFFFF1FFF001800482
:105004000007FFFFE001FFE0007FFF8FFFFFFFFFCE
:10501400FFFFFFF1FFF00100020007FFFFE001FEC8
:105024000000FFFF8FFFFFFFFFFFFFFFF1FFF00214
:1050340000030007FFFFE001F00003FFFF8FFFFF05
:10504400FFFFFFFFFFF1FFF00600010007FFFFE095
:1050540001800007FFFF8FFFFFFFFFFFFFFFF1FF4E
:10506400F00400018007FFFFE00000001FFFFF8F36
:10507400FFFFFFFFFFFFFFF1FFF00C00008007FFC1
:10508400FFE0000000FFFFFF8FFFFFFFFFFFFFFFB8
:10509400F1FFF00800004007FFFFE000000FFFFFF2
:1050A400FF8FFFFFFFFFFFFFFFF1FFF0180000601D
:1050B40007FFFFFFFFFFFFFFFFFF8FFFFFFFFFFF64
:1050C400FFFFF1FFF01000002007FFFFFFFFFFFFCD
:1050D400FFFFFF8FFFFFFFFFFFFFFFF1FFF0200047
:1050E400001007FFFFFFFFFFFFFFFFFF8FFFFFFF22
:1050F400FFFFFFFFF1FFF06000001807FFFFFFFF55
:10510400FFFFFFFFFF8FFFFFFFFFFFFFFFF1FFF038
:105114004000000807FFFFFFFFFFFFFFFFFF8FFFB7
:10512400FFFFFFFFFFFFF1FFF8C00000040FFFFFC8
:10513400FFFFFFFFFFFFFF8FFFFFFFFFFFFFFFF1F9
:10514400FFF8800000041FFFFFFFFFFFFFFFFFFFCA
:105154008FFFFFFFFFFFFFFFF1FFFF000000023F93
:10516400FFFFFFFFFFFFFFFFFF8FFFFFFFFFFFFFBB
:10517400FFF1FFFFFFFFFFFFFFFFFFFFFFFFFFFF49
:10518400FFFF8FFFFFFFFFFFFFFFF1FFFFFFFFFFA9
:10519400FFFFFFFFFFFFFFFFFFFFFF8FFFFFFFFF8B
:1051A400FFFFFFF1FFFFFFFFFFFFFFFF0000000015
:1051B40000000000010203040607080900000000C3
:1051C40001020304652D506170657220696E697473
:1051D400206661696C656400534D53004A616B61DC
:1051E40073206C6F736F776120776961646F6D6F83
:1051F400736300004472756761206C6F736F77612D
:1052040020776961646F6D6F73630000480000204C
:10521400000000000000000000000000000000008A
:10522400000000000000000000000000000000007A
:10523400000000000000000000000000000000006A
:10524400000000000000000000000000000000005A
:10525400000000000000000000000000000000004A
:10526400000000000000000000000000000000003A
:0852740084AFFF7F0100000080
:04527C00AD01000878
:045280008901000898
:105284000100000010000000000402404000000083
:1052940000000240000200000008024080000000FC
:1052A4000000024000010000D42D000807000C009B
:1052B400483200080B0010000200000041420100C7
:1052C4000024F400480000200000000034520008CC
:1052D40054520008145200080000000000000000AE
:1052E40000000000000000000000000000000000BA
:1052F40000000000000000000000000000000000AA
:105304000000000000000000000000000000000099
:105314000000000000000000000000000000000089
:08532400000000000000000081
:04000005080023E5E7
:00000001FF
