:020000040800F2
:1000000000000220F9280008F9270008FB27000853
:10001000FD270008FF270008012800080000000055
:10002000000000000000000000000000032800089D
:10003000052800080000000007280008092800081B
:1000400049290008492900084929000849290008C8
:1000500049290008492900084929000849290008B8
:1000600049290008492900084929000849290008A8
:100070004929000849290008492900084929000898
:100080004929000849290008492900084929000888
:100090004929000849290008492900084929000878
:1000A0004929000849290008492900084929000868
:1000B0004929000849290008492900084929000858
:1000C0004929000849290008492900084929000848
:1000D0004929000849290008492900081128000871
:1000E0004929000849290008492900084929000828
:1000F0004929000849290008492900084929000818
:100100004929000849290008492900084929000807
:1001100049290008492900084929000849290008F7
:1001200049290008492900084929000849290008E7
:1001300049290008492900084929000849290008D7
:1001400049290008492900084929000849290008C7
:1001500049290008492900084929000849290008B7
:1001600049290008492900084929000849290008A7
:100170004929000849290008492900080000000011
:08018000492900084929000883
:1001880010B5054C237833B9044B13B10448AFF3C9
:1001980000800123237010BDC4000020000000006F
:1001A8009032000808B5034B1BB103490348AFF36D
:1001B800008008BD00000000C80000209032000840
:1001C80053B94AB9002908BF00281CBF4FF0FF31B6
:1001D8004FF0FF3000F072B9ADF1080C6DE904CEB4
:1001E80000F006F8DDF804E0DDE9022304B070470A
:1001F8002DE9F047089E04468846002B4BD18A42D9
:10020800154667D9B2FA82F24AB1C2F1200701FA5B
:1002180002F320FA07F7954047EA030894404FEAAB
:10022800154E230CB8FBFEF71FFA85FC0EFB17884A
:1002380043EA084307FB0CF1994209D9EB1807F187
:10024800FF3080F01B81994240F21881023F2B4415
:100258005B1AA4B2B3FBFEF00EFB103344EA03446E
:1002680000FB0CFCA44509D92C1900F1FF3380F0E0
:100278000781A44540F2048102382C4440EA074033
:10028800A4EB0C0400271EB1D4400023C6E90043A8
:100298003946BDE8F0878B4209D9002E00F0EB8083
:1002A8000027C6E9000138463946BDE8F087B3FAA9
:1002B80083F7002F47D18B4202D3824200F2FA80A3
:1002C800841A61EB030301209846002EE0D0C6E9AA
:1002D8000048DDE702B9FFDEB2FA82F2002A40F0F8
:1002E8008F80491B4FEA154E1FFA85F80127B1FB8D
:1002F800FEFC230C0EFB1C1143EA014308FB0CF126
:10030800994207D9EB180CF1FF3002D2994200F25A
:10031800CD808446591AA3B2B1FBFEF00EFB10142F
:1003280043EA044408FB00F8A04507D92C1900F15A
:10033800FF3302D2A04500F2B6801846A4EB0804A9
:1003480040EA0C409FE7C7F1200CBB4022FA0CFEA4
:100358004EEA030E01FA07F420FA0CF521FA0CF321
:100368004FEA1E482543B3FBF8F92C0C08FB193358
:100378001FFA8EFA44EA034309FB0AF49C4202FA84
:1003880007F200FA07F10BD91EEB030309F1FF305E
:1003980080F087809C4240F28480A9F1020973446E
:1003A8001B1BADB2B3FBF8F008FB103345EA03445E
:1003B80000FB0AFAA24508D91EEB040400F1FF333A
:1003C8006BD2A24569D90238744440EA0940A0FBBF
:1003D8000289A4EB0A044C45C2464B4654D351D07B
:1003E800002E69D0B1EB0A0564EB030404FA0CFC97
:1003F800FD40FC404CEA0505C6E90054002747E7E4
:10040800C2F1200320FA03F7954001FA02F021FA1D
:1004180003F34FEA154E3843010CB3FBFEF71FFAFE
:1004280085F80EFB173341EA034107FB08F38B42BB
:1004380004FA02F407D9691807F1FF3C2FD28B425E
:100448002DD9023F2944CB1A81B2B3FBFEF00EFB33
:10045800103341EA034100FB08F38B4207D96918BE
:1004680000F1FF3C17D28B4215D902382944C91A2A
:1004780040EA07473BE73746304609E70746E7E6DD
:100488001846FBE64145ABD2B8EB020A69EB0E020F
:1004980001381346A4E76046E9E7184695E767463A
:1004A800D1E781467CE702382C4447E7ACF1020CDF
:1004B8002B442FE7384608E73746E9E6704700BF80
:1004C80010B504460E4B18784FF47A73B3FBF0F36B
:1004D8000C4A1068B0FBF3F000F0AAF868B90F2CCA
:1004E80001D901200AE0002221464FF0FF3000F038
:1004F8005DF8034B5C60002000E0012010BD00BFE8
:10050800000000205C00002008B50B4B1A6842F47C
:1005180000721A601A6842F480621A601A6842F41B
:1005280080721A60032000F02FF80020FFF7C8FF40
:1005380002F09CF8002008BD003C0240034A116804
:10054800034B1B780B441360704700BFF800002072
:1005580000000020014B1868704700BFF800002019
:1005680038B50446FFF7F6FF0546B4F1FF3F02D061
:10057800044B1B781C44FFF7EDFF401BA042FAD345
:1005880038BD00BF00000020074AD36823F4E063A9
:100598001B041B0C000200F4E060184340F0BF602D
:1005A80040F40030D060704700ED00E030B4174BE5
:1005B800DB68C3F30223C3F10704042C28BF042417
:1005C8001D1D062D18D9033B4FF0FF3505FA04F41D
:1005D80021EA0401994005FA03F322EA03031943C7
:1005E80000280BDB0901C9B200F1604000F5614049
:1005F80080F8001330BC70470023E5E700F00F00D7
:100608000901C9B2024B1954F4E700BF00ED00E03C
:1006180014ED00E0002807DB00F01F024009012369
:100628009340024A42F82030704700BF00E100E0E2
:100638000138B0F1807F0AD2064B5860064AF02193
:1006480082F823100020986007221A607047012062
:10065800704700BF10E000E000ED00E090F8353092
:10066800DBB2022B03D080234365012070470523AA
:1006780080F835300268136823F001031360002006
:100688007047000000230F2B00F2D780F0B482B02F
:1006980039E0072200E00022B2403A430234674EB4
:1006A80046F82420664A1468EA4302EA04064F68BA
:1006B80017F4803F01D045EA0406614C266064685F
:1006C80002EA04064F6817F4003F01D045EA040621
:1006D8005B4C6660A46802EA04064F6817F4801F42
:1006E80001D045EA0406564CA660E46822404E68EC
:1006F80016F4001F01D045EA0402514CE2600133B0
:100708000F2B00F2978001229A400C6804EA020538
:10071800AA42F4D14C68022C01D0122C10D1DE0868
:10072800083650F826C003F00704A7000F24BC4081
:100738002CEA040C0C69BC4044EA0C0440F826403E
:1007480004685F000326BE40F64306EA040C4C68C2
:1007580004F00304BC4044EA0C0404604C6804F14F
:10076800FF3CBCF1010F03D9112C01D0122C10D180
:10077800846806EA040CCC68BC4044EA0C04846033
:10078800446824EA02024C68C4F300149C401443F1
:100798004460C26816408A68BA403243C2604A68F8
:1007A80012F0805FABD000220192264A546C44F4C8
:1007B80080445464526C02F480420192019A9C086D
:1007C800A61C1E4A52F8267003F0030296000F2258
:1007D800B24027EA02071C4A90423FF45CAF02F598
:1007E800806290421AD002F58062904218D002F5D9
:1007F8008062904216D002F58062904214D002F5D1
:100808008062904212D002F58062904210D002F5C8
:10081800806290423FF43DAF08223DE701223BE76A
:10082800022239E7032237E7042235E7052233E7B6
:10083800062231E702B0F0BC70477047003801402B
:10084800003C0140003802400000024003691942A0
:1008580001D1002070470120704712B90904816155
:100868007047816170470000002800F0BB8170B5B7
:1008780082B00446036813F0010F3BD0A74B9B6876
:1008880003F00C03042B2CD0A44B9B6803F00C033F
:10089800082B21D06368B3F5803F4FD0B3F5A02F64
:1008A80052D09E4B1A6822F480321A601A6822F4D9
:1008B80080221A606368002B50D0FFF74BFE054674
:1008C800964B1B6813F4003F14D1FFF743FE401BFF
:1008D8006428F5D903208AE1904B5B6813F4800FF4
:1008E800D8D08E4B1B6813F4003F03D06368002BED
:1008F80000F07A81236813F0020F55D0874B9B686C
:1009080013F00C0F3ED0854B9B6803F00C03082BAB
:1009180033D0E368002B68D0814B01221A60FFF7BF
:1009280019FE05467D4B1B6813F0020F54D1FFF7E3
:1009380011FE401B0228F5D9032058E1774A1368B5
:1009480043F480331360B5E7744B1A6842F480228D
:100958001A601A6842F480321A60ABE7FFF7FAFDB2
:1009680005466E4B1B6813F4003FC3D0FFF7F2FD3A
:10097800401B6428F5D9032039E1684B5B6813F400
:10098800800FC6D1654B1B6813F0020F04D0E368D3
:10099800012B01D001202AE1604A136823F0F803F3
:1009A800216943EAC1031360236813F0080F40D09C
:1009B800636963B35B4B01221A60FFF7CBFD054601
:1009C800564B5B6F13F0020F33D1FFF7C3FD401B8B
:1009D8000228F5D903200AE1504A136823F0F803E6
:1009E800216943EAC1031360DEE74D4B00221A6018
:1009F800FFF7B0FD0546494B1B6813F0020FD3D033
:100A0800FFF7A8FD401B0228F5D90320EFE0454B6E
:100A180000221A60FFF79EFD0546404B5B6F13F0FE
:100A2800020F06D0FFF796FD401B0228F5D90320D8
:100A3800DDE0236813F0040F79D0384B1B6C13F0FA
:100A4800805F33D100230193344B1A6C42F08052FB
:100A58001A641B6C03F080530193019B0125324BF0
:100A68001B6813F4807F23D0A368012B34D0052B97
:100A780038D02A4B1A6F22F001021A671A6F22F037
:100A880004021A67A368002B36D0FFF763FD0646F9
:100A9800224B1B6F13F0020F48D1FFF75BFD801B41
:100AA80041F288339842F3D90320A0E00025D6E725
:100AB8001D4A136843F480731360FFF74BFD064625
:100AC800194B1B6813F4807FCED1FFF743FD801BC1
:100AD8000228F5D903208AE0104A136F43F0010376
:100AE8001367CFE70D4B1A6F42F004021A671A6FAB
:100AF80042F001021A67C5E7FFF72CFD0646074BCF
:100B08001B6F13F0020F11D0FFF724FD801B41F279
:100B180088339842F3D9032069E000BF00380240C7
:100B280000004742800E474200700040E5B9A369C3
:100B3800002B5BD0304A926802F00C02082A58D089
:100B4800022B17D02D4B00221A60FFF703FD044635
:100B5800294B1B6813F0007F42D0FFF7FBFC001BFA
:100B68000228F5D9032042E0234A136C23F080536E
:100B78001364DCE7214B00221A60FFF7EBFC054603
:100B88001D4B1B6813F0007F06D0FFF7E3FC401BEA
:100B98000228F5D903202AE0E369226A1343626A2E
:100BA80043EA8213A26A5208013A43EA0243E26A1C
:100BB80043EA0263104A5360104B01221A60FFF7A0
:100BC800C9FC04460C4B1B6813F0007F06D1FFF7E5
:100BD800C1FC001B0228F5D9032008E0002006E02C
:100BE800002004E001207047012000E0002002B04E
:100BF80070BD0120FBE700BF00380240600047429B
:100C0800324B9B6803F00C03042B5CD0082B01D0FB
:100C18002F4870472DE9F04B2C4B5A6802F03F02E1
:100C28005B6813F4800F2BD0284B5B68C3F38813E1
:100C38001E4600275C010025E41A65EB0705A9019B
:100C480041EA9461A001001B61EB0501CB0043EA76
:100C58005073C400A01943EB07014B0243EAD05379
:100C68004402204619460023FFF7AAFA174B5B688F
:100C7800C3F3014301335B00B0FBF3F0BDE8F08B35
:100C8800124B5B68C3F388131E4600275C010025DE
:100C9800E41A65EB0705A90141EA9461A001001B6C
:100CA80061EB0501CB0043EA5073C400A01943EB84
:100CB80007018B0243EA9053840220461946002319
:100CC800FFF77EFAD2E70348704700BF00380240BA
:100CD8000024F40000127A00002800F09D8070B50E
:100CE80004464F4B1B6803F00F038B4209D2CBB26B
:100CF8004B4A1370136803F00F038B4201D0012095
:100D080070BD236813F0020F17D013F0040F04D03E
:100D1800444A936843F4E0539360236813F0080F40
:100D280004D0404A936843F4604393603D4A936813
:100D380023F0F003A068034393600D46236813F083
:100D4800010F32D06368012B21D09A1E012A25D9C0
:100D5800344A126812F0020F60D032498A6822F0D1
:100D6800030213438B60FFF7F5FB06462D4B9B6888
:100D780003F00C036268B3EB820F16D0FFF7EAFBAF
:100D8800801B41F288339842F0D90320B8E7254AFE
:100D9800126812F4003FE0D10120B1E7214A12683D
:100DA80012F0007FD9D10120AAE71D4B1B6803F080
:100DB8000F03AB4209D9EAB2194B1A701B6803F04A
:100DC8000F03AB4201D001209AE7236813F0040F08
:100DD80006D0144A936823F4E053E1680B43936008
:100DE800236813F0080F07D00E4A936823F4604372
:100DF800216943EAC1039360FFF702FF094B9B682F
:100E0800C3F30313084AD35CD840084B186000208A
:100E1800FFF756FB002073E70120704701206FE7BA
:100E2800003C024000380240805900085C00002065
:100E3800014B1868704700BF5C00002008B5FFF739
:100E4800F7FF044B9B68C3F38223034AD35CD84063
:100E580008BD00BF003802409059000808B5FFF7E8
:100E6800E7FF044B9B68C3F34233034AD35CD84083
:100E780008BD00BF0038024090590008F8B5054683
:100E88000F4616461C462B689B6837EA03030CBFBF
:100E980001230023B34237D0B4F1FF3FF3D0FFF76B
:100EA80059FB069BC01AA04201D2002CEBD12A683C
:100EB800536823F0E00353606B68B3F5827F0BD06F
:100EC800AB6AB3F5005F14D0012385F851300023D5
:100ED80085F85030032018E0AB68B3F5004F02D016
:100EE800B3F5806FECD12A68136823F040031360D0
:100EF800E6E72A68136823F4005313602A68136826
:100F080043F400531360DFE70020F8BD30B585B027
:100F1800164C2468164DA5FB0434640D4FF47A75FD
:100F280005FB04F403944468B4F5827F0BD0039B5B
:100F3800C3B1039B013B039303689B6813F0800FC5
:100F4800F5D100230FE00B460446009200228021D1
:100F5800FFF794FF034630B1636D43F020036365E8
:100F6800032300E00023184605B030BD5C000020D4
:100F7800819F5E1600283BD010B50446002383628B
:100F880090F85130002B2ED0022384F8513022687B
:100F9800136823F0400313606368A2681343E26890
:100FA80013432269134362691343A26902F400726E
:100FB8001343E2691343226A1343A16A22680B436D
:100FC8001360638B03F00403616A22680B43536068
:100FD8002268D36923F40063D3610020606501238C
:100FE80084F8513010BD80F8503001F05BFBCBE73E
:100FF800012070472DE9F04182B090F85040012C53
:1010080000F0C3801D46174688460446012380F831
:101018005030FFF79FFA064694F85130DBB2012BA7
:1010280009D00220012384F85130002384F850307D
:1010380002B0BDE8F081B8F1000F00F09880002FF1
:1010480000F09780032384F8513000236365C4F8C7
:101058003080A786E786A363A387E3876364236456
:10106800A368B3F5004F1CD023681A6812F0400F2C
:1010780003D11A6842F040021A60E368B3F5006FC2
:1010880015D063680BB1012F49D1226B2368127800
:101098001A73236B01332363E38E013B9BB2E38610
:1010A8003DE02268136843F480431360DCE763681B
:1010B8000BB1012F15D1226B23681288DA60236BDC
:1010C80002332363E38E013B9BB2E38609E0FFF71B
:1010D80041FA801BA84202D3B5F1FF3F4BD1002D46
:1010E8004BD0E38E9BB2002B2CD023689A6812F069
:1010F800020FECD0226B1288DA60236B0233236371
:10110800E38E013B9BB2E386EBE7FFF723FA801BF4
:10111800A84202D3B5F1FF3F31D1002D31D0E38E83
:101128009BB27BB123689A6812F0020FEDD0226B54
:1011380012781A73236B01332363E38E013B9BB24E
:10114800E386ECE7324629462046FFF7DFFE08B182
:1011580020236365A36833B901932368DA68019291
:101168009B680193019B636D6BB900205AE70120CE
:1011780058E7012056E7032054E7032052E70320ED
:1011880050E703204EE701204CE7022050E70268B1
:10119800D36823F49073D3600268536923F0010382
:1011A8005361202380F83A30704790F83930DBB229
:1011B800212B2AD18368B3F5805F16D0036A5A1CA5
:1011C80002621A7803685A60C38C013B9BB2C384DD
:1011D800EBB90268D36823F08003D3600268D36850
:1011E80043F04003D36000207047036A1B880268FD
:1011F800C3F30803536003691BB9036A023303622C
:10120800E2E7036A01330362DEE702207047002049
:10121800704700002DE9F84304460268136923F477
:101228004053C1680B4313618368026913434269E1
:101238001343C2691A430168CB6823F4164323F0A9
:101248000C031343CB600268536923F4407381692C
:101258000B435361C369B3F5004F60D00368B84AC4
:10126800934200F0148102F58062934200F00F81EE
:10127800FFF7E4FD00EB800000EB80006568AD003F
:10128800B0FBF5F5AF4FA7FB05356D092E01FFF74C
:10129800D5FD00EB800000EB80006568AD00B0FB79
:1012A800F5F9FFF7CBFD00EB800000EB80006568E7
:1012B800AD00B0FBF5F5A7FB05356D094FF06408E7
:1012C80008FB15952D013235A7FB05356D0905F08D
:1012D800F0053544FFF7B2FD00EB800000EB80001D
:1012E8006668B600B0FBF6F6FFF7A8FD00EB8000D5
:1012F80000EB800063689B00B0FBF3F0A7FB0030B5
:10130800400908FB10684FEA081808F13208A7FBE3
:101318000837C7F3431723682F449F600DE103681C
:10132800874A93425BD002F58062934257D0FFF719
:1013380085FD00EB800000EB800065686D00B0FB68
:10134800F5F5804FA7FB05356D092E01FFF776FDF2
:1013580000EB800000EB800065686D00B0FBF5F9DC
:10136800FFF76CFD00EB800000EB800065686D0006
:10137800B0FBF5F5A7FB05356D094FF0640808FBD0
:101388001595ED003235A7FB05356D096D0005F49F
:10139800F8753544FFF752FD00EB800000EB800044
:1013A80066687600B0FBF6F6FFF748FD00EB8000B4
:1013B80000EB800063685B00B0FBF3F3A7FB03233B
:1013C8005B0908FB13684FEAC80808F13208A7FB55
:1013D8000837C7F3421723682F449F60ADE0FFF733
:1013E8003DFD00EB800000EB800065686D00B0FB00
:1013F800F5F5544FA7FB05356D092E01FFF72EFDB6
:1014080000EB800000EB800065686D00B0FBF5F92B
:10141800FFF724FD00EB800000EB800065686D009D
:10142800B0FBF5F5A7FB05356D094FF0640808FB1F
:101438001595ED003235A7FB05356D096D0005F4EE
:10144800F8753544FFF70AFD00EB800000EB8000DB
:1014580066687600B0FBF6F6FFF700FD00EB80004B
:1014680000EB800063685B00B0FBF3F3A7FB03238A
:101478005B0908FB13684FEAC80808F13208A7FBA4
:101488000837C7F3421723682F449F6055E0FFF7DA
:10149800E5FC00EB800000EB80006568AD00B0FB68
:1014A800F5F5284FA7FB05356D092E01FFF7D6FC8A
:1014B80000EB800000EB80006568AD00B0FBF5F93B
:1014C800FFF7CCFC00EB800000EB80006568AD0006
:1014D800B0FBF5F5A7FB05356D094FF0640808FB6F
:1014E80015952D013235A7FB05356D0905F0F00579
:1014F8003544FFF7B3FC00EB800000EB8000666822
:10150800B600B0FBF6F6FFF7A9FC00EB800000EB95
:10151800800063689B00B0FBF3F0A7FB0030400934
:1015280008FB10684FEA081808F13208A7FB0837CB
:10153800C7F3431723682F449F60BDE8F88300BFB3
:10154800001001401F85EB512DE9F04105460F467B
:1015580016469846069C2B681B6837EA03030CBF9F
:1015680001230023B3421DD1B4F1FF3FF3D02CB1C6
:10157800FEF7F0FFA0EB0800A042ECD92A68D36878
:1015880023F4D073D3602A68536923F001035361AD
:10159800202385F8393085F83A30002385F838302B
:1015A800032000E00020BDE8F08158B310B50446E0
:1015B80090F839300BB3242384F839302268D36883
:1015C80023F40053D3602046FFF724FE22681369F2
:1015D80023F4904313612268536923F02A0353616B
:1015E8002268D36843F40053D3600020E0632023CB
:1015F80084F8393084F83A3010BD80F8383001F07A
:1016080089F8D8E7012070472DE9F04182B01E46DD
:1016180090F83930DBB2202B55D104460D46904660
:10162800002955D0002A55D090F83830012B53D0D6
:10163800012380F838300023C363212380F8393030
:10164800FEF788FF0746A4F82480A4F8268010E057
:1016580000963B46002280212046FFF775FF0028B0
:101668003CD12B882268C3F3080353602369C3B9AC
:101678000235E38C9BB2B3B1E38C013B9BB2E384AC
:10168800A368B3F5805FE3D000963B460022802133
:101698002046FFF759FF18BB2A7823685A6001359E
:1016A800E7E70135E5E700963B4600224021204662
:1016B800FFF74AFF0346A8B9202284F83920002200
:1016C80084F8382000E00223184602B0BDE8F08113
:1016D8000123F9E70123F7E70223F5E70323F3E7FB
:1016E8000323F1E70323EFE790F83930DBB2202B2F
:1016F80016D1B9B1C2B190F83830012B16D00162B9
:101708008284C2840023C363212280F8392080F8B0
:1017180038300168CA6842F08002CA6018467047CB
:10172800022070470120704701207047022070474F
:1017380090F83A30DBB2202B20D109B312B390F8DD
:101748003830012B20D081628285C2850023C36393
:10175800222280F83A2080F838300168CA6842F4BA
:101768008072CA6001684A6942F001024A610168F0
:10177800CA6842F02002CA601846704702207047C3
:10178800012070470120704702207047704708B554
:101798000168CB6823F04003CB60202380F8393000
:1017A800FFF7F4FF002008BD08B590F83A30DBB227
:1017B800222B45D18368B3F5805F0ED0036903BB44
:1017C80003685A68836A591C81621A70C38D013B89
:1017D8009BB2C385F3B1002033E0826A036943B941
:1017E80003685B68C3F308031380836A0233836268
:1017F800ECE703685B68DBB21380836A01338362BA
:10180800E4E703685B68826A511C816203F07F0326
:101818001370DBE70268D36823F02003D360026803
:10182800D36823F48073D3600268536923F00103FB
:101838005361202380F83A3000F0AEFC002000E02D
:10184800022008BD7047000010B5044602681368FE
:10185800D168526913F00F0005D113F0200F02D0A0
:1018680011F0200F53D1002867D012F0010202D1E5
:1018780011F4907F61D013F0010F06D011F4807F2E
:1018880003D0E06B40F00100E06313F0040F04D0D4
:101898001AB1E06B40F00200E06313F0020F04D0CD
:1018A8001AB1E06B40F00400E06313F0080F04D0B5
:1018B8001AB1E26B42F00802E263E26B002A48D0F8
:1018C80013F0200F02D011F0200F24D123685B6998
:1018D80003F04003E26B12F0080F00D13BB320463F
:1018E800FFF755FC23685A6912F0400F1BD05A695C
:1018F80022F040025A61636B8BB11A4A1A65606B19
:10190800FEF7ACFE28B3606B036D984721E02046D4
:10191800FFF74AFF1DE02046FFF746FFD6E72046BF
:10192800FFF790FF15E02046FFF78CFF11E02046F7
:10193800FFF788FF0023E3630BE013F0800F02D06A
:1019480011F0800F06D113F0400F02D011F0400FB4
:1019580004D110BD2046FFF728FCFAE72046FFF720
:1019680016FFF6E77119000808B5806B0023C385D8
:10197800C384FFF767FF08BD08B50846114600F0A5
:101988006DF908BD08B5084600F082F908BD08B52C
:10199800084600F08DF908BD10B50C4600224168D4
:1019A800FFF7EAFF204600F087F910BD10B50C4696
:1019B80001224168FFF7E0FF204600F07DF910BDE5
:1019C80038B5054681613221FFF7E6FF002405E0BE
:1019D800AB69195D2846FFF7E9FF01341D2CF7DDD7
:1019E80038BD2DE9F0410446884616461F46069D37
:1019F8004421FFF7D1FFC8F3C7012046FFF7D6FF00
:101A0800C7F3C7012046FFF7D1FF45212046FFF75E
:101A1800C3FFF1B22046FFF7C9FFC6F307212046EE
:101A2800FFF7C4FFE9B22046FFF7C0FFC5F307215F
:101A38002046FFF7BBFFBDE8F08110B5044603E080
:101A480064212046FFF7A3FFE1682046FFF79AFFCD
:101A58000128F5D010BD70B504460E4615464E2136
:101A6800FFF79AFFC6F3C7012046FFF79FFF4F21F4
:101A78002046FFF791FFE9B22046FFF797FFC5F32D
:101A880007212046FFF792FF2046FFF7D6FF70BDDB
:101A980010B5044600220168FFF76EFFC8212046F2
:101AA800FFF775FF012221682046FFF765FFC8216F
:101AB8002046FFF76CFF10BD70B504460E460123A3
:101AC800036002234360002383600323C360C823A9
:101AD8000361436100F00EF900284AD10546A6616A
:101AE8002046FFF7D5FF01212046FFF755FFC72104
:101AF8002046FFF75BFF00212046FFF757FF002134
:101B08002046FFF753FF0C212046FFF745FFD7215A
:101B18002046FFF74BFFD6212046FFF747FF9D21C0
:101B28002046FFF743FF2C212046FFF735FFA82169
:101B38002046FFF73BFF3A212046FFF72DFF1A21E9
:101B48002046FFF733FF3B212046FFF725FF0821FA
:101B58002046FFF72BFF11212046FFF71DFF032129
:101B68002046FFF723FFA1692046FFF729FF2846F3
:101B780070BD4FF0FF35FAE7002959D02DE9F04F35
:101B880085B08946002A50DB0E9900294DDB002BD1
:101B98004BDB0F99002948DB02F0F8050E9A02F09A
:101BA800F80705EB0708026990451EDB02F1FF38CC
:101BB8000F9A03EB020B4269934519DB02F1FF3BD5
:101BC8009A4604460390CDF800B04346524629464B
:101BD800FFF707FF524629462046FFF73CFF24211E
:101BE8002046FFF7D9FE002618E008F1FF38DFE7A6
:101BF8000BF1FF3BE4E7B4EBE30F0EDAFB1006FB57
:101C0800034319F803100398FFF7D0FE0134A8EB3B
:101C180005030133EFD50733EDE70136ABEB0A03D4
:101C28000133B34201DD0024F1E705B0BDE8F08FD0
:101C3800704710B504462221FFF7AEFEC4212046A6
:101C4800FFF7B4FE20212046FFF7A6FEFF2120461D
:101C5800FFF7A2FE2046FFF7F0FE10BD08B50129E8
:101C680009D00A4B03EBC0010022898853F83000E1
:101C7800FEF7F3FD08BD054B03EBC001012289887F
:101C880053F83000FEF7E9FDF4E700BFFC00002040
:101C980008B5064B03EBC002918853F83000FEF7F5
:101CA800D5FD012800D0002008BD00BFFC000020A1
:101CB80008B5FEF755FC08BD30B583B002AD05F890
:101CC800010D0A4C0022A1882068FEF7C6FD4FF4DA
:101CD8007A73012229460648FFF78CF90122A18868
:101CE8002068FEF7BAFD03B030BD00BFFC0000203D
:101CF8009001002010B40F4B0F4A92E8030083E8CC
:101D0800030003F1080402F1080103C984E8030091
:101D180003F1100402F1100103C984E80300183329
:101D2800183292E8030083E8030000205DF8044BB2
:101D3800704700BFFC0000200800002010B40024F9
:101D4800C460016012F0070F09D002F10804514283
:101D580002F0070201F0070158BF4A42A21A426086
:101D680083605DF8044B7047002935DB30B4446864
:101D78008C4218DD002A16DB8568954213DDA3B96D
:101D8800006802FB0414002C24DBE4104B4201F031
:101D9800070103F0070358BF594280230B41015D37
:101DA80021EA0301015530BC7047006802FB0414A6
:101DB800002C0DDBE4104B4201F0070103F0070390
:101DC80058BF594280230B41015D19430155EAE789
:101DD8000734EFE70734D8E77047F8B505460F46EC
:101DE80000260AE03B46224631462846FFF7BCFF5C
:101DF8000134AB68A342F5DC01366B68B34201DD00
:101E08000024F6E7F8BD406870478068704738B529
:101E18001446C2686AB9002911DB42688A420EDD9D
:101E2800002C0CDB8268A24209DD2246FFF79CFFEA
:101E380005E0012A04D0022A11D0032A1ED038BD99
:101E48000029FCDB82688A42F9DD002CF7DB456853
:101E5800A542F4DD0A46291BFFF786FFEFE70029B4
:101E6800EDDB45688D42EADD002CE8DB8268A242A2
:101E7800E5DD121B691AFFF777FFE0E70029DEDBD3
:101E880082688A42DBDD002CD9DB4568A542D6DDB5
:101E9800521A2146FFF768FFD1E72DE9F84F83462C
:101EA8008A4691460A9F203BFE8806FB03F6BA88BD
:101EB80012F0070318BF012303EBD2033A6803FBB0
:101EC80006264FF0000822E00B9B08EB090204EB02
:101ED8000A015846FFF79BFF0FE00134BB88A34275
:101EE8000FDD3278634204F0070503F0070358BF9B
:101EF8005D4280232B411A42E6D1072DEDD10136F0
:101F0800EBE713F0070F00D0013608F10108FB8852
:101F1800434501DD0024E1E7BDE8F88F2DE9F043F2
:101F280083B081460D4690461C460A9E0B9F09E0E9
:101F380001970096424629464846FFF7AEFFB38808
:101F48001D4401342378002BF2D103B0BDE8F0839F
:101F58002DE9F04180460D4617461E460C4606E020
:101F6800069B3A4621464046FFF751FF0134AB191C
:101F7800A342F5DCBDE8F0812DE9F04180460F462B
:101F880015461E46144606E0069B2246394640463C
:101F9800FFF73DFF0134AB19A342F5DCBDE8F08142
:101FA8002DE9F04782B081460A9C0B9F98468B42E8
:101FB800A8BF88468B42B8BF0B461D4626469442AA
:101FC800A8BF16469442B8BF1446A3EB080A0AF104
:101FD800010A0097534632464146FFF7B9FF00977A
:101FE8005346224641464846FFF7B2FFA41B013438
:101FF80000972346324641464846FFF7BDFF009703
:102008002346324629464846FFF7B6FF02B0BDE8E8
:10201800F08700002DE9F0418AB000240594069469
:102028000794089409940194324B1A6B42F0800289
:102038001A631A6B02F080020192019A02941A6BD9
:1020480042F001021A631A6B02F001020292029A2C
:1020580003941A6B42F002021A631A6B02F002022E
:102068000392039A04941A6B42F004021A631B6BDE
:1020780003F004030493049B1F4E22464FF404719B
:102088003046FEF7EAFBDFF878802246802140469A
:10209800FEF7E3FB194F224640213846FEF7DDFBE9
:1020A8004FF404730593012506950794089405A930
:1020B8003046FEF7E7FA80230593069507940894BF
:1020C80005A94046FEF7DEFA4FF48073059306949F
:1020D800079405A93046FEF7D5FA402305930695DF
:1020E8000794089405A93846FEF7CCFA0AB0BDE86B
:1020F800F08100BF003802400000024000040240A6
:102108000008024008B50C480C4B03604FF482737A
:1021180043604FF4004383600023C360036143615D
:102128004FF400728261C3610362436283620A23CF
:10213800C362FEF71FFF08BD900100200030014078
:1021480008B50848084B03604FF4E13343600023A7
:102158008360C36003610C2242618361C361FFF73E
:1021680024FA08BDEC0100200044004008B50848E6
:10217800084B03604FF41653436000238360C36029
:1021880003610C2242618361C361FFF70EFA08BD47
:102198001C0100200048004008B502680D4B9A4217
:1021A80000D008BD0C4B1A780C4B1A705821597086
:1021B800412199710D2A00D0DA71002300E0013322
:1021C800074A9342FBDD054B9A8A03490548FFF706
:1021D800AFFAE6E7004800408C01002038000020F4
:1021E8009F8601001C01002030B595B030220021E7
:1021F80008A800F0D9FB00240394049405940694DD
:10220800079401941A4B1A6C42F080521A641B6CA2
:1022180003F080530193019B0294164B1A6842F411
:1022280080421A601B6803F480430293029B0123D7
:1022380008934FF48033099302250E954FF48003D9
:102248000F9304231093482211921295139308A810
:10225800FEF70AFB0F230393049505944FF480536C
:1022680006930794294603A8FEF736FD15B030BD3E
:1022780000380240007000402DE9F04F85B041F26F
:10228800883000F089FB0290FEF73EF9FFF7ACFFBB
:10229800FFF7C0FEFFF736FFFFF752FFFFF766FFB5
:1022A8002C4B9A8A2C492D48FFF742FA2C492D4885
:1022B800FFF702FC002845D12A4C2B4D636922699F
:1022C800DDF8088041462846FFF738FD01212846F9
:1022D800FFF783FD4FF47A712046FFF758FB00267D
:1022E8000196224F0097224B19221E212846FFF7FC
:1022F80015FE019600971F4B322250212846FFF702
:102308000DFE2846FFF77FFD07462846FFF77DFDAF
:10231800019000973346324641462046FFF72CFC91
:102328002046FFF786FC02212046FFF730FB1249C2
:102338002046FFF7C1FB002800F0C7800F4800F0D7
:102348003FFC02E00D4800F03BFC4FF0FF3005B0C9
:10235800BDE8F08F380000208C0100201C0100200F
:10236800C8320008700100205C010020280000200D
:10237800AC590008B8590008A83200089859000854
:10238800A64F5F233B71BB74A54C01212046FFF784
:1023980024FD0221A348FFF7FAFA002501954FF022
:1023A800460BCDF800B0BE231E220A212046FFF7B7
:1023B800F7FD0195AA260096BE2350220A21204641
:1023C800FFF7EEFD0195DFF878A2CDF800A007F140
:1023D800180304226E212046FFF7A0FD07F1040828
:1023E8000195DFF84C92CDF80090434628220F2142
:1023F8002046FFF793FD0195CDF8009043466422EF
:102408000F212046FFF78AFD2046FFF7FCFC0390CA
:102418002046FFF7FAFC0190039B00932B462A46BF
:1024280002998048FFF7A8FB7E48FFF702FCC82105
:102438007C48FFF7ACFA2A233B71BB740121204684
:10244800FFF7CBFC0195CDF800A007F11803042293
:102458006E212046FFF762FD0195CDF800B0BE233E
:102468001E220A212046FFF79BFD01950096BE23F8
:1024780050220A212046FFF793FD0195CDF80090E0
:102488004346282214212046FFF748FD0195CDF840
:1024980000904346642214212046FFF73FFD204662
:1024A800FFF7B1FC07462046FFF7AFFC0190009705
:1024B8002B462A4602995B48FFF75EFB5948FFF70F
:1024C800B8FBC8215748FFF762FA5449CA8A5648E8
:1024D800FFF70AF9554B1B68002B7FF451AF504C9E
:1024E80001212046FFF779FC4E4DC8212846FFF709
:1024F8004EFADFF85081002601964D4F009743466B
:1025080019221E212046FFF709FD01960097494B25
:10251800322250212046FFF701FD2046FFF773FCC9
:1025280081462046FFF771FC0190CDF800903346B4
:102538003246DDF808A051462846FFF71DFB28461D
:10254800FFF777FB02212846FFF721FA01212046F1
:10255800FFF743FCC8212846FFF719FA01960097B0
:10256800434619221E212046FFF7D8FC0196009702
:10257800314B322250212046FFF7D0FC2046FFF78E
:1025880042FC81462046FFF740FC0190CDF80090C0
:102598003346324651462846FFF7EEFA2846FFF7FB
:1025A80048FB02212846FFF7F2F901212046FFF7F0
:1025B80014FCC8212846FFF7EAF90196009743461C
:1025C80019221E212046FFF7A9FC019600971B4BF4
:1025D800322250212046FFF7A1FC2046FFF713FCCA
:1025E80007462046FFF711FC019000973346324614
:1025F80051462846FFF7C0FA2846FFF71AFB022182
:102608002846FFF7C4F9094A536801335360012B80
:102618007FF45BAF134601221A6056E738000020AA
:102628005C010020700100201C010020E000002057
:1026380028000020BC590008C0590008B8590008F3
:1026480030000020AC59000800B583B002A941F859
:10265800040D4FF6FF7301220348FEF7D5FF0198DA
:1026680003B05DF804FB00BFEC01002082B000213C
:1026780000910B4B5A6C42F480425A645A6C02F433
:1026880080420092009A01911A6C42F080521A64BA
:102698001B6C03F080530193019B02B0704700BF8D
:1026A8000038024000B589B00023039304930593D2
:1026B800069307930268154B9A4202D009B05DF859
:1026C80004FB0021019103F584335A6C42F48052D3
:1026D8005A645A6C02F480520192019A02911A6B60
:1026E80042F001021A631B6B03F001030293029B81
:1026F800A02303930223049303230693052307933C
:1027080003A90348FDF7BEFFD8E700BF003001402A
:102718000000024010B58AB0002305930693079382
:102728000893099303682D4A934204D02C4A934294
:1027380026D00AB010BD002101912A4B1A6C42F430
:1027480000321A641A6C02F400320192019A029162
:102758001A6B42F001021A631B6B03F00103029328
:10276800029B0C230593022306930123079303235B
:1027780008930723099305A91B48FDF783FFD8E7AA
:1027880000240394174B1A6C42F480221A641A6CC2
:1027980002F480220392039A04941A6B42F0020214
:1027A8001A631B6B03F002030493049B4FF440630A
:1027B8000593022306930123079303230893072312
:1027C800099305A90948FDF75DFF22462146272000
:1027D800FDF7ECFE2720FDF71DFFAAE700440040A7
:1027E8000048004000380240000002400004024057
:1027F8007047FEE7FEE7FEE7FEE770477047704761
:1028080008B5FDF79BFE08BD08B50248FFF71CF8A0
:1028180008BD00BF1C01002070B50D4616460024F7
:1028280004E0AFF30080287001340135B442F8DBCE
:10283800304670BD70B51646002405E04D1C08787A
:10284800FFF702FF01342946B442F7DB304670BD7A
:1028580008B503460B4A126842B10A4A1068034495
:102868006A46934206D8074A136008BD054A0649D6
:102878001160F2E700F066F80C2303604FF0FF30B8
:10288800F3E700BFE8000020300200204FF0FF30DF
:1028980070474FF400534B60002070470120704789
:1028A800002070470F49D1F8883043F47003C1F80D
:1028B80088300D4B1A6842F001021A6000209860B7
:1028C8001A6822F0847222F480321A60074A5A6029
:1028D8001A6822F480221A60D8604FF000638B6077
:1028E800704700BF00ED00E00038024010300024BF
:1028F800DFF834D0002103E00C4B5B58435004311F
:102908000B480C4B42189A42F6D30B4A02E00023BC
:1029180042F8043B094B9A42F9D3FFF7C3FF00F092
:1029280017F8FFF7A9FC704700000220385A000882
:1029380000000020C4000020C40000203002002055
:10294800FEE70000014B1868704700BF60000020D8
:1029580070B50D4E0D4CA41BA4100025A54209D13D
:102968000B4E0C4C00F090FCA41BA4100025A542B3
:1029780005D170BD56F8253098470135EEE756F871
:10298800253098470135F2E7305A0008305A0008D8
:10299800305A0008345A0008024B0146186800F003
:1029A80059B800BF6000002002440346934200D19A
:1029B800704703F8011BF9E738B50546002945D0EB
:1029C80051F8043C0C1F002BB8BFE41800F0AEFB14
:1029D8001F4A1368104633B9636014602846BDE87F
:1029E800384000F0A4BBA3420CD921686218934276
:1029F80004BF1A685B68636004BF521822600460F1
:102A0800ECE713465A680AB1A242FAD9196858186D
:102A1800A0420BD120680144581882421960DDD1C8
:102A2800106852685A6001441960D7E702D90C232C
:102A38002B60D3E7206821188A4204BF11685268C6
:102A4800626004BF091821605C60C7E738BD00BF39
:102A5800F000002070B5CD1C25F0030508350C2DBD
:102A680038BF0C25002D064601DBA94203D90C23EB
:102A78003360002070BD00F059FB214A14682146DC
:102A880091B9204C23681BB9304600F0A1F82060AA
:102A98002946304600F09CF8431C24D10C233360AF
:102AA800304600F044FBE4E70B685B1B18D40B2BA3
:102AB8000FD90B60CD50CC18304600F038FB04F12C
:102AC8000B00231D20F00700C31AD3D05A42E2504E
:102AD800D0E78C424B6816BF636013600C46EBE787
:102AE8000C464968CCE7C41C24F00304A04205D076
:102AF800211A304600F06CF80130CFD02560DBE7B2
:102B0800F0000020F400002070B50E46054618B10C
:102B180083690BB900F01CFAAB69AC6813B9284695
:102B280000F016FA234B9C4217D16C68A3891B0747
:102B38001DD52369DBB1013EA36816F8011F013BCF
:102B4800A360E9B9002B2EDA22460A21284600F0B4
:102B58004FF8013011D00A2011E0174B9C4201D1E7
:102B6800AC68E3E7154B9C4208BFEC68DEE72146FA
:102B7800284600F08FF80028DDD04FF0FF3070BDF8
:102B8800002B04DAA2699A4206DC0A2904D02368D9
:102B98005A1C22601970CFE72246284600F028F810
:102BA8000130C9D1E9E723680A205A1C226018704D
:102BB800E5E700BFE8590008085A0008C8590008A6
:102BC800024B01461868FFF79FBF00BF6000002056
:102BD80038B5064C0023054608462360FFF738FE43
:102BE800431C02D1236803B12B6038BD2C0200209E
:102BF800F8B50E461446054618B183690BB900F0BE
:102C0800A7F9214B9C422AD16C68A369A360A389C8
:102C18001A072ED5236963B323692068C01A63692C
:102C2800F6B28342374604DC2146284600F026F9EE
:102C380028BBA368013BA36023685A1C22601E704E
:102C480063690130834204D0A389DB0719D50A2EB2
:102C580017D12146284600F011F990B10FE00B4B2F
:102C68009C4201D1AC68D0E7094B9C4208BFEC6894
:102C7800CBE72146284600F00DF80028CCD04FF0CD
:102C8800FF373846F8BD00BFE8590008085A000861
:102C9800C8590008324B70B51D6806460C4625B168
:102CA800AB6913B9284600F053F92E4B9C420FD15B
:102CB8006C68B4F90C309AB215072CD4D00611D42C
:102CC8000922326043F04003A3814FF0FF303EE019
:102CD800254B9C4201D1AC68EBE7244B9C4208BFD2
:102CE800EC68E6E7510712D5616B41B104F1440382
:102CF800994202D03046FFF75FFE00236363A38941
:102D080023F02403A3810023636023692360A3893C
:102D180043F00803A38123694BB9A38903F4207303
:102D2800B3F5007F03D02146304600F0BFF9A289F1
:102D380012F001030CD00023A36063695B42A36116
:102D4800236953B9B4F90C3013F08000BAD170BDBF
:102D5800920758BF6369A360F2E70020F7E700BF56
:102D680060000020E8590008085A0008C8590008FF
:102D78008A892DE9F041054610070C4658D44B685E
:102D8800002B05DC0B6C002B02DC0020BDE8F08179
:102D9800E66A002EF9D0002312F480522F68216AC7
:102DA8002B6032D0606DA3895A0705D56368C01AB5
:102DB800636B0BB1236CC01A00230246E66A216AD2
:102DC8002846B047431CA38906D129681D2948D83D
:102DD800294ACA40D60744D500226260D90422692C
:102DE800226004D5421C01D12B6803B96065616B70
:102DF8002F600029C9D004F14403994202D0284623
:102E0800FFF7DAFD00206063C0E701232846B047DA
:102E1800411CC8D12B68002BC5D01D2B01D0162B07
:102E280001D12F60B1E7A38943F04003A381ADE747
:102E38000F69002FA9D093070E6808BF4B690F6070
:102E480018BF0023A6EB07088B60B8F1000F9CDDC4
:102E580043463A46216AA66A2846B047002806DC57
:102E6800A38943F04003A3814FF0FF308EE7074466
:102E7800A8EB0008E9E700BF0100402038B50B695E
:102E880005460C46DBB118B183690BB900F060F850
:102E98000C4B9C4209D16C68B4F90C307BB12146CB
:102EA8002846BDE83840FFF763BF074B9C4201D175
:102EB800AC68F1E7054B9C4208BFEC68ECE70020E2
:102EC80038BD00BFE8590008085A0008C85900086A
:102ED800002310B50446C0E900338360818143664E
:102EE800C281C0E904338361194608225C30FFF7C8
:102EF8005BFD054B6362054BA362054BE362054B23
:102F08002462236310BD00BF393100085B3100081B
:102F180093310008B7310008014900F085B800BFB7
:102F2800852E000870B54A1E682555430E4605F1E2
:102F38007401FFF78FFD044640B10021C0E9001677
:102F48000C30A06005F16802FFF72EFD204670BD29
:102F5800836910B5044633BBC0E912330365124BCD
:102F6800124A1B688262984204BF0123836100F001
:102F78001FF86060204600F01BF8A060204600F0B3
:102F880017F80022E06004216068FFF7A1FF012222
:102F98000921A068FFF79CFF02221221E068FFF7D1
:102FA80097FF0123A36110BDC4590008212F000811
:102FB800F8B51B4B1E68B369074613B93046FFF7CF
:102FC800C7FF4836D6E90134013B03D5336833B12E
:102FD8003668F7E7B4F90C506DB16834F4E70421AA
:102FE8003846FFF79FFF30600028F1D10C233B6083
:102FF80004462046F8BD0B4B6566C4E90055A5603C
:10300800C4E90335C4E905550822294604F15C00E2
:10301800FFF7CAFCC4E90D55C4E91255E9E700BF3A
:10302800C45900080100FFFF2DE9F843804689468E
:1030380000F14804002614B93046BDE8F883D4E905
:103048000175013F01D52468F5E7AB89012B07D944
:10305800B5F90E30013303D029464046C847064328
:103068006835EEE770B50E46B1F90E10002996B036
:1030780014461D4607DA00232B60B3891A0610D4BC
:103088004FF480630EE06A4600F0B8F80028F2DBDF
:10309800019A02F47042A2F500535A425A412A603A
:1030A800EEE740230020236016B070BD8B8973B50E
:1030B8009D0706460C4607D504F1470323602361A4
:1030C8000123636102B070BD01AB6A46FFF7CAFF16
:1030D800009905463046FFF7BDFC48B9B4F90C30F5
:1030E8009A05EFD423F0030343F00203A381E3E737
:1030F8000D4BB362A389206043F08003A381009B3A
:103108006361019B20615BB1B4F90E10304600F099
:1031180087F828B1A38923F0030343F00103A381AF
:10312800A3891D43A581CDE7212F0008704770476B
:1031380010B50C46B1F90E1000F094F80028ABBF9A
:10314800636DA3891B1823F48053ACBF6365A38107
:1031580010BD2DE9F0411F468B89DB0505460C465D
:10316800164605D502230022B1F90E1000F068F8C2
:10317800A389B4F90E1023F48053A38132463B4649
:103188002846BDE8F04100F017B810B50C46B1F973
:103198000E1000F055F8431CA38915BF606523F491
:1031A800805343F48053A38118BFA38110BDB1F9A4
:1031B8000E1000F013B8000038B5074C0546084655
:1031C8001146002222601A46FFF734FB431C02D145
:1031D800236803B12B6038BD2C02002038B5064C9B
:1031E8000023054608462360FFF750FB431C02D125
:1031F800236803B12B6038BD2C02002038B5074C7A
:1032080000230546084611462360FFF742FB431C8E
:1032180002D1236803B12B6038BD00BF2C02002007
:1032280038B5064C0023054608462360FFF736FBF1
:10323800431C02D1236803B12B6038BD2C02002047
:1032480038B5074C054608461146002222601A4642
:10325800FFF726FB431C02D1236803B12B6038BD5E
:103268002C02002038B5074C0546084611460022B6
:1032780022601A46FFF7D0FA431C02D1236803B133
:103288002B6038BD2C020020F8B500BFF8BC08BC84
:103298009E467047F8B500BFF8BC08BC9E4670470C
:1032A8001018180818180800000000000000000096
:1032B8000000000013144412000000000000000089
:1032C80002020111121222226669695958999988D5
:1032D80000000000F8B413513551511901000000E5
:1032E80000000000000000000000000000000000D6
:1032F80000000000000000000000000000000000C6
:1033080000000C000C000C000C000C000C000C0061
:103318000C0000000C00000000000000000000008D
:10332800000000001DC01DC0088008800880000043
:103338000000000000000000000000000000000085
:1033480000000D800D800D800D803FC01B003FC028
:103358001B001B001B001B000000000000000000F9
:1033680004001F803180318038001E000F00038068
:10337800318031803F00040004000000000000009C
:10338800000018002400240018C007801E003180A7
:103398000240024001800000000000000000000020
:1033A800000000000F001800180018000C001D8015
:1033B800370033001D8000000000000000000000FE
:1033C80000000000070007000200020002000000E1
:1033D80000000000000000000000000000000000E5
:1033E80000000300030006000E000C000C000C0097
:1033F8000C000E000600030003000000000000009F
:103408000000180018000C00060006000600060060
:10341800060006000C001C00180000000000000058
:103428000000060006003FC03FC00F001F80198043
:103438000000000000000000000000000000000084
:103448000000000000000400040004003F800400A5
:10345800040004000000000000000000000000005C
:103468000000000000000000000000000000000054
:103478000000060004000C0008000800000000001E
:103488000000000000000000000000003F80000075
:103498000000000000000000000000000000000024
:1034A8000000000000000000000000000000000014
:1034B80000000C000C0000000000000000000000EC
:1034C80000C000C0018001800300030006000C005A
:1034D8000C00180018003000300000000000000048
:1034E80000000E001B003180318031803180318036
:1034F80031801B000E0000000000000000000000EA
:10350800000006003E000600060006000600060051
:10351800060006003FC00000000000000000000098
:1035280000000F00198031803180030006000C0074
:10353800180030003F80000000000000000000007C
:1035480000003F006180018003001F0003800180AC
:10355800018061803F0000000000000000000000C2
:103568000000070007000F000B001B0013003300CA
:103578003F8003000F8000000000000000000000F2
:1035880000001F801800180018001F00118001801B
:10359800018021801F0000000000000000000000E2
:1035A800000007801C001800300037003980318087
:1035B800318019800F0000000000000000000000AA
:1035C80000007F0043000300060006000600060016
:1035D8000C000C000C0000000000000000000000BF
:1035E80000001F003180318031801F003180318020
:1035F800318031801F000000000000000000000042
:1036080000001E0033003180318033801D8001802E
:10361800030007003C00000000000000000000005C
:1036280000000000000000000C000C00000000007A
:1036380000000C000C00000000000000000000006A
:10364800000000000000000003000300000000006C
:103658000000060004000800080000000000000048
:103668000000000000C003000400180060001800FB
:103678000400030000C0000000000000000000007B
:10368800000000000000000000007FC000007FC0B4
:103698000000000000000000000000000000000022
:1036A80000000000600018000400030000C00300D0
:1036B8000400180060000000000000000000000086
:1036C800000000001F0031803180018007000C00DD
:1036D8000C0000000C0000000000000000000000CA
:1036E80000000E00110021002100270029002900F8
:1036F8002700200011000E0000000000000000005C
:10370800000000003F000F000900198019801F8089
:1037180030C030C079E00000000000000000000068
:10372800000000007F003180318031803F0031800F
:10373800318031807F0000000000000000000000A0
:10374800000000001F4030C0604060006000600062
:10375800604030801F0000000000000000000000F2
:10376800000000007F00318030C030C030C030C061
:1037780030C031807F000000000000000000000021
:10378800000000007F803080308032003E00320030
:10379800308030807F8000000000000000000000C2
:1037A800000000007FC03040304032003E00320050
:1037B800300030007C000000000000000000000025
:1037C800000000001E80318060806000600067C0DB
:1037D800618031801F000000000000000000000030
:1037E800000000007BC03180318031803F80318013
:1037F800318031807BC00000000000000000000024
:10380800000000003FC00600060006000600060093
:10381800060006003FC00000000000000000000095
:10382800000000001FC00300030003000300630042
:10383800630063003E00000000000000000000007C
:10384800000000007BC03180330036003C003E00A1
:103858003300318079C00000000000000000000043
:10386800000000007E00180018001800180018401A
:10387800184018407FC00000000000000000000051
:1038880000000000E0E060C071C07BC06AC06EC08C
:1038980064C060C0FBE00000000000000000000001
:1038A8000000000073C0318039803D80358037804A
:1038B80033803180798000000000000000000000A3
:1038C800000000001F00318060C060C060C060C0A0
:1038D80060C031801F0000000000000000000000F0
:1038E800000000007F0031803180318031803F004E
:1038F800300030007E0000000000000000000000E2
:10390800000000001F00318060C060C060C060C05F
:1039180060C031801F000CC01F8000000000000044
:10392800000000007F003180318031803E0033008C
:10393800318031807CE000000000000000000000C1
:10394800000000001F803180318038001F00038094
:10395800318031803F0000000000000000000000BE
:10396800000000007F804C804C804C800C000C00D4
:103978000C000C003F0000000000000000000000E8
:10398800000000007BC0318031803180318031807F
:10399800318031801F00000000000000000000009E
:1039A800000000007BC0318031801B001B001B0021
:1039B8000A000E000E0000000000000000000000D9
:1039C80000000000FBE060C064C06EC06EC02A80CA
:1039D8003B803B80318000000000000000000000B8
:1039E800000000007BC031801B000E000E000E009E
:1039F8001B0031807BC000000000000000000000B8
:103A08000000000079E030C019800F0006000600B1
:103A1800060006001F8000000000000000000000F3
:103A2800000000003F8021802300060004000C00F5
:103A3800188030803F800000000000000000000077
:103A480000000780060006000600060006000600C3
:103A580006000600060006000780000000000000BF
:103A680030003000180018000C000C00060003009D
:103A780003000180018000C000C0000000000000B9
:103A880000001E00060006000600060006000600EC
:103A980006000600060006001E00000000000000E8
:103AA80004000A000A0011002080208000000000A5
:103AB80000000000000000000000000000000000FE
:103AC80000000000000000000000000000000000EE
:103AD8000000000000000000000000000000FFE0FF
:103AE80008000400020000000000000000000000C0
:103AF80000000000000000000000000000000000BE
:103B080000000000000000001F00018001801F80ED
:103B1800318033801DC0000000000000000000005C
:103B280000007000300030003700398030C030C0ED
:103B380030C039807700000000000000000000005D
:103B480000000000000000001E80318060806000DE
:103B5800608031801F0000000000000000000000AD
:103B680000000380018001801D80338061806180B6
:103B7800618033801DC000000000000000000000CC
:103B880000000000000000001F00318060C07FC0FE
:103B9800600030C01F80000000000000000000002E
:103BA800000007E00C000C003F800C000C000C002B
:103BB8000C000C003F800000000000000000000026
:103BC80000000000000000001DC03380618061809B
:103BD800618033801D80018001801F00000000008B
:103BE80000007000300030003700398031803180AB
:103BF800318031807BC00000000000000000000020
:103C080000000600060000001E0006000600060070
:103C1800060006003FC00000000000000000000091
:103C280000000600060000003F0003000300030038
:103C3800030003000300030003003E00000000002F
:103C48000000700030003000378036003C003C0037
:103C58003600330077C000000000000000000000BC
:103C680000001E000600060006000600060006000A
:103C7800060006003FC00000000000000000000031
:103C880000000000000000007F8036C036C036C04B
:103C980036C036C076E000000000000000000000DA
:103CA800000000000000000077003980318031807A
:103CB800318031807BC0000000000000000000005F
:103CC80000000000000000001F00318060C060C0DC
:103CD80060C031801F0000000000000000000000EC
:103CE80000000000000000007700398030C030C0BC
:103CF80030C039803700300030007C000000000000
:103D080000000000000000001DC033806180618059
:103D1800618033801D800180018007C000000000A1
:103D280000000000000000007B801CC01800180084
:103D3800180018007F0000000000000000000000CC
:103D480000000000000000001F8031803C001F00C0
:103D5800038031803F0000000000000000000000E8
:103D680000001800180018007F001800180018003C
:103D7800180018800F00000000000000000000007C
:103D88000000000000000000738031803180318025
:103D9800318033801DC000000000000000000000DA
:103DA80000000000000000007BC0318031801B0053
:103DB8001B000E000E0000000000000000000000C4
:103DC8000000000000000000F1E060C064C06EC0A8
:103DD8003B803B80318000000000000000000000B4
:103DE80000000000000000007BC01B000E000E0059
:103DF8000E001B007BC00000000000000000000057
:103E0800000000000000000079E030C0198019802F
:103E18000B000F00060006000C003E00000000002A
:103E280000000000000000003F80218003000E0019
:103E3800180030803F8000000000000000000000F3
:103E4800000006000C000C000C000C000C00180010
:103E58000C000C000C000C00060000000000000024
:103E68000000060006000600060006000600060020
:103E7800060006000600060006000000000000001C
:103E880000000C00060006000600060006000300FD
:103E980006000600060006000C00000000000000F6
:103EA800000000000000000000001800248003004B
:103EB80000000000000000000000000000000000FA
:103EC80000000000000000000000000000000000EA
:103ED80000000000000000000000000000000000DA
:103EE80000000000000000000000000000000000CA
:103EF80000000000000000000000000000000000BA
:103F08000000000000000000000000000000038026
:103F1800000380000380000380000380000380000A
:103F280003800003800003800001000001000000FE
:103F38000000000000038000038000000000000073
:103F48000000000000000000000000000000000069
:103F58000000000000000000000E70000E70000E4F
:103F68007000042000042000042000042000000049
:103F78000000000000000000000000000000000039
:103F88000000000000000000000000000000000029
:103F980000000000000000000000000000000660B3
:103FA800000660000660000660000660003FF8003A
:103FB8003FF8000660000CC0003FF8003FF8000C16
:103FC800C0000CC0000CC0000CC0000CC0000000F9
:103FD80000000000000000000000000000000000D9
:103FE80000000001800001800007B0000FF00018F9
:103FF80070001870001C00000F800007E00000F03F
:10400800001830001C30001C70001FE0001BC000AE
:104018000180000180000180000180000000000094
:104028000000000000000000000000000000078001
:10403800000FC0001CE0001860001860001CE000C1
:104048000FF80007E0001FF0000738000618000608
:10405800180007380003F00001E00000000000002D
:104068000000000000000000000000000000000048
:1040780000000000000000000000000003F000073E
:10408800F0000C60000C00000C00000600000700A7
:10409800000F9C001DFC0018F0001870000FFC00B9
:1040A80007DC000000000000000000000000000025
:1040B80000000000000000000000000000000000F8
:1040C800000380000380000380000100000100005D
:1040D80001000001000000000000000000000000D6
:1040E80000000000000000000000000000000000C8
:1040F80000000000000000000000000000000000B8
:1041080000000000000000180000380000700000E7
:10411800F00000E00000E00001C00001C00001C0A4
:104128000001C00001C00001C00000E00000E00084
:104138000070000070000038000018000000000047
:10414800000000000000000000000000000018004F
:10415800001C00000E00000E000007000007000011
:1041680003800003800003800003800003800003B5
:1041780080000700000700000F00000E00001C0070
:10418800001800000000000000000000000000000F
:104198000000000000000180000180000180001D77
:1041A800B8001FF80007E00003C00003C000066065
:1041B8000006600000000000000000000000000091
:1041C80000000000000000000000000000000000E7
:1041D80000000000000000000000000000000000D7
:1041E80000000000018000018000018000018000C3
:1041F8000180003FFC003FFC0001800001800001BD
:104208008000018000018000000000000000000024
:104218000000000000000000000000000000000096
:104228000000000000000000000000000000000086
:104238000000000000000000000000000000000076
:104248000000000000000000000000E00000C000C6
:1042580001C000018000018000030000030000008D
:104268000000000000000000000000000000000046
:104278000000000000000000000000000000000036
:104288000000001FF8001FF80000000000000000F8
:104298000000000000000000000000000000000016
:1042A8000000000000000000000000000000000006
:1042B80000000000000000000000000000000000F6
:1042C80000000000000000000000000000000000E6
:1042D8000000000000000000000003C00003C00050
:1042E80003C0000000000000000000000000000003
:1042F800000000000000000000180000180000384E
:104308000000300000700000600000600000C00085
:1043180000C00001800001800003000003000006C7
:1043280000000600000E00000C00001C0000180031
:10433800001800000000000000000000000000005D
:1043480000000000000003C00007E0000C30000C73
:104358003000181800181800181800181800181835
:10436800001818001818000C30000C300007E00086
:1043780003C0000000000000000000000000000072
:1043880000000000000000000000000000000080A5
:10439800000780001F80001D800001800001800050
:1043A800018000018000018000018000018000017F
:1043B80080000180001FF8001FF8000000000000C6
:1043C80000000000000000000000000000000000E5
:1043D80000000000000007C0001FF0003830003067
:1043E800180030180000180000300000600001C0FC
:1043F800000380000600000C00001800003FF800D1
:104408003FF800000000000000000000000000006D
:10441800000000000000000000000000000003C0D1
:10442800000FE0000C700000300000300000600059
:1044380003C00003E000007000001800001800002E
:1044480018001838001FF0000FC00000000000001E
:104458000000000000000000000000000000000054
:1044680000000000000000E00001E00001E000039F
:1044780060000660000660000C60000C60001860B8
:10448800003060003FF8003FF80000600003F800CB
:1044980003F8000000000000000000000000000019
:1044A80000000000000000000000000000001FF0F5
:1044B800001FF0001800001800001800001BC000C2
:1044C8001FF0001C30000018000018000018000041
:1044D80018003030003FF0000FC00000000000005E
:1044E80000000000000000000000000000000000C4
:1044F80000000000000000F80003F8000700000EAC
:1045080000000C00001800001BC0001FF0001C3049
:10451800001818001818001818000C38000FF000C0
:1045280003E00000000000000000000000000000A0
:1045380000000000000000000000000000001FF85C
:10454800001FF8001818001838000030000030006C
:1045580000700000600000600000E00000C0000083
:10456800C00001C0000180000180000000000000C0
:104578000000000000000000000000000000000033
:1045880000000000000007E0000FF0001C380018D1
:1045980018001818000C300007E00007E0000C3085
:1045A800001818001818001818001C38000FF00020
:1045B80007E000000000000000000000000000000C
:1045C800000000000000000000000000000007C01C
:1045D800000FF0001C3000181800181800181800F8
:1045E8000C38000FF80003D8000018000030000055
:1045F800700000E0001FC0001F0000000000000065
:1046080000000000000000000000000000000000A2
:104618000000000000000000000000000000000092
:10462800000003C00003C00003C000000000000039
:104638000000000000000000000003C00003C000EC
:1046480003C000000000000000000000000000009F
:104658000000000000000000000000000000000052
:104668000000000000000000000000F00000F00062
:1046780000F0000000000000000000000000000042
:10468800E00001C00001800001800003000002007A
:104698000000000000000000000000000000000012
:1046A800000000000000000000000000001C0000E6
:1046B8003C0000F00003C0000F00003C0000F000C8
:1046C800003C00000F000003C00000F000003C00A8
:1046D800001C0000000000000000000000000000B6
:1046E80000000000000000000000000000000000C2
:1046F800000000000000000000000000007FFC0037
:104708007FFC000000000000007FFC007FFC000030
:104718000000000000000000000000000000000091
:104728000000000000000000000000000000000081
:104738000000000000000000000000007000007889
:1047480000001E000007800001E000007800001E45
:104758000000780001E0000780001E0000780000DB
:1047680070000000000000000000000000000000D1
:104778000000000000000000000000000000000031
:104788000007C0000FE00018700018300018300053
:1047980000700000E00003C0000380000300000078
:1047A80000000000000700000700000000000000F3
:1047B80000000000000000000000000000000000F1
:1047C80000000000000003E00007F0000E38000CB5
:1047D800180018780018F80019D8001998001998C6
:1047E8000019980018F8001878001800000C00004C
:1047F8000E180007F80003E00000000000000000A9
:1048080000000000000000000000000000000000A0
:10481800001F80001FC00001C0000360000360008B
:104828000630000630000C30000FF8001FF80018A2
:104838000C00300C00FC7F00FC7F00000000000032
:104848000000000000000000000000000000000060
:104858000000000000000000007FE0007FF000186A
:1048680038001818001818001838001FF0001FF832
:1048780000181C00180C00180C00180C007FF80019
:104888007FF00000000000000000000000000000B1
:104898000000000000000000000000000000000010
:1048A8000003EC000FFC001C1C00180C00300C006E
:1048B80030000030000030000030000030000018E8
:1048C8000C001C1C000FF80003F0000000000000A2
:1048D80000000000000000000000000000000000D0
:1048E8000000000000000000007FC0007FF00018FA
:1048F8003800181800180C00180C00180C00180CB8
:1049080000180C00180C001818001838007FF00068
:104918007FE0000000000000000000000000000030
:10492800000000000000000000000000000000007F
:10493800007FF8007FF80018180018180019980070
:104948001980001F80001F80001980001998001826
:1049580018001818007FF8007FF800000000000019
:10496800000000000000000000000000000000003F
:104978000000000000000000003FFC003FFC000CAD
:104988000C000C0C000CCC000CC0000FC0000FC0B9
:10499800000CC0000CC0000C00000C00003FC00060
:1049A8003FC0000000000000000000000000000000
:1049B80000000000000000000000000000000000EF
:1049C8000003EC000FFC001C1C00180C00300C004D
:1049D80030000030000030FE0030FE00300C00389F
:1049E8000C001C1C000FFC0003F00000000000007D
:1049F80000000000000000000000000000000000AF
:104A08000000000000000000007E7E007E7E00188E
:104A180018001818001818001818001FF8001FF8B8
:104A2800001818001818001818001818007E7E00C2
:104A38007E7E000000000000000000000000000072
:104A4800000000000000000000000000000000005E
:104A5800001FF8001FF8000180000180000180009D
:104A680001800001800001800001800001800001B8
:104A780080000180001FF8001FF8000000000000FF
:104A8800000000000000000000000000000000001E
:104A980000000000000000000007FE0007FE000004
:104AA80030000030000030000030000030003030AE
:104AB800003030003030003030003060003FE0001F
:104AC8000F8000000000000000000000000000004F
:104AD80000000000000000000000000000000000CE
:104AE800007F3E007F3E0018300018600018C000AC
:104AF8001980001B80001FC0001CE00018700018FF
:104B080030001838007F1F007F1F000000000000E1
:104B1800000000000000000000000000000000008D
:104B28000000000000000000007F80007F80000C73
:104B380000000C00000C00000C00000C00000C0031
:104B4800000C0C000C0C000C0C000C0C007FFC0082
:104B58007FFC0000000000000000000000000000D2
:104B6800000000000000000000000000000000003D
:104B780000F00F00F81F00381C003C3C003C3C00D3
:104B8800366C00366C0033CC0033CC00318C0030EE
:104B98000C00300C00FE7F00FE7F000000000000CB
:104BA80000000000000000000000000000000000FD
:104BB80000000000000000000078FE0078FE001CE5
:104BC80018001E18001F18001B18001B980019D881
:104BD8000018D80018F8001878001838007F180056
:104BE8007F18000000000000000000000000000026
:104BF80000000000000000000000000000000000AD
:104C08000003C0000FF0001C3800181800381C0002
:104C1800300C00300C00300C00300C00381C001830
:104C280018001C38000FF00003C00000000000004E
:104C3800000000000000000000000000000000006C
:104C48000000000000000000003FF0003FF8000CEA
:104C58001C000C0C000C0C000C0C000C18000FF8BD
:104C6800000FE0000C00000C00000C00003FC0002A
:104C78003FC000000000000000000000000000002D
:104C8800000000000000000000000000000000001C
:104C98000003C0000FF0001C3800181800381C0072
:104CA800300C00300C00300C00300C00381C0018A0
:104CB80018001C38000FF00007C00007CC000FFCDC
:104CC800000C380000000000000000000000000098
:104CD8000000000000000000007FE0007FF00018E6
:104CE80038001818001818001838001FF0001FC0E6
:104CF8000018E0001870001830001838007F1E00F7
:104D08007F0E00000000000000000000000000000E
:104D1800000000000000000000000000000000008B
:104D28000007D8000FF8001C3800181800181800E1
:104D38001E00000FC00003F00000780018180018CB
:104D480018001C38001FF0001BE0000000000000E5
:104D5800000000000000000000000000000000004B
:104D68000000000000000000003FFC003FFC003194
:104D78008C00318C00318C00318C00018000018066
:104D8800000180000180000180000180000FF00018
:104D98000FF000000000000000000000000000000C
:104DA80000000000000000000000000000000000FB
:104DB800007E7E007E7E0018180018180018180063
:104DC80018180018180018180018180018180018D3
:104DD80018000C30000FF00003C0000000000000B5
:104DE80000000000000000000000000000000000BB
:104DF8000000000000000000007F7F007F7F001897
:104E08000C000C18000C18000C18000630000630B6
:104E18000003600003600003600001C00001C000DF
:104E280000800000000000000000000000000000FA
:104E3800000000000000000000000000000000006A
:104E480000FE3F80FE3F80300600300600308600BE
:104E580019CC0019CC001B6C001B6C001E7C000ECA
:104E680038000E38000C18000C1800000000000074
:104E7800000000000000000000000000000000002A
:104E88000000000000000000007E7E007E7E00180A
:104E980018000C300006600003C00001800001808B
:104EA8000003C0000660000C30001818007E7E0069
:104EB8007E7E0000000000000000000000000000EE
:104EC80000000000000000000000000000000000DA
:104ED800007C7E007C7E001818000C300006600004
:104EE80006600003C000018000018000018000010D
:104EF80080000180000FF0000FF0000000000000AB
:104F08000000000000000000000000000000000099
:104F18000000000000000000001FF8001FF8001843
:104F2800180018300018600018C000018000030045
:104F3800000618000C18001818003018003FF80078
:104F48003FF8000000000000000000000000000022
:104F5800000000000000000000000000000001F058
:104F68000001F00001800001800001800001800044
:104F780001800001800001800001800001800001A3
:104F8800800001800001800001800001800001F0A4
:104F98000001F00000000000000000000000000018
:104FA8001800001800001C00000C00000E0000068D
:104FB80000000600000300000300000180000180DB
:104FC8000000C00000C00000600000600000700029
:104FD8000030000038000018000018000000000031
:104FE80000000000000000000000000000000F802A
:104FF800000F800001800001800001800001800016
:105008000180000180000180000180000180000112
:1050180080000180000180000180000180000F8075
:10502800000F8000000000000000000000000000E9
:1050380000000000800001C00003E00007700006C7
:1050480030000C1800180C001004000000000000CC
:105058000000000000000000000000000000000048
:105068000000000000000000000000000000000038
:105078000000000000000000000000000000000028
:105088000000000000000000000000000000000018
:105098000000000000000000000000000000000008
:1050A80000000000000000000000000000000000F8
:1050B80000000000000000000000FFFF00FFFF00EC
:1050C80000000003000003800000E0000060000012
:1050D80000000000000000000000000000000000C8
:1050E80000000000000000000000000000000000B8
:1050F80000000000000000000000000000000000A8
:105108000000000000000000000000000000000097
:10511800000000000000000000000FC0001FE000B9
:1051280000300000300007F0001FF0003830003079
:1051380030003070001FFC000FBC000000000000B1
:105148000000000000000000000000000000000057
:105158000000000000007800007800001800001827
:1051680000001BE0001FF8001C1800180C00180CA9
:1051780000180C00180C00180C001C18007FF80010
:105188007BE00000000000000000000000000000BC
:105198000000000000000000000000000000000007
:1051A8000000000000000000000003EC000FFC00FD
:1051B8001C1C00380C00300C003000003000003897
:1051C8000C001C1C000FF80003F000000000000099
:1051D80000000000000000000000000000000000C7
:1051E80000000000000000780000780000180000AF
:1051F800180007D8001FF8001838003018003018B9
:10520800003018003018003018001838001FFE0051
:1052180007DE0000000000000000000000000000A1
:105228000000000000000000000000000000000076
:105238000000000000000000000007E0001FF80068
:10524800181800300C003FFC003FFC003000003014
:105258000000180C001FFC0007F000000000000010
:105268000000000000000000000000000000000036
:1052780000000000000001FC0003FC00060000061E
:1052880000003FF8003FF800060000060000060096
:10529800000600000600000600000600003FF000BF
:1052A8003FF00000000000000000000000000000C7
:1052B80000000000000000000000000000000000E6
:1052C8000000000000000000000007DE001FFE00D4
:1052D8001838003018003018003018003018003026
:1052E80018001838001FF80007D800001800001828
:1052F800000038000FF0000FC000000000000000A0
:105308000000000000007800007800001800001875
:1053180000001BE0001FF0001C38001818001818C7
:10532800001818001818001818001818007E7E00B9
:105338007E7E000000000000000000000000000069
:1053480000000000000000000000000000000180D4
:10535800000180000000000000001F80001F800086
:1053680001800001800001800001800001800001AF
:1053780080000180003FFC003FFC000000000000AE
:105388000000000000000000000000000000000015
:1053980000000000000000C00000C0000000000085
:1053A80000001FF0001FF000003000003000003047
:1053B80000003000003000003000003000003000F5
:1053C8000030000030000030000070001FE0001FB7
:1053D80080000000000000000000000000003C0009
:1053E800003C00000C00000C00000CF8000CF80059
:1053F8000CC0000D80000F80000F00000F80000D12
:10540800C0000CE0003C7C003C7C00000000000078
:105418000000000000000000000000000000000084
:105428000000000000001F80001F800001800001B4
:10543800800001800001800001800001800001805F
:10544800000180000180000180000180003FFC0015
:105458003FFC000000000000000000000000000009
:105468000000000000000000000000000000000034
:1054780000000000000000000000F77800FFFC00BA
:1054880039CC00318C00318C00318C00318C0031EA
:105498008C00318C00FDEF00FDEF000000000000E3
:1054A80000000000000000000000000000000000F4
:1054B80000000000000000000000000000000000E4
:1054C80000007BE0007FF0001C3800181800181856
:1054D800001818001818001818001818007E7E0008
:1054E8007E7E0000000000000000000000000000B8
:1054F80000000000000000000000000000000000A4
:105508000000000000000000000003C0000FF000D1
:105518001C3800381C00300C00300C00300C0038EF
:105528001C001C38000FF00003C000000000000041
:105538000000000000000000000000000000000063
:105548000000000000000000000000000000000053
:1055580000007BE0007FF8001C1800180C00180CF5
:1055680000180C00180C00180C001C18001FF8007C
:105578001BE0001800001800001800007F00007FE2
:105588000000000000000000000000000000000013
:105598000000000000000000000007DE001FFE0001
:1055A8001838003018003018003018003018003053
:1055B80018001838001FF80007D800001800001855
:1055C8000000180000FE0000FE00000000000000BF
:1055D80000000000000000000000000000000000C3
:1055E80000003E78003EFC0007CC000700000600E3
:1055F800000600000600000600000600003FF0005C
:105608003FF0000000000000000000000000000063
:105618000000000000000000000000000000000082
:105628000000000000000000000007F8000FF8006C
:105638001818001818001F80000FF00000F8001854
:1056480018001838001FF0001FE0000000000000DC
:105658000000000000000000000000000000000042
:105668000000000000000C00000C00000C00000C02
:1056780000003FF0003FF0000C00000C00000C00A0
:10568800000C00000C00000C00000C1C0007FC00C3
:1056980003F000000000000000000000000000000F
:1056A80000000000000000000000000000000000F2
:1056B8000000000000000000000078780078780002
:1056C80018180018180018180018180018180018CA
:1056D80018001838000FFE0007DE00000000000068
:1056E80000000000000000000000000000000000B2
:1056F80000000000000000000000000000000000A2
:1057080000007C3E007C3E001818001818000C3081
:10571800000C300006600006600007E00003C000CF
:1057280003C00000000000000000000000000000AE
:105738000000000000000000000000000000000061
:1057480000000000000000000000783C00783C00E9
:105758003118003398003398001AB0001EF0001E6C
:10576800F0001C60000C60000C60000000000000ED
:105778000000000000000000000000000000000021
:105788000000000000000000000000000000000011
:1057980000003E7C003E7C000C300006600003C028
:1057A8000001800003C0000660000C30003E7C0051
:1057B8003E7C000000000000000000000000000027
:1057C80000000000000000000000000000000000D1
:1057D800000000000000000000007E1F007E1F0087
:1057E800180C000C18000C180006300006300003D6
:1057F800600003E00001C00000C0000180000180DB
:10580800000300003FC0003FC0000000000000008F
:105818000000000000000000000000000000000080
:1058280000001FF8001FF80018300018600000C0C2
:10583800000180000300000618000C18001FF80083
:105848001FF8000000000000000000000000000039
:10585800000000000000000000000000000000E060
:105868000001E0000180000180000180000180004B
:105878000180000180000380000700000380000110
:10588800800001800001800001800001800001E0AB
:105898000000E00000000000000000000000000020
:1058A800000000000000018000018000018000016C
:1058B80080000180000180000180000180000180DB
:1058C800000180000180000180000180000180004B
:1058D80001800001800001800001800000000000BC
:1058E80000000000000000000000000000000700A9
:1058F8000007800001800001800001800001800015
:1059080001800001800001C00000E00001C000012A
:105918008000018000018000018000018000078074
:105928000007000000000000000000000000000068
:10593800000000000000000000000000000000005F
:1059480000000000000000000E00001F18003BB817
:105958000031F00000E0000000000000000000003E
:10596800000000000000000000000000000000002F
:10597800000000000000000000000000000000001F
:1059880001020304060708090000000001020304DD
:10599800652D506170657220696E69742066616951
:1059A8006C6564004F637A656B6977616E69650041
:1059B8002E2E2E002E0000002E2E00006400002047
:1059C80000000000000000000000000000000000CF
:1059D80000000000000000000000000000000000BF
:1059E80000000000000000000000000000000000AF
:1059F800000000000000000000000000000000009F
:105A0800000000000000000000000000000000008E
:105A1800000000000000000000000000000000007E
:085A2800D0A7FF7F0100000080
:045A3000AD010008BC
:045A340089010008DC
:105A380001000000100000000004024040000000C7
:105A48000000024000020000000802408000000040
:105A58000000024000010000E83200080B001000BE
:105A6800C83E000811001800414600005F5F5F5FF4
:105A78005F5F5F5F5F5F5F5F5F5F5F000100020006
:105A880031333A3536000000585800000024F4003D
:105A98006400002000000000E8590008085A0008C7
:105AA800C8590008000000000000000000000000C5
:105AB80000000000000000000000000000000000DE
:105AC80000000000000000000000000000000000CE
